{
	"authentication.sol": {
		"Managers": {
			"abi": [
				{
					"inputs": [],
					"stateMutability": "nonpayable",
					"type": "constructor"
				},
				{
					"inputs": [
						{
							"internalType": "address",
							"name": "_manager",
							"type": "address"
						}
					],
					"name": "addManager",
					"outputs": [],
					"stateMutability": "nonpayable",
					"type": "function"
				},
				{
					"inputs": [
						{
							"internalType": "address",
							"name": "_owner",
							"type": "address"
						}
					],
					"name": "changeOwner",
					"outputs": [],
					"stateMutability": "nonpayable",
					"type": "function"
				},
				{
					"inputs": [
						{
							"internalType": "address",
							"name": "_manager",
							"type": "address"
						}
					],
					"name": "deleteManager",
					"outputs": [],
					"stateMutability": "nonpayable",
					"type": "function"
				},
				{
					"inputs": [],
					"name": "getManagers",
					"outputs": [
						{
							"internalType": "address[]",
							"name": "",
							"type": "address[]"
						}
					],
					"stateMutability": "view",
					"type": "function"
				},
				{
					"inputs": [],
					"name": "getOwner",
					"outputs": [
						{
							"internalType": "address",
							"name": "",
							"type": "address"
						}
					],
					"stateMutability": "view",
					"type": "function"
				},
				{
					"inputs": [
						{
							"internalType": "address",
							"name": "_managerAddress",
							"type": "address"
						}
					],
					"name": "isManager",
					"outputs": [
						{
							"internalType": "bool",
							"name": "",
							"type": "bool"
						}
					],
					"stateMutability": "view",
					"type": "function"
				},
				{
					"inputs": [
						{
							"internalType": "address",
							"name": "_ownerAddress",
							"type": "address"
						}
					],
					"name": "isOwner",
					"outputs": [
						{
							"internalType": "bool",
							"name": "",
							"type": "bool"
						}
					],
					"stateMutability": "view",
					"type": "function"
				}
			],
			"devdoc": {
				"kind": "dev",
				"methods": {},
				"version": 1
			},
			"evm": {
				"assembly": "    /* \"authentication.sol\":572:3199  contract Managers{... */\n  mstore(0x40, 0x80)\n    /* \"authentication.sol\":630:631  0 */\n  0x00\n    /* \"authentication.sol\":616:632  new Manager[](0) */\n  0xffffffffffffffff\n  dup2\n  gt\n  iszero\n  tag_1\n  jumpi\n  tag_2\n  tag_3\n  jump\t// in\ntag_2:\ntag_1:\n  mload(0x40)\n  swap1\n  dup1\n  dup3\n  mstore\n  dup1\n  0x20\n  mul\n  0x20\n  add\n  dup3\n  add\n  0x40\n  mstore\n  dup1\n  iszero\n  tag_4\n  jumpi\n  dup2\n  0x20\n  add\n  0x20\n  dup3\n  mul\n  dup1\n  calldatasize\n  dup4\n  calldatacopy\n  dup1\n  dup3\n  add\n  swap2\n  pop\n  pop\n  swap1\n  pop\ntag_4:\n  pop\n    /* \"authentication.sol\":595:632  Manager[] managers = new Manager[](0) */\n  0x00\n  swap1\n  dup1\n  mload\n  swap1\n  0x20\n  add\n  swap1\n  tag_5\n  swap3\n  swap2\n  swap1\n  tag_6\n  jump\t// in\ntag_5:\n  pop\n    /* \"authentication.sol\":3102:3197  constructor(){... */\n  callvalue\n  dup1\n  iszero\n  tag_7\n  jumpi\n  0x00\n  dup1\n  revert\ntag_7:\n  pop\n    /* \"authentication.sol\":3125:3136  Owner owner */\n  0x00\n    /* \"authentication.sol\":3149:3159  msg.sender */\n  caller\n    /* \"authentication.sol\":3139:3160  new Owner(msg.sender) */\n  mload(0x40)\n  tag_10\n  swap1\n  tag_11\n  jump\t// in\ntag_10:\n  tag_12\n  swap2\n  swap1\n  tag_13\n  jump\t// in\ntag_12:\n  mload(0x40)\n  dup1\n  swap2\n  sub\n  swap1\n  0x00\n  create\n  dup1\n  iszero\n  dup1\n  iszero\n  tag_14\n  jumpi\n  returndatasize\n  0x00\n  dup1\n  returndatacopy\n  revert(0x00, returndatasize)\ntag_14:\n  pop\n    /* \"authentication.sol\":3125:3160  Owner owner = new Owner(msg.sender) */\n  swap1\n  pop\n    /* \"authentication.sol\":3170:3178  managers */\n  0x00\n    /* \"authentication.sol\":3184:3189  owner */\n  dup2\n    /* \"authentication.sol\":3170:3190  managers.push(owner) */\n  swap1\n  dup1\n  0x01\n  dup2\n  sload\n  add\n  dup1\n  dup3\n  sstore\n  dup1\n  swap2\n  pop\n  pop\n  0x01\n  swap1\n  sub\n  swap1\n  0x00\n  mstore\n  keccak256(0x00, 0x20)\n  add\n  0x00\n  swap1\n  swap2\n  swap1\n  swap2\n  swap1\n  swap2\n  0x0100\n  exp\n  dup2\n  sload\n  dup2\n  0xffffffffffffffffffffffffffffffffffffffff\n  mul\n  not\n  and\n  swap1\n  dup4\n  0xffffffffffffffffffffffffffffffffffffffff\n  and\n  mul\n  or\n  swap1\n  sstore\n  pop\n    /* \"authentication.sol\":3115:3197  {... */\n  pop\n    /* \"authentication.sol\":572:3199  contract Managers{... */\n  jump(tag_16)\ntag_6:\n  dup3\n  dup1\n  sload\n  dup3\n  dup3\n  sstore\n  swap1\n  0x00\n  mstore\n  keccak256(0x00, 0x20)\n  swap1\n  dup2\n  add\n  swap3\n  dup3\n  iszero\n  tag_17\n  jumpi\n  swap2\n  0x20\n  mul\n  dup3\n  add\ntag_18:\n  dup3\n  dup2\n  gt\n  iszero\n  tag_19\n  jumpi\n  dup3\n  mload\n  dup3\n  exp(0x0100, 0x00)\n  dup2\n  sload\n  dup2\n  0xffffffffffffffffffffffffffffffffffffffff\n  mul\n  not\n  and\n  swap1\n  dup4\n  0xffffffffffffffffffffffffffffffffffffffff\n  and\n  mul\n  or\n  swap1\n  sstore\n  pop\n  swap2\n  0x20\n  add\n  swap2\n  swap1\n  0x01\n  add\n  swap1\n  jump(tag_18)\ntag_19:\ntag_17:\n  pop\n  swap1\n  pop\n  tag_20\n  swap2\n  swap1\n  tag_21\n  jump\t// in\ntag_20:\n  pop\n  swap1\n  jump\t// out\ntag_11:\n  dataSize(sub_1)\n  dup1\n  dataOffset(sub_1)\n  dup4\n  codecopy\n  add\n  swap1\n  jump\t// out\ntag_21:\ntag_22:\n  dup1\n  dup3\n  gt\n  iszero\n  tag_23\n  jumpi\n  0x00\n  dup2\n  0x00\n  swap1\n  sstore\n  pop\n  0x01\n  add\n  jump(tag_22)\ntag_23:\n  pop\n  swap1\n  jump\t// out\n    /* \"#utility.yul\":7:187   */\ntag_3:\n    /* \"#utility.yul\":55:132   */\n  0x4e487b7100000000000000000000000000000000000000000000000000000000\n    /* \"#utility.yul\":52:53   */\n  0x00\n    /* \"#utility.yul\":45:133   */\n  mstore\n    /* \"#utility.yul\":152:156   */\n  0x41\n    /* \"#utility.yul\":149:150   */\n  0x04\n    /* \"#utility.yul\":142:157   */\n  mstore\n    /* \"#utility.yul\":176:180   */\n  0x24\n    /* \"#utility.yul\":173:174   */\n  0x00\n    /* \"#utility.yul\":166:181   */\n  revert\n    /* \"#utility.yul\":193:319   */\ntag_24:\n    /* \"#utility.yul\":230:237   */\n  0x00\n    /* \"#utility.yul\":270:312   */\n  0xffffffffffffffffffffffffffffffffffffffff\n    /* \"#utility.yul\":263:268   */\n  dup3\n    /* \"#utility.yul\":259:313   */\n  and\n    /* \"#utility.yul\":248:313   */\n  swap1\n  pop\n    /* \"#utility.yul\":193:319   */\n  swap2\n  swap1\n  pop\n  jump\t// out\n    /* \"#utility.yul\":325:421   */\ntag_25:\n    /* \"#utility.yul\":362:369   */\n  0x00\n    /* \"#utility.yul\":391:415   */\n  tag_31\n    /* \"#utility.yul\":409:414   */\n  dup3\n    /* \"#utility.yul\":391:415   */\n  tag_24\n  jump\t// in\ntag_31:\n    /* \"#utility.yul\":380:415   */\n  swap1\n  pop\n    /* \"#utility.yul\":325:421   */\n  swap2\n  swap1\n  pop\n  jump\t// out\n    /* \"#utility.yul\":427:545   */\ntag_26:\n    /* \"#utility.yul\":514:538   */\n  tag_33\n    /* \"#utility.yul\":532:537   */\n  dup2\n    /* \"#utility.yul\":514:538   */\n  tag_25\n  jump\t// in\ntag_33:\n    /* \"#utility.yul\":509:512   */\n  dup3\n    /* \"#utility.yul\":502:539   */\n  mstore\n    /* \"#utility.yul\":427:545   */\n  pop\n  pop\n  jump\t// out\n    /* \"#utility.yul\":551:773   */\ntag_13:\n    /* \"#utility.yul\":644:648   */\n  0x00\n    /* \"#utility.yul\":682:684   */\n  0x20\n    /* \"#utility.yul\":671:680   */\n  dup3\n    /* \"#utility.yul\":667:685   */\n  add\n    /* \"#utility.yul\":659:685   */\n  swap1\n  pop\n    /* \"#utility.yul\":695:766   */\n  tag_35\n    /* \"#utility.yul\":763:764   */\n  0x00\n    /* \"#utility.yul\":752:761   */\n  dup4\n    /* \"#utility.yul\":748:765   */\n  add\n    /* \"#utility.yul\":739:745   */\n  dup5\n    /* \"#utility.yul\":695:766   */\n  tag_26\n  jump\t// in\ntag_35:\n    /* \"#utility.yul\":551:773   */\n  swap3\n  swap2\n  pop\n  pop\n  jump\t// out\n    /* \"authentication.sol\":572:3199  contract Managers{... */\ntag_16:\n  dataSize(sub_0)\n  dup1\n  dataOffset(sub_0)\n  0x00\n  codecopy\n  0x00\n  return\nstop\n\nsub_0: assembly {\n        /* \"authentication.sol\":572:3199  contract Managers{... */\n      mstore(0x40, 0x80)\n      callvalue\n      dup1\n      iszero\n      tag_1\n      jumpi\n      0x00\n      dup1\n      revert\n    tag_1:\n      pop\n      jumpi(tag_2, lt(calldatasize, 0x04))\n      shr(0xe0, calldataload(0x00))\n      dup1\n      0x96799760\n      gt\n      tag_10\n      jumpi\n      dup1\n      0x96799760\n      eq\n      tag_6\n      jumpi\n      dup1\n      0xa6f9dae1\n      eq\n      tag_7\n      jumpi\n      dup1\n      0xa8d088bb\n      eq\n      tag_8\n      jumpi\n      dup1\n      0xf3ae2415\n      eq\n      tag_9\n      jumpi\n      jump(tag_2)\n    tag_10:\n      dup1\n      0x2d06177a\n      eq\n      tag_3\n      jumpi\n      dup1\n      0x2f54bf6e\n      eq\n      tag_4\n      jumpi\n      dup1\n      0x893d20e8\n      eq\n      tag_5\n      jumpi\n    tag_2:\n      0x00\n      dup1\n      revert\n        /* \"authentication.sol\":1638:1940  function addManager(address _manager)public{... */\n    tag_3:\n      tag_11\n      0x04\n      dup1\n      calldatasize\n      sub\n      dup2\n      add\n      swap1\n      tag_12\n      swap2\n      swap1\n      tag_13\n      jump\t// in\n    tag_12:\n      tag_14\n      jump\t// in\n    tag_11:\n      stop\n        /* \"authentication.sol\":638:805  function isOwner(address _ownerAddress)view public returns(bool){... */\n    tag_4:\n      tag_15\n      0x04\n      dup1\n      calldatasize\n      sub\n      dup2\n      add\n      swap1\n      tag_16\n      swap2\n      swap1\n      tag_13\n      jump\t// in\n    tag_16:\n      tag_17\n      jump\t// in\n    tag_15:\n      mload(0x40)\n      tag_18\n      swap2\n      swap1\n      tag_19\n      jump\t// in\n    tag_18:\n      mload(0x40)\n      dup1\n      swap2\n      sub\n      swap1\n      return\n        /* \"authentication.sol\":811:1065  function getOwner()public view returns(address){... */\n    tag_5:\n      tag_20\n      tag_21\n      jump\t// in\n    tag_20:\n      mload(0x40)\n      tag_22\n      swap2\n      swap1\n      tag_23\n      jump\t// in\n    tag_22:\n      mload(0x40)\n      dup1\n      swap2\n      sub\n      swap1\n      return\n        /* \"authentication.sol\":1946:2564  function deleteManager(address _manager)public{... */\n    tag_6:\n      tag_24\n      0x04\n      dup1\n      calldatasize\n      sub\n      dup2\n      add\n      swap1\n      tag_25\n      swap2\n      swap1\n      tag_13\n      jump\t// in\n    tag_25:\n      tag_26\n      jump\t// in\n    tag_24:\n      stop\n        /* \"authentication.sol\":2569:3097  function changeOwner(address _owner)public{... */\n    tag_7:\n      tag_27\n      0x04\n      dup1\n      calldatasize\n      sub\n      dup2\n      add\n      swap1\n      tag_28\n      swap2\n      swap1\n      tag_13\n      jump\t// in\n    tag_28:\n      tag_29\n      jump\t// in\n    tag_27:\n      stop\n        /* \"authentication.sol\":1348:1632  function getManagers()view public returns(address[] memory){... */\n    tag_8:\n      tag_30\n      tag_31\n      jump\t// in\n    tag_30:\n      mload(0x40)\n      tag_32\n      swap2\n      swap1\n      tag_33\n      jump\t// in\n    tag_32:\n      mload(0x40)\n      dup1\n      swap2\n      sub\n      swap1\n      return\n        /* \"authentication.sol\":1071:1342  function isManager(address _managerAddress) view public returns(bool){... */\n    tag_9:\n      tag_34\n      0x04\n      dup1\n      calldatasize\n      sub\n      dup2\n      add\n      swap1\n      tag_35\n      swap2\n      swap1\n      tag_13\n      jump\t// in\n    tag_35:\n      tag_36\n      jump\t// in\n    tag_34:\n      mload(0x40)\n      tag_37\n      swap2\n      swap1\n      tag_19\n      jump\t// in\n    tag_37:\n      mload(0x40)\n      dup1\n      swap2\n      sub\n      swap1\n      return\n        /* \"authentication.sol\":1638:1940  function addManager(address _manager)public{... */\n    tag_14:\n        /* \"authentication.sol\":1699:1720  isManager(msg.sender) */\n      tag_39\n        /* \"authentication.sol\":1709:1719  msg.sender */\n      caller\n        /* \"authentication.sol\":1699:1708  isManager */\n      tag_36\n        /* \"authentication.sol\":1699:1720  isManager(msg.sender) */\n      jump\t// in\n    tag_39:\n        /* \"authentication.sol\":1691:1788  require(isManager(msg.sender),\"you are not manager. addManager function is allowed for manager.\") */\n      tag_40\n      jumpi\n      mload(0x40)\n      0x08c379a000000000000000000000000000000000000000000000000000000000\n      dup2\n      mstore\n      0x04\n      add\n      tag_41\n      swap1\n      tag_42\n      jump\t// in\n    tag_41:\n      mload(0x40)\n      dup1\n      swap2\n      sub\n      swap1\n      revert\n    tag_40:\n        /* \"authentication.sol\":1807:1826  isManager(_manager) */\n      tag_43\n        /* \"authentication.sol\":1817:1825  _manager */\n      dup2\n        /* \"authentication.sol\":1807:1816  isManager */\n      tag_36\n        /* \"authentication.sol\":1807:1826  isManager(_manager) */\n      jump\t// in\n    tag_43:\n        /* \"authentication.sol\":1806:1826  !isManager(_manager) */\n      iszero\n        /* \"authentication.sol\":1798:1852  require(!isManager(_manager),\"He is already manager.\") */\n      tag_44\n      jumpi\n      mload(0x40)\n      0x08c379a000000000000000000000000000000000000000000000000000000000\n      dup2\n      mstore\n      0x04\n      add\n      tag_45\n      swap1\n      tag_46\n      jump\t// in\n    tag_45:\n      mload(0x40)\n      dup1\n      swap2\n      sub\n      swap1\n      revert\n    tag_44:\n        /* \"authentication.sol\":1862:1877  Manager manager */\n      0x00\n        /* \"authentication.sol\":1892:1900  _manager */\n      dup2\n        /* \"authentication.sol\":1880:1901  new Manager(_manager) */\n      mload(0x40)\n      tag_47\n      swap1\n      tag_48\n      jump\t// in\n    tag_47:\n      tag_49\n      swap2\n      swap1\n      tag_23\n      jump\t// in\n    tag_49:\n      mload(0x40)\n      dup1\n      swap2\n      sub\n      swap1\n      0x00\n      create\n      dup1\n      iszero\n      dup1\n      iszero\n      tag_50\n      jumpi\n      returndatasize\n      0x00\n      dup1\n      returndatacopy\n      revert(0x00, returndatasize)\n    tag_50:\n      pop\n        /* \"authentication.sol\":1862:1901  Manager manager = new Manager(_manager) */\n      swap1\n      pop\n        /* \"authentication.sol\":1911:1919  managers */\n      0x00\n        /* \"authentication.sol\":1925:1932  manager */\n      dup2\n        /* \"authentication.sol\":1911:1933  managers.push(manager) */\n      swap1\n      dup1\n      0x01\n      dup2\n      sload\n      add\n      dup1\n      dup3\n      sstore\n      dup1\n      swap2\n      pop\n      pop\n      0x01\n      swap1\n      sub\n      swap1\n      0x00\n      mstore\n      keccak256(0x00, 0x20)\n      add\n      0x00\n      swap1\n      swap2\n      swap1\n      swap2\n      swap1\n      swap2\n      0x0100\n      exp\n      dup2\n      sload\n      dup2\n      0xffffffffffffffffffffffffffffffffffffffff\n      mul\n      not\n      and\n      swap1\n      dup4\n      0xffffffffffffffffffffffffffffffffffffffff\n      and\n      mul\n      or\n      swap1\n      sstore\n      pop\n        /* \"authentication.sol\":1681:1940  {... */\n      pop\n        /* \"authentication.sol\":1638:1940  function addManager(address _manager)public{... */\n      pop\n      jump\t// out\n        /* \"authentication.sol\":638:805  function isOwner(address _ownerAddress)view public returns(bool){... */\n    tag_17:\n        /* \"authentication.sol\":697:701  bool */\n      0x00\n        /* \"authentication.sol\":727:740  _ownerAddress */\n      dup2\n        /* \"authentication.sol\":715:740  getOwner()==_ownerAddress */\n      0xffffffffffffffffffffffffffffffffffffffff\n      and\n        /* \"authentication.sol\":715:725  getOwner() */\n      tag_53\n        /* \"authentication.sol\":715:723  getOwner */\n      tag_21\n        /* \"authentication.sol\":715:725  getOwner() */\n      jump\t// in\n    tag_53:\n        /* \"authentication.sol\":715:740  getOwner()==_ownerAddress */\n      0xffffffffffffffffffffffffffffffffffffffff\n      and\n      sub\n        /* \"authentication.sol\":712:777  if(getOwner()==_ownerAddress){... */\n      tag_54\n      jumpi\n        /* \"authentication.sol\":762:766  true */\n      0x01\n        /* \"authentication.sol\":755:766  return true */\n      swap1\n      pop\n      jump(tag_52)\n        /* \"authentication.sol\":712:777  if(getOwner()==_ownerAddress){... */\n    tag_54:\n        /* \"authentication.sol\":793:798  false */\n      0x00\n        /* \"authentication.sol\":786:798  return false */\n      swap1\n      pop\n        /* \"authentication.sol\":638:805  function isOwner(address _ownerAddress)view public returns(bool){... */\n    tag_52:\n      swap2\n      swap1\n      pop\n      jump\t// out\n        /* \"authentication.sol\":811:1065  function getOwner()public view returns(address){... */\n    tag_21:\n        /* \"authentication.sol\":850:857  address */\n      0x00\n        /* \"authentication.sol\":872:881  uint256 i */\n      dup1\n        /* \"authentication.sol\":884:885  0 */\n      0x00\n        /* \"authentication.sol\":872:885  uint256 i = 0 */\n      swap1\n      pop\n        /* \"authentication.sol\":868:1032  for(uint256 i = 0; i < managers.length; i++){... */\n    tag_56:\n        /* \"authentication.sol\":891:899  managers */\n      0x00\n        /* \"authentication.sol\":891:906  managers.length */\n      dup1\n      sload\n      swap1\n      pop\n        /* \"authentication.sol\":887:888  i */\n      dup2\n        /* \"authentication.sol\":887:906  i < managers.length */\n      lt\n        /* \"authentication.sol\":868:1032  for(uint256 i = 0; i < managers.length; i++){... */\n      iszero\n      tag_57\n      jumpi\n        /* \"authentication.sol\":929:937  managers */\n      0x00\n        /* \"authentication.sol\":938:939  i */\n      dup2\n        /* \"authentication.sol\":929:940  managers[i] */\n      dup2\n      sload\n      dup2\n      lt\n      tag_59\n      jumpi\n      tag_60\n      tag_61\n      jump\t// in\n    tag_60:\n    tag_59:\n      swap1\n      0x00\n      mstore\n      keccak256(0x00, 0x20)\n      add\n      0x00\n      swap1\n      sload\n      swap1\n      0x0100\n      exp\n      swap1\n      div\n      0xffffffffffffffffffffffffffffffffffffffff\n      and\n        /* \"authentication.sol\":929:948  managers[i].isOwner */\n      0xffffffffffffffffffffffffffffffffffffffff\n      and\n      0x8f32d59b\n        /* \"authentication.sol\":929:950  managers[i].isOwner() */\n      mload(0x40)\n      dup2\n      0xffffffff\n      and\n      0xe0\n      shl\n      dup2\n      mstore\n      0x04\n      add\n      0x20\n      mload(0x40)\n      dup1\n      dup4\n      sub\n      dup2\n      dup7\n      gas\n      staticcall\n      iszero\n      dup1\n      iszero\n      tag_64\n      jumpi\n      returndatasize\n      0x00\n      dup1\n      returndatacopy\n      revert(0x00, returndatasize)\n    tag_64:\n      pop\n      pop\n      pop\n      pop\n      mload(0x40)\n      returndatasize\n      not(0x1f)\n      0x1f\n      dup3\n      add\n      and\n      dup3\n      add\n      dup1\n      0x40\n      mstore\n      pop\n      dup2\n      add\n      swap1\n      tag_65\n      swap2\n      swap1\n      tag_66\n      jump\t// in\n    tag_65:\n        /* \"authentication.sol\":926:1022  if(managers[i].isOwner()){... */\n      iszero\n      tag_67\n      jumpi\n        /* \"authentication.sol\":976:984  managers */\n      0x00\n        /* \"authentication.sol\":985:986  i */\n      dup2\n        /* \"authentication.sol\":976:987  managers[i] */\n      dup2\n      sload\n      dup2\n      lt\n      tag_68\n      jumpi\n      tag_69\n      tag_61\n      jump\t// in\n    tag_69:\n    tag_68:\n      swap1\n      0x00\n      mstore\n      keccak256(0x00, 0x20)\n      add\n      0x00\n      swap1\n      sload\n      swap1\n      0x0100\n      exp\n      swap1\n      div\n      0xffffffffffffffffffffffffffffffffffffffff\n      and\n        /* \"authentication.sol\":976:1005  managers[i].getManagerAddress */\n      0xffffffffffffffffffffffffffffffffffffffff\n      and\n      0xc162d7da\n        /* \"authentication.sol\":976:1007  managers[i].getManagerAddress() */\n      mload(0x40)\n      dup2\n      0xffffffff\n      and\n      0xe0\n      shl\n      dup2\n      mstore\n      0x04\n      add\n      0x20\n      mload(0x40)\n      dup1\n      dup4\n      sub\n      dup2\n      dup7\n      gas\n      staticcall\n      iszero\n      dup1\n      iszero\n      tag_72\n      jumpi\n      returndatasize\n      0x00\n      dup1\n      returndatacopy\n      revert(0x00, returndatasize)\n    tag_72:\n      pop\n      pop\n      pop\n      pop\n      mload(0x40)\n      returndatasize\n      not(0x1f)\n      0x1f\n      dup3\n      add\n      and\n      dup3\n      add\n      dup1\n      0x40\n      mstore\n      pop\n      dup2\n      add\n      swap1\n      tag_73\n      swap2\n      swap1\n      tag_74\n      jump\t// in\n    tag_73:\n        /* \"authentication.sol\":969:1007  return managers[i].getManagerAddress() */\n      swap2\n      pop\n      pop\n      jump(tag_55)\n        /* \"authentication.sol\":926:1022  if(managers[i].isOwner()){... */\n    tag_67:\n        /* \"authentication.sol\":908:911  i++ */\n      dup1\n      dup1\n      tag_75\n      swap1\n      tag_76\n      jump\t// in\n    tag_75:\n      swap2\n      pop\n      pop\n        /* \"authentication.sol\":868:1032  for(uint256 i = 0; i < managers.length; i++){... */\n      jump(tag_56)\n    tag_57:\n      pop\n        /* \"authentication.sol\":1056:1057  0 */\n      0x00\n        /* \"authentication.sol\":1041:1058  return address(0) */\n      swap1\n      pop\n        /* \"authentication.sol\":811:1065  function getOwner()public view returns(address){... */\n    tag_55:\n      swap1\n      jump\t// out\n        /* \"authentication.sol\":1946:2564  function deleteManager(address _manager)public{... */\n    tag_26:\n        /* \"authentication.sol\":2010:2031  isManager(msg.sender) */\n      tag_78\n        /* \"authentication.sol\":2020:2030  msg.sender */\n      caller\n        /* \"authentication.sol\":2010:2019  isManager */\n      tag_36\n        /* \"authentication.sol\":2010:2031  isManager(msg.sender) */\n      jump\t// in\n    tag_78:\n        /* \"authentication.sol\":2002:2102  require(isManager(msg.sender),\"You are not manager. deleteManager function is allowed for manager.\") */\n      tag_79\n      jumpi\n      mload(0x40)\n      0x08c379a000000000000000000000000000000000000000000000000000000000\n      dup2\n      mstore\n      0x04\n      add\n      tag_80\n      swap1\n      tag_81\n      jump\t// in\n    tag_80:\n      mload(0x40)\n      dup1\n      swap2\n      sub\n      swap1\n      revert\n    tag_79:\n        /* \"authentication.sol\":2121:2138  isOwner(_manager) */\n      tag_82\n        /* \"authentication.sol\":2129:2137  _manager */\n      dup2\n        /* \"authentication.sol\":2121:2128  isOwner */\n      tag_17\n        /* \"authentication.sol\":2121:2138  isOwner(_manager) */\n      jump\t// in\n    tag_82:\n        /* \"authentication.sol\":2120:2138  !isOwner(_manager) */\n      iszero\n        /* \"authentication.sol\":2112:2239  require(!isOwner(_manager),\"Owner can not be deleted. use changeOwner function to delete original owner and generate new one.\") */\n      tag_83\n      jumpi\n      mload(0x40)\n      0x08c379a000000000000000000000000000000000000000000000000000000000\n      dup2\n      mstore\n      0x04\n      add\n      tag_84\n      swap1\n      tag_85\n      jump\t// in\n    tag_84:\n      mload(0x40)\n      dup1\n      swap2\n      sub\n      swap1\n      revert\n    tag_83:\n        /* \"authentication.sol\":2249:2258  uint256 i */\n      0x00\n        /* \"authentication.sol\":2272:2502  for(; i < managers.length; i++){... */\n    tag_86:\n        /* \"authentication.sol\":2282:2290  managers */\n      0x00\n        /* \"authentication.sol\":2282:2297  managers.length */\n      dup1\n      sload\n      swap1\n      pop\n        /* \"authentication.sol\":2278:2279  i */\n      dup2\n        /* \"authentication.sol\":2278:2297  i < managers.length */\n      lt\n        /* \"authentication.sol\":2272:2502  for(; i < managers.length; i++){... */\n      iszero\n      tag_87\n      jumpi\n        /* \"authentication.sol\":2353:2361  _manager */\n      dup2\n        /* \"authentication.sol\":2320:2361  managers[i].getManagerAddress()==_manager */\n      0xffffffffffffffffffffffffffffffffffffffff\n      and\n        /* \"authentication.sol\":2320:2328  managers */\n      0x00\n        /* \"authentication.sol\":2329:2330  i */\n      dup3\n        /* \"authentication.sol\":2320:2331  managers[i] */\n      dup2\n      sload\n      dup2\n      lt\n      tag_89\n      jumpi\n      tag_90\n      tag_61\n      jump\t// in\n    tag_90:\n    tag_89:\n      swap1\n      0x00\n      mstore\n      keccak256(0x00, 0x20)\n      add\n      0x00\n      swap1\n      sload\n      swap1\n      0x0100\n      exp\n      swap1\n      div\n      0xffffffffffffffffffffffffffffffffffffffff\n      and\n        /* \"authentication.sol\":2320:2349  managers[i].getManagerAddress */\n      0xffffffffffffffffffffffffffffffffffffffff\n      and\n      0xc162d7da\n        /* \"authentication.sol\":2320:2351  managers[i].getManagerAddress() */\n      mload(0x40)\n      dup2\n      0xffffffff\n      and\n      0xe0\n      shl\n      dup2\n      mstore\n      0x04\n      add\n      0x20\n      mload(0x40)\n      dup1\n      dup4\n      sub\n      dup2\n      dup7\n      gas\n      staticcall\n      iszero\n      dup1\n      iszero\n      tag_93\n      jumpi\n      returndatasize\n      0x00\n      dup1\n      returndatacopy\n      revert(0x00, returndatasize)\n    tag_93:\n      pop\n      pop\n      pop\n      pop\n      mload(0x40)\n      returndatasize\n      not(0x1f)\n      0x1f\n      dup3\n      add\n      and\n      dup3\n      add\n      dup1\n      0x40\n      mstore\n      pop\n      dup2\n      add\n      swap1\n      tag_94\n      swap2\n      swap1\n      tag_74\n      jump\t// in\n    tag_94:\n        /* \"authentication.sol\":2320:2361  managers[i].getManagerAddress()==_manager */\n      0xffffffffffffffffffffffffffffffffffffffff\n      and\n      sub\n        /* \"authentication.sol\":2317:2492  if(managers[i].getManagerAddress()==_manager){... */\n      tag_95\n      jumpi\n        /* \"authentication.sol\":2394:2402  managers */\n      0x00\n        /* \"authentication.sol\":2419:2420  1 */\n      0x01\n        /* \"authentication.sol\":2403:2411  managers */\n      0x00\n        /* \"authentication.sol\":2403:2418  managers.length */\n      dup1\n      sload\n      swap1\n      pop\n        /* \"authentication.sol\":2403:2420  managers.length-1 */\n      tag_96\n      swap2\n      swap1\n      tag_97\n      jump\t// in\n    tag_96:\n        /* \"authentication.sol\":2394:2421  managers[managers.length-1] */\n      dup2\n      sload\n      dup2\n      lt\n      tag_98\n      jumpi\n      tag_99\n      tag_61\n      jump\t// in\n    tag_99:\n    tag_98:\n      swap1\n      0x00\n      mstore\n      keccak256(0x00, 0x20)\n      add\n      0x00\n      swap1\n      sload\n      swap1\n      0x0100\n      exp\n      swap1\n      div\n      0xffffffffffffffffffffffffffffffffffffffff\n      and\n        /* \"authentication.sol\":2380:2388  managers */\n      0x00\n        /* \"authentication.sol\":2389:2390  i */\n      dup3\n        /* \"authentication.sol\":2380:2391  managers[i] */\n      dup2\n      sload\n      dup2\n      lt\n      tag_101\n      jumpi\n      tag_102\n      tag_61\n      jump\t// in\n    tag_102:\n    tag_101:\n      swap1\n      0x00\n      mstore\n      keccak256(0x00, 0x20)\n      add\n      0x00\n        /* \"authentication.sol\":2380:2421  managers[i] = managers[managers.length-1] */\n      0x0100\n      exp\n      dup2\n      sload\n      dup2\n      0xffffffffffffffffffffffffffffffffffffffff\n      mul\n      not\n      and\n      swap1\n      dup4\n      0xffffffffffffffffffffffffffffffffffffffff\n      and\n      mul\n      or\n      swap1\n      sstore\n      pop\n        /* \"authentication.sol\":2439:2447  managers */\n      0x00\n        /* \"authentication.sol\":2439:2453  managers.pop() */\n      dup1\n      sload\n      dup1\n      tag_104\n      jumpi\n      tag_105\n      tag_106\n      jump\t// in\n    tag_105:\n    tag_104:\n      0x01\n      swap1\n      sub\n      dup2\n      dup2\n      swap1\n      0x00\n      mstore\n      keccak256(0x00, 0x20)\n      add\n      exp(0x0100, 0x00)\n      dup2\n      sload\n      swap1\n      0xffffffffffffffffffffffffffffffffffffffff\n      mul\n      not\n      and\n      swap1\n      sstore\n      swap1\n      sstore\n        /* \"authentication.sol\":2471:2478  return; */\n      pop\n      jump(tag_77)\n        /* \"authentication.sol\":2317:2492  if(managers[i].getManagerAddress()==_manager){... */\n    tag_95:\n        /* \"authentication.sol\":2299:2302  i++ */\n      dup1\n      dup1\n      tag_108\n      swap1\n      tag_76\n      jump\t// in\n    tag_108:\n      swap2\n      pop\n      pop\n        /* \"authentication.sol\":2272:2502  for(; i < managers.length; i++){... */\n      jump(tag_86)\n    tag_87:\n        /* \"authentication.sol\":2519:2524  false */\n      0x00\n        /* \"authentication.sol\":2511:2557  require(false,\"not found him in manager list\") */\n      tag_109\n      jumpi\n      mload(0x40)\n      0x08c379a000000000000000000000000000000000000000000000000000000000\n      dup2\n      mstore\n      0x04\n      add\n      tag_110\n      swap1\n      tag_111\n      jump\t// in\n    tag_110:\n      mload(0x40)\n      dup1\n      swap2\n      sub\n      swap1\n      revert\n    tag_109:\n        /* \"authentication.sol\":1992:2564  {... */\n      pop\n        /* \"authentication.sol\":1946:2564  function deleteManager(address _manager)public{... */\n    tag_77:\n      pop\n      jump\t// out\n        /* \"authentication.sol\":2569:3097  function changeOwner(address _owner)public{... */\n    tag_29:\n        /* \"authentication.sol\":2630:2647  isManager(_owner) */\n      tag_113\n        /* \"authentication.sol\":2640:2646  _owner */\n      dup2\n        /* \"authentication.sol\":2630:2639  isManager */\n      tag_36\n        /* \"authentication.sol\":2630:2647  isManager(_owner) */\n      jump\t// in\n    tag_113:\n        /* \"authentication.sol\":2629:2647  !isManager(_owner) */\n      iszero\n        /* \"authentication.sol\":2621:2768  require(!isManager(_owner),\"He is already manager. Before use this function, you must delete him from managers list.(use deleteManager function!)\") */\n      tag_114\n      jumpi\n      mload(0x40)\n      0x08c379a000000000000000000000000000000000000000000000000000000000\n      dup2\n      mstore\n      0x04\n      add\n      tag_115\n      swap1\n      tag_116\n      jump\t// in\n    tag_115:\n      mload(0x40)\n      dup1\n      swap2\n      sub\n      swap1\n      revert\n    tag_114:\n        /* \"authentication.sol\":2786:2805  isOwner(msg.sender) */\n      tag_117\n        /* \"authentication.sol\":2794:2804  msg.sender */\n      caller\n        /* \"authentication.sol\":2786:2793  isOwner */\n      tag_17\n        /* \"authentication.sol\":2786:2805  isOwner(msg.sender) */\n      jump\t// in\n    tag_117:\n        /* \"authentication.sol\":2778:2870  require(isOwner(msg.sender),\"You are not owner. changeOwner function is allowed for owner.\") */\n      tag_118\n      jumpi\n      mload(0x40)\n      0x08c379a000000000000000000000000000000000000000000000000000000000\n      dup2\n      mstore\n      0x04\n      add\n      tag_119\n      swap1\n      tag_120\n      jump\t// in\n    tag_119:\n      mload(0x40)\n      dup1\n      swap2\n      sub\n      swap1\n      revert\n    tag_118:\n        /* \"authentication.sol\":2880:2891  Owner owner */\n      0x00\n        /* \"authentication.sol\":2904:2910  _owner */\n      dup2\n        /* \"authentication.sol\":2894:2911  new Owner(_owner) */\n      mload(0x40)\n      tag_121\n      swap1\n      tag_122\n      jump\t// in\n    tag_121:\n      tag_123\n      swap2\n      swap1\n      tag_23\n      jump\t// in\n    tag_123:\n      mload(0x40)\n      dup1\n      swap2\n      sub\n      swap1\n      0x00\n      create\n      dup1\n      iszero\n      dup1\n      iszero\n      tag_124\n      jumpi\n      returndatasize\n      0x00\n      dup1\n      returndatacopy\n      revert(0x00, returndatasize)\n    tag_124:\n      pop\n        /* \"authentication.sol\":2880:2911  Owner owner = new Owner(_owner) */\n      swap1\n      pop\n        /* \"authentication.sol\":2925:2934  uint256 i */\n      0x00\n        /* \"authentication.sol\":2921:3091  for(uint256 i = 0; i < managers.length; ++i){... */\n    tag_125:\n        /* \"authentication.sol\":2944:2952  managers */\n      0x00\n        /* \"authentication.sol\":2944:2959  managers.length */\n      dup1\n      sload\n      swap1\n      pop\n        /* \"authentication.sol\":2940:2941  i */\n      dup2\n        /* \"authentication.sol\":2940:2959  i < managers.length */\n      lt\n        /* \"authentication.sol\":2921:3091  for(uint256 i = 0; i < managers.length; ++i){... */\n      iszero\n      tag_126\n      jumpi\n        /* \"authentication.sol\":2982:2990  managers */\n      0x00\n        /* \"authentication.sol\":2991:2992  i */\n      dup2\n        /* \"authentication.sol\":2982:2993  managers[i] */\n      dup2\n      sload\n      dup2\n      lt\n      tag_128\n      jumpi\n      tag_129\n      tag_61\n      jump\t// in\n    tag_129:\n    tag_128:\n      swap1\n      0x00\n      mstore\n      keccak256(0x00, 0x20)\n      add\n      0x00\n      swap1\n      sload\n      swap1\n      0x0100\n      exp\n      swap1\n      div\n      0xffffffffffffffffffffffffffffffffffffffff\n      and\n        /* \"authentication.sol\":2982:3001  managers[i].isOwner */\n      0xffffffffffffffffffffffffffffffffffffffff\n      and\n      0x8f32d59b\n        /* \"authentication.sol\":2982:3003  managers[i].isOwner() */\n      mload(0x40)\n      dup2\n      0xffffffff\n      and\n      0xe0\n      shl\n      dup2\n      mstore\n      0x04\n      add\n      0x20\n      mload(0x40)\n      dup1\n      dup4\n      sub\n      dup2\n      dup7\n      gas\n      staticcall\n      iszero\n      dup1\n      iszero\n      tag_132\n      jumpi\n      returndatasize\n      0x00\n      dup1\n      returndatacopy\n      revert(0x00, returndatasize)\n    tag_132:\n      pop\n      pop\n      pop\n      pop\n      mload(0x40)\n      returndatasize\n      not(0x1f)\n      0x1f\n      dup3\n      add\n      and\n      dup3\n      add\n      dup1\n      0x40\n      mstore\n      pop\n      dup2\n      add\n      swap1\n      tag_133\n      swap2\n      swap1\n      tag_66\n      jump\t// in\n    tag_133:\n        /* \"authentication.sol\":2979:3081  if(managers[i].isOwner()){... */\n      iszero\n      tag_134\n      jumpi\n        /* \"authentication.sol\":3036:3041  owner */\n      dup2\n        /* \"authentication.sol\":3022:3030  managers */\n      0x00\n        /* \"authentication.sol\":3031:3032  i */\n      dup3\n        /* \"authentication.sol\":3022:3033  managers[i] */\n      dup2\n      sload\n      dup2\n      lt\n      tag_135\n      jumpi\n      tag_136\n      tag_61\n      jump\t// in\n    tag_136:\n    tag_135:\n      swap1\n      0x00\n      mstore\n      keccak256(0x00, 0x20)\n      add\n      0x00\n        /* \"authentication.sol\":3022:3041  managers[i] = owner */\n      0x0100\n      exp\n      dup2\n      sload\n      dup2\n      0xffffffffffffffffffffffffffffffffffffffff\n      mul\n      not\n      and\n      swap1\n      dup4\n      0xffffffffffffffffffffffffffffffffffffffff\n      and\n      mul\n      or\n      swap1\n      sstore\n      pop\n        /* \"authentication.sol\":3059:3067  return ; */\n      pop\n      pop\n      jump(tag_112)\n        /* \"authentication.sol\":2979:3081  if(managers[i].isOwner()){... */\n    tag_134:\n        /* \"authentication.sol\":2961:2964  ++i */\n      dup1\n      tag_138\n      swap1\n      tag_76\n      jump\t// in\n    tag_138:\n      swap1\n      pop\n        /* \"authentication.sol\":2921:3091  for(uint256 i = 0; i < managers.length; ++i){... */\n      jump(tag_125)\n    tag_126:\n      pop\n        /* \"authentication.sol\":2611:3097  {... */\n      pop\n        /* \"authentication.sol\":2569:3097  function changeOwner(address _owner)public{... */\n    tag_112:\n      pop\n      jump\t// out\n        /* \"authentication.sol\":1348:1632  function getManagers()view public returns(address[] memory){... */\n    tag_31:\n        /* \"authentication.sol\":1390:1406  address[] memory */\n      0x60\n        /* \"authentication.sol\":1417:1443  address[] memory addresses */\n      0x00\n        /* \"authentication.sol\":1460:1468  managers */\n      dup1\n        /* \"authentication.sol\":1460:1475  managers.length */\n      dup1\n      sload\n      swap1\n      pop\n        /* \"authentication.sol\":1446:1476  new address[](managers.length) */\n      0xffffffffffffffff\n      dup2\n      gt\n      iszero\n      tag_140\n      jumpi\n      tag_141\n      tag_142\n      jump\t// in\n    tag_141:\n    tag_140:\n      mload(0x40)\n      swap1\n      dup1\n      dup3\n      mstore\n      dup1\n      0x20\n      mul\n      0x20\n      add\n      dup3\n      add\n      0x40\n      mstore\n      dup1\n      iszero\n      tag_143\n      jumpi\n      dup2\n      0x20\n      add\n      0x20\n      dup3\n      mul\n      dup1\n      calldatasize\n      dup4\n      calldatacopy\n      dup1\n      dup3\n      add\n      swap2\n      pop\n      pop\n      swap1\n      pop\n    tag_143:\n      pop\n        /* \"authentication.sol\":1417:1476  address[] memory addresses = new address[](managers.length) */\n      swap1\n      pop\n        /* \"authentication.sol\":1490:1499  uint256 i */\n      0x00\n        /* \"authentication.sol\":1486:1600  for(uint256 i = 0; i < managers.length;i++){... */\n    tag_144:\n        /* \"authentication.sol\":1509:1517  managers */\n      0x00\n        /* \"authentication.sol\":1509:1524  managers.length */\n      dup1\n      sload\n      swap1\n      pop\n        /* \"authentication.sol\":1505:1506  i */\n      dup2\n        /* \"authentication.sol\":1505:1524  i < managers.length */\n      lt\n        /* \"authentication.sol\":1486:1600  for(uint256 i = 0; i < managers.length;i++){... */\n      iszero\n      tag_145\n      jumpi\n        /* \"authentication.sol\":1558:1566  managers */\n      0x00\n        /* \"authentication.sol\":1567:1568  i */\n      dup2\n        /* \"authentication.sol\":1558:1569  managers[i] */\n      dup2\n      sload\n      dup2\n      lt\n      tag_147\n      jumpi\n      tag_148\n      tag_61\n      jump\t// in\n    tag_148:\n    tag_147:\n      swap1\n      0x00\n      mstore\n      keccak256(0x00, 0x20)\n      add\n      0x00\n      swap1\n      sload\n      swap1\n      0x0100\n      exp\n      swap1\n      div\n      0xffffffffffffffffffffffffffffffffffffffff\n      and\n        /* \"authentication.sol\":1558:1587  managers[i].getManagerAddress */\n      0xffffffffffffffffffffffffffffffffffffffff\n      and\n      0xc162d7da\n        /* \"authentication.sol\":1558:1589  managers[i].getManagerAddress() */\n      mload(0x40)\n      dup2\n      0xffffffff\n      and\n      0xe0\n      shl\n      dup2\n      mstore\n      0x04\n      add\n      0x20\n      mload(0x40)\n      dup1\n      dup4\n      sub\n      dup2\n      dup7\n      gas\n      staticcall\n      iszero\n      dup1\n      iszero\n      tag_151\n      jumpi\n      returndatasize\n      0x00\n      dup1\n      returndatacopy\n      revert(0x00, returndatasize)\n    tag_151:\n      pop\n      pop\n      pop\n      pop\n      mload(0x40)\n      returndatasize\n      not(0x1f)\n      0x1f\n      dup3\n      add\n      and\n      dup3\n      add\n      dup1\n      0x40\n      mstore\n      pop\n      dup2\n      add\n      swap1\n      tag_152\n      swap2\n      swap1\n      tag_74\n      jump\t// in\n    tag_152:\n        /* \"authentication.sol\":1543:1552  addresses */\n      dup3\n        /* \"authentication.sol\":1553:1554  i */\n      dup3\n        /* \"authentication.sol\":1543:1555  addresses[i] */\n      dup2\n      mload\n      dup2\n      lt\n      tag_153\n      jumpi\n      tag_154\n      tag_61\n      jump\t// in\n    tag_154:\n    tag_153:\n      0x20\n      mul\n      0x20\n      add\n      add\n        /* \"authentication.sol\":1543:1589  addresses[i] = managers[i].getManagerAddress() */\n      swap1\n      0xffffffffffffffffffffffffffffffffffffffff\n      and\n      swap1\n      dup2\n      0xffffffffffffffffffffffffffffffffffffffff\n      and\n      dup2\n      mstore\n      pop\n      pop\n        /* \"authentication.sol\":1525:1528  i++ */\n      dup1\n      dup1\n      tag_155\n      swap1\n      tag_76\n      jump\t// in\n    tag_155:\n      swap2\n      pop\n      pop\n        /* \"authentication.sol\":1486:1600  for(uint256 i = 0; i < managers.length;i++){... */\n      jump(tag_144)\n    tag_145:\n      pop\n        /* \"authentication.sol\":1616:1625  addresses */\n      dup1\n        /* \"authentication.sol\":1609:1625  return addresses */\n      swap2\n      pop\n      pop\n        /* \"authentication.sol\":1348:1632  function getManagers()view public returns(address[] memory){... */\n      swap1\n      jump\t// out\n        /* \"authentication.sol\":1071:1342  function isManager(address _managerAddress) view public returns(bool){... */\n    tag_36:\n        /* \"authentication.sol\":1135:1139  bool */\n      0x00\n        /* \"authentication.sol\":1154:1163  uint256 i */\n      dup1\n        /* \"authentication.sol\":1166:1167  0 */\n      0x00\n        /* \"authentication.sol\":1154:1167  uint256 i = 0 */\n      swap1\n      pop\n        /* \"authentication.sol\":1150:1314  for(uint256 i = 0; i < managers.length; i++){... */\n    tag_157:\n        /* \"authentication.sol\":1173:1181  managers */\n      0x00\n        /* \"authentication.sol\":1173:1188  managers.length */\n      dup1\n      sload\n      swap1\n      pop\n        /* \"authentication.sol\":1169:1170  i */\n      dup2\n        /* \"authentication.sol\":1169:1188  i < managers.length */\n      lt\n        /* \"authentication.sol\":1150:1314  for(uint256 i = 0; i < managers.length; i++){... */\n      iszero\n      tag_158\n      jumpi\n        /* \"authentication.sol\":1244:1259  _managerAddress */\n      dup3\n        /* \"authentication.sol\":1211:1259  managers[i].getManagerAddress()==_managerAddress */\n      0xffffffffffffffffffffffffffffffffffffffff\n      and\n        /* \"authentication.sol\":1211:1219  managers */\n      0x00\n        /* \"authentication.sol\":1220:1221  i */\n      dup3\n        /* \"authentication.sol\":1211:1222  managers[i] */\n      dup2\n      sload\n      dup2\n      lt\n      tag_160\n      jumpi\n      tag_161\n      tag_61\n      jump\t// in\n    tag_161:\n    tag_160:\n      swap1\n      0x00\n      mstore\n      keccak256(0x00, 0x20)\n      add\n      0x00\n      swap1\n      sload\n      swap1\n      0x0100\n      exp\n      swap1\n      div\n      0xffffffffffffffffffffffffffffffffffffffff\n      and\n        /* \"authentication.sol\":1211:1240  managers[i].getManagerAddress */\n      0xffffffffffffffffffffffffffffffffffffffff\n      and\n      0xc162d7da\n        /* \"authentication.sol\":1211:1242  managers[i].getManagerAddress() */\n      mload(0x40)\n      dup2\n      0xffffffff\n      and\n      0xe0\n      shl\n      dup2\n      mstore\n      0x04\n      add\n      0x20\n      mload(0x40)\n      dup1\n      dup4\n      sub\n      dup2\n      dup7\n      gas\n      staticcall\n      iszero\n      dup1\n      iszero\n      tag_164\n      jumpi\n      returndatasize\n      0x00\n      dup1\n      returndatacopy\n      revert(0x00, returndatasize)\n    tag_164:\n      pop\n      pop\n      pop\n      pop\n      mload(0x40)\n      returndatasize\n      not(0x1f)\n      0x1f\n      dup3\n      add\n      and\n      dup3\n      add\n      dup1\n      0x40\n      mstore\n      pop\n      dup2\n      add\n      swap1\n      tag_165\n      swap2\n      swap1\n      tag_74\n      jump\t// in\n    tag_165:\n        /* \"authentication.sol\":1211:1259  managers[i].getManagerAddress()==_managerAddress */\n      0xffffffffffffffffffffffffffffffffffffffff\n      and\n      sub\n        /* \"authentication.sol\":1208:1304  if(managers[i].getManagerAddress()==_managerAddress){... */\n      tag_166\n      jumpi\n        /* \"authentication.sol\":1285:1289  true */\n      0x01\n        /* \"authentication.sol\":1278:1289  return true */\n      swap2\n      pop\n      pop\n      jump(tag_156)\n        /* \"authentication.sol\":1208:1304  if(managers[i].getManagerAddress()==_managerAddress){... */\n    tag_166:\n        /* \"authentication.sol\":1190:1193  i++ */\n      dup1\n      dup1\n      tag_167\n      swap1\n      tag_76\n      jump\t// in\n    tag_167:\n      swap2\n      pop\n      pop\n        /* \"authentication.sol\":1150:1314  for(uint256 i = 0; i < managers.length; i++){... */\n      jump(tag_157)\n    tag_158:\n      pop\n        /* \"authentication.sol\":1330:1335  false */\n      0x00\n        /* \"authentication.sol\":1323:1335  return false */\n      swap1\n      pop\n        /* \"authentication.sol\":1071:1342  function isManager(address _managerAddress) view public returns(bool){... */\n    tag_156:\n      swap2\n      swap1\n      pop\n      jump\t// out\n    tag_48:\n      dataSize(sub_0)\n      dup1\n      dataOffset(sub_0)\n      dup4\n      codecopy\n      add\n      swap1\n      jump\t// out\n    tag_122:\n      dataSize(sub_1)\n      dup1\n      dataOffset(sub_1)\n      dup4\n      codecopy\n      add\n      swap1\n      jump\t// out\n        /* \"#utility.yul\":88:205   */\n    tag_169:\n        /* \"#utility.yul\":197:198   */\n      0x00\n        /* \"#utility.yul\":194:195   */\n      dup1\n        /* \"#utility.yul\":187:199   */\n      revert\n        /* \"#utility.yul\":334:460   */\n    tag_171:\n        /* \"#utility.yul\":371:378   */\n      0x00\n        /* \"#utility.yul\":411:453   */\n      0xffffffffffffffffffffffffffffffffffffffff\n        /* \"#utility.yul\":404:409   */\n      dup3\n        /* \"#utility.yul\":400:454   */\n      and\n        /* \"#utility.yul\":389:454   */\n      swap1\n      pop\n        /* \"#utility.yul\":334:460   */\n      swap2\n      swap1\n      pop\n      jump\t// out\n        /* \"#utility.yul\":466:562   */\n    tag_172:\n        /* \"#utility.yul\":503:510   */\n      0x00\n        /* \"#utility.yul\":532:556   */\n      tag_211\n        /* \"#utility.yul\":550:555   */\n      dup3\n        /* \"#utility.yul\":532:556   */\n      tag_171\n      jump\t// in\n    tag_211:\n        /* \"#utility.yul\":521:556   */\n      swap1\n      pop\n        /* \"#utility.yul\":466:562   */\n      swap2\n      swap1\n      pop\n      jump\t// out\n        /* \"#utility.yul\":568:690   */\n    tag_173:\n        /* \"#utility.yul\":641:665   */\n      tag_213\n        /* \"#utility.yul\":659:664   */\n      dup2\n        /* \"#utility.yul\":641:665   */\n      tag_172\n      jump\t// in\n    tag_213:\n        /* \"#utility.yul\":634:639   */\n      dup2\n        /* \"#utility.yul\":631:666   */\n      eq\n        /* \"#utility.yul\":621:684   */\n      tag_214\n      jumpi\n        /* \"#utility.yul\":680:681   */\n      0x00\n        /* \"#utility.yul\":677:678   */\n      dup1\n        /* \"#utility.yul\":670:682   */\n      revert\n        /* \"#utility.yul\":621:684   */\n    tag_214:\n        /* \"#utility.yul\":568:690   */\n      pop\n      jump\t// out\n        /* \"#utility.yul\":696:835   */\n    tag_174:\n        /* \"#utility.yul\":742:747   */\n      0x00\n        /* \"#utility.yul\":780:786   */\n      dup2\n        /* \"#utility.yul\":767:787   */\n      calldataload\n        /* \"#utility.yul\":758:787   */\n      swap1\n      pop\n        /* \"#utility.yul\":796:829   */\n      tag_216\n        /* \"#utility.yul\":823:828   */\n      dup2\n        /* \"#utility.yul\":796:829   */\n      tag_173\n      jump\t// in\n    tag_216:\n        /* \"#utility.yul\":696:835   */\n      swap3\n      swap2\n      pop\n      pop\n      jump\t// out\n        /* \"#utility.yul\":841:1170   */\n    tag_13:\n        /* \"#utility.yul\":900:906   */\n      0x00\n        /* \"#utility.yul\":949:951   */\n      0x20\n        /* \"#utility.yul\":937:946   */\n      dup3\n        /* \"#utility.yul\":928:935   */\n      dup5\n        /* \"#utility.yul\":924:947   */\n      sub\n        /* \"#utility.yul\":920:952   */\n      slt\n        /* \"#utility.yul\":917:1036   */\n      iszero\n      tag_218\n      jumpi\n        /* \"#utility.yul\":955:1034   */\n      tag_219\n      tag_169\n      jump\t// in\n    tag_219:\n        /* \"#utility.yul\":917:1036   */\n    tag_218:\n        /* \"#utility.yul\":1075:1076   */\n      0x00\n        /* \"#utility.yul\":1100:1153   */\n      tag_220\n        /* \"#utility.yul\":1145:1152   */\n      dup5\n        /* \"#utility.yul\":1136:1142   */\n      dup3\n        /* \"#utility.yul\":1125:1134   */\n      dup6\n        /* \"#utility.yul\":1121:1143   */\n      add\n        /* \"#utility.yul\":1100:1153   */\n      tag_174\n      jump\t// in\n    tag_220:\n        /* \"#utility.yul\":1090:1153   */\n      swap2\n      pop\n        /* \"#utility.yul\":1046:1163   */\n      pop\n        /* \"#utility.yul\":841:1170   */\n      swap3\n      swap2\n      pop\n      pop\n      jump\t// out\n        /* \"#utility.yul\":1176:1266   */\n    tag_175:\n        /* \"#utility.yul\":1210:1217   */\n      0x00\n        /* \"#utility.yul\":1253:1258   */\n      dup2\n        /* \"#utility.yul\":1246:1259   */\n      iszero\n        /* \"#utility.yul\":1239:1260   */\n      iszero\n        /* \"#utility.yul\":1228:1260   */\n      swap1\n      pop\n        /* \"#utility.yul\":1176:1266   */\n      swap2\n      swap1\n      pop\n      jump\t// out\n        /* \"#utility.yul\":1272:1381   */\n    tag_176:\n        /* \"#utility.yul\":1353:1374   */\n      tag_223\n        /* \"#utility.yul\":1368:1373   */\n      dup2\n        /* \"#utility.yul\":1353:1374   */\n      tag_175\n      jump\t// in\n    tag_223:\n        /* \"#utility.yul\":1348:1351   */\n      dup3\n        /* \"#utility.yul\":1341:1375   */\n      mstore\n        /* \"#utility.yul\":1272:1381   */\n      pop\n      pop\n      jump\t// out\n        /* \"#utility.yul\":1387:1597   */\n    tag_19:\n        /* \"#utility.yul\":1474:1478   */\n      0x00\n        /* \"#utility.yul\":1512:1514   */\n      0x20\n        /* \"#utility.yul\":1501:1510   */\n      dup3\n        /* \"#utility.yul\":1497:1515   */\n      add\n        /* \"#utility.yul\":1489:1515   */\n      swap1\n      pop\n        /* \"#utility.yul\":1525:1590   */\n      tag_225\n        /* \"#utility.yul\":1587:1588   */\n      0x00\n        /* \"#utility.yul\":1576:1585   */\n      dup4\n        /* \"#utility.yul\":1572:1589   */\n      add\n        /* \"#utility.yul\":1563:1569   */\n      dup5\n        /* \"#utility.yul\":1525:1590   */\n      tag_176\n      jump\t// in\n    tag_225:\n        /* \"#utility.yul\":1387:1597   */\n      swap3\n      swap2\n      pop\n      pop\n      jump\t// out\n        /* \"#utility.yul\":1603:1721   */\n    tag_177:\n        /* \"#utility.yul\":1690:1714   */\n      tag_227\n        /* \"#utility.yul\":1708:1713   */\n      dup2\n        /* \"#utility.yul\":1690:1714   */\n      tag_172\n      jump\t// in\n    tag_227:\n        /* \"#utility.yul\":1685:1688   */\n      dup3\n        /* \"#utility.yul\":1678:1715   */\n      mstore\n        /* \"#utility.yul\":1603:1721   */\n      pop\n      pop\n      jump\t// out\n        /* \"#utility.yul\":1727:1949   */\n    tag_23:\n        /* \"#utility.yul\":1820:1824   */\n      0x00\n        /* \"#utility.yul\":1858:1860   */\n      0x20\n        /* \"#utility.yul\":1847:1856   */\n      dup3\n        /* \"#utility.yul\":1843:1861   */\n      add\n        /* \"#utility.yul\":1835:1861   */\n      swap1\n      pop\n        /* \"#utility.yul\":1871:1942   */\n      tag_229\n        /* \"#utility.yul\":1939:1940   */\n      0x00\n        /* \"#utility.yul\":1928:1937   */\n      dup4\n        /* \"#utility.yul\":1924:1941   */\n      add\n        /* \"#utility.yul\":1915:1921   */\n      dup5\n        /* \"#utility.yul\":1871:1942   */\n      tag_177\n      jump\t// in\n    tag_229:\n        /* \"#utility.yul\":1727:1949   */\n      swap3\n      swap2\n      pop\n      pop\n      jump\t// out\n        /* \"#utility.yul\":1955:2069   */\n    tag_178:\n        /* \"#utility.yul\":2022:2028   */\n      0x00\n        /* \"#utility.yul\":2056:2061   */\n      dup2\n        /* \"#utility.yul\":2050:2062   */\n      mload\n        /* \"#utility.yul\":2040:2062   */\n      swap1\n      pop\n        /* \"#utility.yul\":1955:2069   */\n      swap2\n      swap1\n      pop\n      jump\t// out\n        /* \"#utility.yul\":2075:2259   */\n    tag_179:\n        /* \"#utility.yul\":2174:2185   */\n      0x00\n        /* \"#utility.yul\":2208:2214   */\n      dup3\n        /* \"#utility.yul\":2203:2206   */\n      dup3\n        /* \"#utility.yul\":2196:2215   */\n      mstore\n        /* \"#utility.yul\":2248:2252   */\n      0x20\n        /* \"#utility.yul\":2243:2246   */\n      dup3\n        /* \"#utility.yul\":2239:2253   */\n      add\n        /* \"#utility.yul\":2224:2253   */\n      swap1\n      pop\n        /* \"#utility.yul\":2075:2259   */\n      swap3\n      swap2\n      pop\n      pop\n      jump\t// out\n        /* \"#utility.yul\":2265:2397   */\n    tag_180:\n        /* \"#utility.yul\":2332:2336   */\n      0x00\n        /* \"#utility.yul\":2355:2358   */\n      dup2\n        /* \"#utility.yul\":2347:2358   */\n      swap1\n      pop\n        /* \"#utility.yul\":2385:2389   */\n      0x20\n        /* \"#utility.yul\":2380:2383   */\n      dup3\n        /* \"#utility.yul\":2376:2390   */\n      add\n        /* \"#utility.yul\":2368:2390   */\n      swap1\n      pop\n        /* \"#utility.yul\":2265:2397   */\n      swap2\n      swap1\n      pop\n      jump\t// out\n        /* \"#utility.yul\":2403:2511   */\n    tag_181:\n        /* \"#utility.yul\":2480:2504   */\n      tag_234\n        /* \"#utility.yul\":2498:2503   */\n      dup2\n        /* \"#utility.yul\":2480:2504   */\n      tag_172\n      jump\t// in\n    tag_234:\n        /* \"#utility.yul\":2475:2478   */\n      dup3\n        /* \"#utility.yul\":2468:2505   */\n      mstore\n        /* \"#utility.yul\":2403:2511   */\n      pop\n      pop\n      jump\t// out\n        /* \"#utility.yul\":2517:2696   */\n    tag_182:\n        /* \"#utility.yul\":2586:2596   */\n      0x00\n        /* \"#utility.yul\":2607:2653   */\n      tag_236\n        /* \"#utility.yul\":2649:2652   */\n      dup4\n        /* \"#utility.yul\":2641:2647   */\n      dup4\n        /* \"#utility.yul\":2607:2653   */\n      tag_181\n      jump\t// in\n    tag_236:\n        /* \"#utility.yul\":2685:2689   */\n      0x20\n        /* \"#utility.yul\":2680:2683   */\n      dup4\n        /* \"#utility.yul\":2676:2690   */\n      add\n        /* \"#utility.yul\":2662:2690   */\n      swap1\n      pop\n        /* \"#utility.yul\":2517:2696   */\n      swap3\n      swap2\n      pop\n      pop\n      jump\t// out\n        /* \"#utility.yul\":2702:2815   */\n    tag_183:\n        /* \"#utility.yul\":2772:2776   */\n      0x00\n        /* \"#utility.yul\":2804:2808   */\n      0x20\n        /* \"#utility.yul\":2799:2802   */\n      dup3\n        /* \"#utility.yul\":2795:2809   */\n      add\n        /* \"#utility.yul\":2787:2809   */\n      swap1\n      pop\n        /* \"#utility.yul\":2702:2815   */\n      swap2\n      swap1\n      pop\n      jump\t// out\n        /* \"#utility.yul\":2851:3583   */\n    tag_184:\n        /* \"#utility.yul\":2970:2973   */\n      0x00\n        /* \"#utility.yul\":2999:3053   */\n      tag_239\n        /* \"#utility.yul\":3047:3052   */\n      dup3\n        /* \"#utility.yul\":2999:3053   */\n      tag_178\n      jump\t// in\n    tag_239:\n        /* \"#utility.yul\":3069:3155   */\n      tag_240\n        /* \"#utility.yul\":3148:3154   */\n      dup2\n        /* \"#utility.yul\":3143:3146   */\n      dup6\n        /* \"#utility.yul\":3069:3155   */\n      tag_179\n      jump\t// in\n    tag_240:\n        /* \"#utility.yul\":3062:3155   */\n      swap4\n      pop\n        /* \"#utility.yul\":3179:3235   */\n      tag_241\n        /* \"#utility.yul\":3229:3234   */\n      dup4\n        /* \"#utility.yul\":3179:3235   */\n      tag_180\n      jump\t// in\n    tag_241:\n        /* \"#utility.yul\":3258:3265   */\n      dup1\n        /* \"#utility.yul\":3289:3290   */\n      0x00\n        /* \"#utility.yul\":3274:3558   */\n    tag_242:\n        /* \"#utility.yul\":3299:3305   */\n      dup4\n        /* \"#utility.yul\":3296:3297   */\n      dup2\n        /* \"#utility.yul\":3293:3306   */\n      lt\n        /* \"#utility.yul\":3274:3558   */\n      iszero\n      tag_244\n      jumpi\n        /* \"#utility.yul\":3375:3381   */\n      dup2\n        /* \"#utility.yul\":3369:3382   */\n      mload\n        /* \"#utility.yul\":3402:3465   */\n      tag_245\n        /* \"#utility.yul\":3461:3464   */\n      dup9\n        /* \"#utility.yul\":3446:3459   */\n      dup3\n        /* \"#utility.yul\":3402:3465   */\n      tag_182\n      jump\t// in\n    tag_245:\n        /* \"#utility.yul\":3395:3465   */\n      swap8\n      pop\n        /* \"#utility.yul\":3488:3548   */\n      tag_246\n        /* \"#utility.yul\":3541:3547   */\n      dup4\n        /* \"#utility.yul\":3488:3548   */\n      tag_183\n      jump\t// in\n    tag_246:\n        /* \"#utility.yul\":3478:3548   */\n      swap3\n      pop\n        /* \"#utility.yul\":3334:3558   */\n      pop\n        /* \"#utility.yul\":3321:3322   */\n      0x01\n        /* \"#utility.yul\":3318:3319   */\n      dup2\n        /* \"#utility.yul\":3314:3323   */\n      add\n        /* \"#utility.yul\":3309:3323   */\n      swap1\n      pop\n        /* \"#utility.yul\":3274:3558   */\n      jump(tag_242)\n    tag_244:\n        /* \"#utility.yul\":3278:3292   */\n      pop\n        /* \"#utility.yul\":3574:3577   */\n      dup6\n        /* \"#utility.yul\":3567:3577   */\n      swap4\n      pop\n        /* \"#utility.yul\":2975:3583   */\n      pop\n      pop\n      pop\n        /* \"#utility.yul\":2851:3583   */\n      swap3\n      swap2\n      pop\n      pop\n      jump\t// out\n        /* \"#utility.yul\":3589:3962   */\n    tag_33:\n        /* \"#utility.yul\":3732:3736   */\n      0x00\n        /* \"#utility.yul\":3770:3772   */\n      0x20\n        /* \"#utility.yul\":3759:3768   */\n      dup3\n        /* \"#utility.yul\":3755:3773   */\n      add\n        /* \"#utility.yul\":3747:3773   */\n      swap1\n      pop\n        /* \"#utility.yul\":3819:3828   */\n      dup2\n        /* \"#utility.yul\":3813:3817   */\n      dup2\n        /* \"#utility.yul\":3809:3829   */\n      sub\n        /* \"#utility.yul\":3805:3806   */\n      0x00\n        /* \"#utility.yul\":3794:3803   */\n      dup4\n        /* \"#utility.yul\":3790:3807   */\n      add\n        /* \"#utility.yul\":3783:3830   */\n      mstore\n        /* \"#utility.yul\":3847:3955   */\n      tag_248\n        /* \"#utility.yul\":3950:3954   */\n      dup2\n        /* \"#utility.yul\":3941:3947   */\n      dup5\n        /* \"#utility.yul\":3847:3955   */\n      tag_184\n      jump\t// in\n    tag_248:\n        /* \"#utility.yul\":3839:3955   */\n      swap1\n      pop\n        /* \"#utility.yul\":3589:3962   */\n      swap3\n      swap2\n      pop\n      pop\n      jump\t// out\n        /* \"#utility.yul\":3968:4137   */\n    tag_185:\n        /* \"#utility.yul\":4052:4063   */\n      0x00\n        /* \"#utility.yul\":4086:4092   */\n      dup3\n        /* \"#utility.yul\":4081:4084   */\n      dup3\n        /* \"#utility.yul\":4074:4093   */\n      mstore\n        /* \"#utility.yul\":4126:4130   */\n      0x20\n        /* \"#utility.yul\":4121:4124   */\n      dup3\n        /* \"#utility.yul\":4117:4131   */\n      add\n        /* \"#utility.yul\":4102:4131   */\n      swap1\n      pop\n        /* \"#utility.yul\":3968:4137   */\n      swap3\n      swap2\n      pop\n      pop\n      jump\t// out\n        /* \"#utility.yul\":4143:4394   */\n    tag_186:\n        /* \"#utility.yul\":4283:4317   */\n      0x796f7520617265206e6f74206d616e616765722e206164644d616e6167657220\n        /* \"#utility.yul\":4279:4280   */\n      0x00\n        /* \"#utility.yul\":4271:4277   */\n      dup3\n        /* \"#utility.yul\":4267:4281   */\n      add\n        /* \"#utility.yul\":4260:4318   */\n      mstore\n        /* \"#utility.yul\":4352:4386   */\n      0x66756e6374696f6e20697320616c6c6f77656420666f72206d616e616765722e\n        /* \"#utility.yul\":4347:4349   */\n      0x20\n        /* \"#utility.yul\":4339:4345   */\n      dup3\n        /* \"#utility.yul\":4335:4350   */\n      add\n        /* \"#utility.yul\":4328:4387   */\n      mstore\n        /* \"#utility.yul\":4143:4394   */\n      pop\n      jump\t// out\n        /* \"#utility.yul\":4400:4766   */\n    tag_187:\n        /* \"#utility.yul\":4542:4545   */\n      0x00\n        /* \"#utility.yul\":4563:4630   */\n      tag_252\n        /* \"#utility.yul\":4627:4629   */\n      0x40\n        /* \"#utility.yul\":4622:4625   */\n      dup4\n        /* \"#utility.yul\":4563:4630   */\n      tag_185\n      jump\t// in\n    tag_252:\n        /* \"#utility.yul\":4556:4630   */\n      swap2\n      pop\n        /* \"#utility.yul\":4639:4732   */\n      tag_253\n        /* \"#utility.yul\":4728:4731   */\n      dup3\n        /* \"#utility.yul\":4639:4732   */\n      tag_186\n      jump\t// in\n    tag_253:\n        /* \"#utility.yul\":4757:4759   */\n      0x40\n        /* \"#utility.yul\":4752:4755   */\n      dup3\n        /* \"#utility.yul\":4748:4760   */\n      add\n        /* \"#utility.yul\":4741:4760   */\n      swap1\n      pop\n        /* \"#utility.yul\":4400:4766   */\n      swap2\n      swap1\n      pop\n      jump\t// out\n        /* \"#utility.yul\":4772:5191   */\n    tag_42:\n        /* \"#utility.yul\":4938:4942   */\n      0x00\n        /* \"#utility.yul\":4976:4978   */\n      0x20\n        /* \"#utility.yul\":4965:4974   */\n      dup3\n        /* \"#utility.yul\":4961:4979   */\n      add\n        /* \"#utility.yul\":4953:4979   */\n      swap1\n      pop\n        /* \"#utility.yul\":5025:5034   */\n      dup2\n        /* \"#utility.yul\":5019:5023   */\n      dup2\n        /* \"#utility.yul\":5015:5035   */\n      sub\n        /* \"#utility.yul\":5011:5012   */\n      0x00\n        /* \"#utility.yul\":5000:5009   */\n      dup4\n        /* \"#utility.yul\":4996:5013   */\n      add\n        /* \"#utility.yul\":4989:5036   */\n      mstore\n        /* \"#utility.yul\":5053:5184   */\n      tag_255\n        /* \"#utility.yul\":5179:5183   */\n      dup2\n        /* \"#utility.yul\":5053:5184   */\n      tag_187\n      jump\t// in\n    tag_255:\n        /* \"#utility.yul\":5045:5184   */\n      swap1\n      pop\n        /* \"#utility.yul\":4772:5191   */\n      swap2\n      swap1\n      pop\n      jump\t// out\n        /* \"#utility.yul\":5197:5369   */\n    tag_188:\n        /* \"#utility.yul\":5337:5361   */\n      0x486520697320616c7265616479206d616e616765722e00000000000000000000\n        /* \"#utility.yul\":5333:5334   */\n      0x00\n        /* \"#utility.yul\":5325:5331   */\n      dup3\n        /* \"#utility.yul\":5321:5335   */\n      add\n        /* \"#utility.yul\":5314:5362   */\n      mstore\n        /* \"#utility.yul\":5197:5369   */\n      pop\n      jump\t// out\n        /* \"#utility.yul\":5375:5741   */\n    tag_189:\n        /* \"#utility.yul\":5517:5520   */\n      0x00\n        /* \"#utility.yul\":5538:5605   */\n      tag_258\n        /* \"#utility.yul\":5602:5604   */\n      0x16\n        /* \"#utility.yul\":5597:5600   */\n      dup4\n        /* \"#utility.yul\":5538:5605   */\n      tag_185\n      jump\t// in\n    tag_258:\n        /* \"#utility.yul\":5531:5605   */\n      swap2\n      pop\n        /* \"#utility.yul\":5614:5707   */\n      tag_259\n        /* \"#utility.yul\":5703:5706   */\n      dup3\n        /* \"#utility.yul\":5614:5707   */\n      tag_188\n      jump\t// in\n    tag_259:\n        /* \"#utility.yul\":5732:5734   */\n      0x20\n        /* \"#utility.yul\":5727:5730   */\n      dup3\n        /* \"#utility.yul\":5723:5735   */\n      add\n        /* \"#utility.yul\":5716:5735   */\n      swap1\n      pop\n        /* \"#utility.yul\":5375:5741   */\n      swap2\n      swap1\n      pop\n      jump\t// out\n        /* \"#utility.yul\":5747:6166   */\n    tag_46:\n        /* \"#utility.yul\":5913:5917   */\n      0x00\n        /* \"#utility.yul\":5951:5953   */\n      0x20\n        /* \"#utility.yul\":5940:5949   */\n      dup3\n        /* \"#utility.yul\":5936:5954   */\n      add\n        /* \"#utility.yul\":5928:5954   */\n      swap1\n      pop\n        /* \"#utility.yul\":6000:6009   */\n      dup2\n        /* \"#utility.yul\":5994:5998   */\n      dup2\n        /* \"#utility.yul\":5990:6010   */\n      sub\n        /* \"#utility.yul\":5986:5987   */\n      0x00\n        /* \"#utility.yul\":5975:5984   */\n      dup4\n        /* \"#utility.yul\":5971:5988   */\n      add\n        /* \"#utility.yul\":5964:6011   */\n      mstore\n        /* \"#utility.yul\":6028:6159   */\n      tag_261\n        /* \"#utility.yul\":6154:6158   */\n      dup2\n        /* \"#utility.yul\":6028:6159   */\n      tag_189\n      jump\t// in\n    tag_261:\n        /* \"#utility.yul\":6020:6159   */\n      swap1\n      pop\n        /* \"#utility.yul\":5747:6166   */\n      swap2\n      swap1\n      pop\n      jump\t// out\n        /* \"#utility.yul\":6172:6352   */\n    tag_61:\n        /* \"#utility.yul\":6220:6297   */\n      0x4e487b7100000000000000000000000000000000000000000000000000000000\n        /* \"#utility.yul\":6217:6218   */\n      0x00\n        /* \"#utility.yul\":6210:6298   */\n      mstore\n        /* \"#utility.yul\":6317:6321   */\n      0x32\n        /* \"#utility.yul\":6314:6315   */\n      0x04\n        /* \"#utility.yul\":6307:6322   */\n      mstore\n        /* \"#utility.yul\":6341:6345   */\n      0x24\n        /* \"#utility.yul\":6338:6339   */\n      0x00\n        /* \"#utility.yul\":6331:6346   */\n      revert\n        /* \"#utility.yul\":6358:6474   */\n    tag_190:\n        /* \"#utility.yul\":6428:6449   */\n      tag_264\n        /* \"#utility.yul\":6443:6448   */\n      dup2\n        /* \"#utility.yul\":6428:6449   */\n      tag_175\n      jump\t// in\n    tag_264:\n        /* \"#utility.yul\":6421:6426   */\n      dup2\n        /* \"#utility.yul\":6418:6450   */\n      eq\n        /* \"#utility.yul\":6408:6468   */\n      tag_265\n      jumpi\n        /* \"#utility.yul\":6464:6465   */\n      0x00\n        /* \"#utility.yul\":6461:6462   */\n      dup1\n        /* \"#utility.yul\":6454:6466   */\n      revert\n        /* \"#utility.yul\":6408:6468   */\n    tag_265:\n        /* \"#utility.yul\":6358:6474   */\n      pop\n      jump\t// out\n        /* \"#utility.yul\":6480:6617   */\n    tag_191:\n        /* \"#utility.yul\":6534:6539   */\n      0x00\n        /* \"#utility.yul\":6565:6571   */\n      dup2\n        /* \"#utility.yul\":6559:6572   */\n      mload\n        /* \"#utility.yul\":6550:6572   */\n      swap1\n      pop\n        /* \"#utility.yul\":6581:6611   */\n      tag_267\n        /* \"#utility.yul\":6605:6610   */\n      dup2\n        /* \"#utility.yul\":6581:6611   */\n      tag_190\n      jump\t// in\n    tag_267:\n        /* \"#utility.yul\":6480:6617   */\n      swap3\n      swap2\n      pop\n      pop\n      jump\t// out\n        /* \"#utility.yul\":6623:6968   */\n    tag_66:\n        /* \"#utility.yul\":6690:6696   */\n      0x00\n        /* \"#utility.yul\":6739:6741   */\n      0x20\n        /* \"#utility.yul\":6727:6736   */\n      dup3\n        /* \"#utility.yul\":6718:6725   */\n      dup5\n        /* \"#utility.yul\":6714:6737   */\n      sub\n        /* \"#utility.yul\":6710:6742   */\n      slt\n        /* \"#utility.yul\":6707:6826   */\n      iszero\n      tag_269\n      jumpi\n        /* \"#utility.yul\":6745:6824   */\n      tag_270\n      tag_169\n      jump\t// in\n    tag_270:\n        /* \"#utility.yul\":6707:6826   */\n    tag_269:\n        /* \"#utility.yul\":6865:6866   */\n      0x00\n        /* \"#utility.yul\":6890:6951   */\n      tag_271\n        /* \"#utility.yul\":6943:6950   */\n      dup5\n        /* \"#utility.yul\":6934:6940   */\n      dup3\n        /* \"#utility.yul\":6923:6932   */\n      dup6\n        /* \"#utility.yul\":6919:6941   */\n      add\n        /* \"#utility.yul\":6890:6951   */\n      tag_191\n      jump\t// in\n    tag_271:\n        /* \"#utility.yul\":6880:6951   */\n      swap2\n      pop\n        /* \"#utility.yul\":6836:6961   */\n      pop\n        /* \"#utility.yul\":6623:6968   */\n      swap3\n      swap2\n      pop\n      pop\n      jump\t// out\n        /* \"#utility.yul\":6974:7117   */\n    tag_192:\n        /* \"#utility.yul\":7031:7036   */\n      0x00\n        /* \"#utility.yul\":7062:7068   */\n      dup2\n        /* \"#utility.yul\":7056:7069   */\n      mload\n        /* \"#utility.yul\":7047:7069   */\n      swap1\n      pop\n        /* \"#utility.yul\":7078:7111   */\n      tag_273\n        /* \"#utility.yul\":7105:7110   */\n      dup2\n        /* \"#utility.yul\":7078:7111   */\n      tag_173\n      jump\t// in\n    tag_273:\n        /* \"#utility.yul\":6974:7117   */\n      swap3\n      swap2\n      pop\n      pop\n      jump\t// out\n        /* \"#utility.yul\":7123:7474   */\n    tag_74:\n        /* \"#utility.yul\":7193:7199   */\n      0x00\n        /* \"#utility.yul\":7242:7244   */\n      0x20\n        /* \"#utility.yul\":7230:7239   */\n      dup3\n        /* \"#utility.yul\":7221:7228   */\n      dup5\n        /* \"#utility.yul\":7217:7240   */\n      sub\n        /* \"#utility.yul\":7213:7245   */\n      slt\n        /* \"#utility.yul\":7210:7329   */\n      iszero\n      tag_275\n      jumpi\n        /* \"#utility.yul\":7248:7327   */\n      tag_276\n      tag_169\n      jump\t// in\n    tag_276:\n        /* \"#utility.yul\":7210:7329   */\n    tag_275:\n        /* \"#utility.yul\":7368:7369   */\n      0x00\n        /* \"#utility.yul\":7393:7457   */\n      tag_277\n        /* \"#utility.yul\":7449:7456   */\n      dup5\n        /* \"#utility.yul\":7440:7446   */\n      dup3\n        /* \"#utility.yul\":7429:7438   */\n      dup6\n        /* \"#utility.yul\":7425:7447   */\n      add\n        /* \"#utility.yul\":7393:7457   */\n      tag_192\n      jump\t// in\n    tag_277:\n        /* \"#utility.yul\":7383:7457   */\n      swap2\n      pop\n        /* \"#utility.yul\":7339:7467   */\n      pop\n        /* \"#utility.yul\":7123:7474   */\n      swap3\n      swap2\n      pop\n      pop\n      jump\t// out\n        /* \"#utility.yul\":7480:7660   */\n    tag_193:\n        /* \"#utility.yul\":7528:7605   */\n      0x4e487b7100000000000000000000000000000000000000000000000000000000\n        /* \"#utility.yul\":7525:7526   */\n      0x00\n        /* \"#utility.yul\":7518:7606   */\n      mstore\n        /* \"#utility.yul\":7625:7629   */\n      0x11\n        /* \"#utility.yul\":7622:7623   */\n      0x04\n        /* \"#utility.yul\":7615:7630   */\n      mstore\n        /* \"#utility.yul\":7649:7653   */\n      0x24\n        /* \"#utility.yul\":7646:7647   */\n      0x00\n        /* \"#utility.yul\":7639:7654   */\n      revert\n        /* \"#utility.yul\":7666:7743   */\n    tag_194:\n        /* \"#utility.yul\":7703:7710   */\n      0x00\n        /* \"#utility.yul\":7732:7737   */\n      dup2\n        /* \"#utility.yul\":7721:7737   */\n      swap1\n      pop\n        /* \"#utility.yul\":7666:7743   */\n      swap2\n      swap1\n      pop\n      jump\t// out\n        /* \"#utility.yul\":7749:7982   */\n    tag_76:\n        /* \"#utility.yul\":7788:7791   */\n      0x00\n        /* \"#utility.yul\":7811:7835   */\n      tag_281\n        /* \"#utility.yul\":7829:7834   */\n      dup3\n        /* \"#utility.yul\":7811:7835   */\n      tag_194\n      jump\t// in\n    tag_281:\n        /* \"#utility.yul\":7802:7835   */\n      swap2\n      pop\n        /* \"#utility.yul\":7857:7923   */\n      0xffffffffffffffffffffffffffffffffffffffffffffffffffffffffffffffff\n        /* \"#utility.yul\":7850:7855   */\n      dup3\n        /* \"#utility.yul\":7847:7924   */\n      sub\n        /* \"#utility.yul\":7844:7947   */\n      tag_282\n      jumpi\n        /* \"#utility.yul\":7927:7945   */\n      tag_283\n      tag_193\n      jump\t// in\n    tag_283:\n        /* \"#utility.yul\":7844:7947   */\n    tag_282:\n        /* \"#utility.yul\":7974:7975   */\n      0x01\n        /* \"#utility.yul\":7967:7972   */\n      dup3\n        /* \"#utility.yul\":7963:7976   */\n      add\n        /* \"#utility.yul\":7956:7976   */\n      swap1\n      pop\n        /* \"#utility.yul\":7749:7982   */\n      swap2\n      swap1\n      pop\n      jump\t// out\n        /* \"#utility.yul\":7988:8279   */\n    tag_195:\n        /* \"#utility.yul\":8128:8162   */\n      0x596f7520617265206e6f74206d616e616765722e2064656c6574654d616e6167\n        /* \"#utility.yul\":8124:8125   */\n      0x00\n        /* \"#utility.yul\":8116:8122   */\n      dup3\n        /* \"#utility.yul\":8112:8126   */\n      add\n        /* \"#utility.yul\":8105:8163   */\n      mstore\n        /* \"#utility.yul\":8197:8231   */\n      0x65722066756e6374696f6e20697320616c6c6f77656420666f72206d616e6167\n        /* \"#utility.yul\":8192:8194   */\n      0x20\n        /* \"#utility.yul\":8184:8190   */\n      dup3\n        /* \"#utility.yul\":8180:8195   */\n      add\n        /* \"#utility.yul\":8173:8232   */\n      mstore\n        /* \"#utility.yul\":8266:8271   */\n      0x65722e0000000000000000000000000000000000000000000000000000000000\n        /* \"#utility.yul\":8261:8263   */\n      0x40\n        /* \"#utility.yul\":8253:8259   */\n      dup3\n        /* \"#utility.yul\":8249:8264   */\n      add\n        /* \"#utility.yul\":8242:8272   */\n      mstore\n        /* \"#utility.yul\":7988:8279   */\n      pop\n      jump\t// out\n        /* \"#utility.yul\":8285:8651   */\n    tag_196:\n        /* \"#utility.yul\":8427:8430   */\n      0x00\n        /* \"#utility.yul\":8448:8515   */\n      tag_286\n        /* \"#utility.yul\":8512:8514   */\n      0x43\n        /* \"#utility.yul\":8507:8510   */\n      dup4\n        /* \"#utility.yul\":8448:8515   */\n      tag_185\n      jump\t// in\n    tag_286:\n        /* \"#utility.yul\":8441:8515   */\n      swap2\n      pop\n        /* \"#utility.yul\":8524:8617   */\n      tag_287\n        /* \"#utility.yul\":8613:8616   */\n      dup3\n        /* \"#utility.yul\":8524:8617   */\n      tag_195\n      jump\t// in\n    tag_287:\n        /* \"#utility.yul\":8642:8644   */\n      0x60\n        /* \"#utility.yul\":8637:8640   */\n      dup3\n        /* \"#utility.yul\":8633:8645   */\n      add\n        /* \"#utility.yul\":8626:8645   */\n      swap1\n      pop\n        /* \"#utility.yul\":8285:8651   */\n      swap2\n      swap1\n      pop\n      jump\t// out\n        /* \"#utility.yul\":8657:9076   */\n    tag_81:\n        /* \"#utility.yul\":8823:8827   */\n      0x00\n        /* \"#utility.yul\":8861:8863   */\n      0x20\n        /* \"#utility.yul\":8850:8859   */\n      dup3\n        /* \"#utility.yul\":8846:8864   */\n      add\n        /* \"#utility.yul\":8838:8864   */\n      swap1\n      pop\n        /* \"#utility.yul\":8910:8919   */\n      dup2\n        /* \"#utility.yul\":8904:8908   */\n      dup2\n        /* \"#utility.yul\":8900:8920   */\n      sub\n        /* \"#utility.yul\":8896:8897   */\n      0x00\n        /* \"#utility.yul\":8885:8894   */\n      dup4\n        /* \"#utility.yul\":8881:8898   */\n      add\n        /* \"#utility.yul\":8874:8921   */\n      mstore\n        /* \"#utility.yul\":8938:9069   */\n      tag_289\n        /* \"#utility.yul\":9064:9068   */\n      dup2\n        /* \"#utility.yul\":8938:9069   */\n      tag_196\n      jump\t// in\n    tag_289:\n        /* \"#utility.yul\":8930:9069   */\n      swap1\n      pop\n        /* \"#utility.yul\":8657:9076   */\n      swap2\n      swap1\n      pop\n      jump\t// out\n        /* \"#utility.yul\":9082:9440   */\n    tag_197:\n        /* \"#utility.yul\":9222:9256   */\n      0x4f776e65722063616e206e6f742062652064656c657465642e20757365206368\n        /* \"#utility.yul\":9218:9219   */\n      0x00\n        /* \"#utility.yul\":9210:9216   */\n      dup3\n        /* \"#utility.yul\":9206:9220   */\n      add\n        /* \"#utility.yul\":9199:9257   */\n      mstore\n        /* \"#utility.yul\":9291:9325   */\n      0x616e67654f776e65722066756e6374696f6e20746f2064656c657465206f7269\n        /* \"#utility.yul\":9286:9288   */\n      0x20\n        /* \"#utility.yul\":9278:9284   */\n      dup3\n        /* \"#utility.yul\":9274:9289   */\n      add\n        /* \"#utility.yul\":9267:9326   */\n      mstore\n        /* \"#utility.yul\":9360:9394   */\n      0x67696e616c206f776e657220616e642067656e6572617465206e6577206f6e65\n        /* \"#utility.yul\":9355:9357   */\n      0x40\n        /* \"#utility.yul\":9347:9353   */\n      dup3\n        /* \"#utility.yul\":9343:9358   */\n      add\n        /* \"#utility.yul\":9336:9395   */\n      mstore\n        /* \"#utility.yul\":9429:9432   */\n      0x2e00000000000000000000000000000000000000000000000000000000000000\n        /* \"#utility.yul\":9424:9426   */\n      0x60\n        /* \"#utility.yul\":9416:9422   */\n      dup3\n        /* \"#utility.yul\":9412:9427   */\n      add\n        /* \"#utility.yul\":9405:9433   */\n      mstore\n        /* \"#utility.yul\":9082:9440   */\n      pop\n      jump\t// out\n        /* \"#utility.yul\":9446:9813   */\n    tag_198:\n        /* \"#utility.yul\":9588:9591   */\n      0x00\n        /* \"#utility.yul\":9609:9676   */\n      tag_292\n        /* \"#utility.yul\":9673:9675   */\n      0x61\n        /* \"#utility.yul\":9668:9671   */\n      dup4\n        /* \"#utility.yul\":9609:9676   */\n      tag_185\n      jump\t// in\n    tag_292:\n        /* \"#utility.yul\":9602:9676   */\n      swap2\n      pop\n        /* \"#utility.yul\":9685:9778   */\n      tag_293\n        /* \"#utility.yul\":9774:9777   */\n      dup3\n        /* \"#utility.yul\":9685:9778   */\n      tag_197\n      jump\t// in\n    tag_293:\n        /* \"#utility.yul\":9803:9806   */\n      0x80\n        /* \"#utility.yul\":9798:9801   */\n      dup3\n        /* \"#utility.yul\":9794:9807   */\n      add\n        /* \"#utility.yul\":9787:9807   */\n      swap1\n      pop\n        /* \"#utility.yul\":9446:9813   */\n      swap2\n      swap1\n      pop\n      jump\t// out\n        /* \"#utility.yul\":9819:10238   */\n    tag_85:\n        /* \"#utility.yul\":9985:9989   */\n      0x00\n        /* \"#utility.yul\":10023:10025   */\n      0x20\n        /* \"#utility.yul\":10012:10021   */\n      dup3\n        /* \"#utility.yul\":10008:10026   */\n      add\n        /* \"#utility.yul\":10000:10026   */\n      swap1\n      pop\n        /* \"#utility.yul\":10072:10081   */\n      dup2\n        /* \"#utility.yul\":10066:10070   */\n      dup2\n        /* \"#utility.yul\":10062:10082   */\n      sub\n        /* \"#utility.yul\":10058:10059   */\n      0x00\n        /* \"#utility.yul\":10047:10056   */\n      dup4\n        /* \"#utility.yul\":10043:10060   */\n      add\n        /* \"#utility.yul\":10036:10083   */\n      mstore\n        /* \"#utility.yul\":10100:10231   */\n      tag_295\n        /* \"#utility.yul\":10226:10230   */\n      dup2\n        /* \"#utility.yul\":10100:10231   */\n      tag_198\n      jump\t// in\n    tag_295:\n        /* \"#utility.yul\":10092:10231   */\n      swap1\n      pop\n        /* \"#utility.yul\":9819:10238   */\n      swap2\n      swap1\n      pop\n      jump\t// out\n        /* \"#utility.yul\":10244:10438   */\n    tag_97:\n        /* \"#utility.yul\":10284:10288   */\n      0x00\n        /* \"#utility.yul\":10304:10324   */\n      tag_297\n        /* \"#utility.yul\":10322:10323   */\n      dup3\n        /* \"#utility.yul\":10304:10324   */\n      tag_194\n      jump\t// in\n    tag_297:\n        /* \"#utility.yul\":10299:10324   */\n      swap2\n      pop\n        /* \"#utility.yul\":10338:10358   */\n      tag_298\n        /* \"#utility.yul\":10356:10357   */\n      dup4\n        /* \"#utility.yul\":10338:10358   */\n      tag_194\n      jump\t// in\n    tag_298:\n        /* \"#utility.yul\":10333:10358   */\n      swap3\n      pop\n        /* \"#utility.yul\":10382:10383   */\n      dup3\n        /* \"#utility.yul\":10379:10380   */\n      dup3\n        /* \"#utility.yul\":10375:10384   */\n      sub\n        /* \"#utility.yul\":10367:10384   */\n      swap1\n      pop\n        /* \"#utility.yul\":10406:10407   */\n      dup2\n        /* \"#utility.yul\":10400:10404   */\n      dup2\n        /* \"#utility.yul\":10397:10408   */\n      gt\n        /* \"#utility.yul\":10394:10431   */\n      iszero\n      tag_299\n      jumpi\n        /* \"#utility.yul\":10411:10429   */\n      tag_300\n      tag_193\n      jump\t// in\n    tag_300:\n        /* \"#utility.yul\":10394:10431   */\n    tag_299:\n        /* \"#utility.yul\":10244:10438   */\n      swap3\n      swap2\n      pop\n      pop\n      jump\t// out\n        /* \"#utility.yul\":10444:10624   */\n    tag_106:\n        /* \"#utility.yul\":10492:10569   */\n      0x4e487b7100000000000000000000000000000000000000000000000000000000\n        /* \"#utility.yul\":10489:10490   */\n      0x00\n        /* \"#utility.yul\":10482:10570   */\n      mstore\n        /* \"#utility.yul\":10589:10593   */\n      0x31\n        /* \"#utility.yul\":10586:10587   */\n      0x04\n        /* \"#utility.yul\":10579:10594   */\n      mstore\n        /* \"#utility.yul\":10613:10617   */\n      0x24\n        /* \"#utility.yul\":10610:10611   */\n      0x00\n        /* \"#utility.yul\":10603:10618   */\n      revert\n        /* \"#utility.yul\":10630:10809   */\n    tag_199:\n        /* \"#utility.yul\":10770:10801   */\n      0x6e6f7420666f756e642068696d20696e206d616e61676572206c697374000000\n        /* \"#utility.yul\":10766:10767   */\n      0x00\n        /* \"#utility.yul\":10758:10764   */\n      dup3\n        /* \"#utility.yul\":10754:10768   */\n      add\n        /* \"#utility.yul\":10747:10802   */\n      mstore\n        /* \"#utility.yul\":10630:10809   */\n      pop\n      jump\t// out\n        /* \"#utility.yul\":10815:11181   */\n    tag_200:\n        /* \"#utility.yul\":10957:10960   */\n      0x00\n        /* \"#utility.yul\":10978:11045   */\n      tag_304\n        /* \"#utility.yul\":11042:11044   */\n      0x1d\n        /* \"#utility.yul\":11037:11040   */\n      dup4\n        /* \"#utility.yul\":10978:11045   */\n      tag_185\n      jump\t// in\n    tag_304:\n        /* \"#utility.yul\":10971:11045   */\n      swap2\n      pop\n        /* \"#utility.yul\":11054:11147   */\n      tag_305\n        /* \"#utility.yul\":11143:11146   */\n      dup3\n        /* \"#utility.yul\":11054:11147   */\n      tag_199\n      jump\t// in\n    tag_305:\n        /* \"#utility.yul\":11172:11174   */\n      0x20\n        /* \"#utility.yul\":11167:11170   */\n      dup3\n        /* \"#utility.yul\":11163:11175   */\n      add\n        /* \"#utility.yul\":11156:11175   */\n      swap1\n      pop\n        /* \"#utility.yul\":10815:11181   */\n      swap2\n      swap1\n      pop\n      jump\t// out\n        /* \"#utility.yul\":11187:11606   */\n    tag_111:\n        /* \"#utility.yul\":11353:11357   */\n      0x00\n        /* \"#utility.yul\":11391:11393   */\n      0x20\n        /* \"#utility.yul\":11380:11389   */\n      dup3\n        /* \"#utility.yul\":11376:11394   */\n      add\n        /* \"#utility.yul\":11368:11394   */\n      swap1\n      pop\n        /* \"#utility.yul\":11440:11449   */\n      dup2\n        /* \"#utility.yul\":11434:11438   */\n      dup2\n        /* \"#utility.yul\":11430:11450   */\n      sub\n        /* \"#utility.yul\":11426:11427   */\n      0x00\n        /* \"#utility.yul\":11415:11424   */\n      dup4\n        /* \"#utility.yul\":11411:11428   */\n      add\n        /* \"#utility.yul\":11404:11451   */\n      mstore\n        /* \"#utility.yul\":11468:11599   */\n      tag_307\n        /* \"#utility.yul\":11594:11598   */\n      dup2\n        /* \"#utility.yul\":11468:11599   */\n      tag_200\n      jump\t// in\n    tag_307:\n        /* \"#utility.yul\":11460:11599   */\n      swap1\n      pop\n        /* \"#utility.yul\":11187:11606   */\n      swap2\n      swap1\n      pop\n      jump\t// out\n        /* \"#utility.yul\":11612:11990   */\n    tag_201:\n        /* \"#utility.yul\":11752:11786   */\n      0x486520697320616c7265616479206d616e616765722e204265666f7265207573\n        /* \"#utility.yul\":11748:11749   */\n      0x00\n        /* \"#utility.yul\":11740:11746   */\n      dup3\n        /* \"#utility.yul\":11736:11750   */\n      add\n        /* \"#utility.yul\":11729:11787   */\n      mstore\n        /* \"#utility.yul\":11821:11855   */\n      0x6520746869732066756e6374696f6e2c20796f75206d7573742064656c657465\n        /* \"#utility.yul\":11816:11818   */\n      0x20\n        /* \"#utility.yul\":11808:11814   */\n      dup3\n        /* \"#utility.yul\":11804:11819   */\n      add\n        /* \"#utility.yul\":11797:11856   */\n      mstore\n        /* \"#utility.yul\":11890:11924   */\n      0x2068696d2066726f6d206d616e6167657273206c6973742e287573652064656c\n        /* \"#utility.yul\":11885:11887   */\n      0x40\n        /* \"#utility.yul\":11877:11883   */\n      dup3\n        /* \"#utility.yul\":11873:11888   */\n      add\n        /* \"#utility.yul\":11866:11925   */\n      mstore\n        /* \"#utility.yul\":11959:11982   */\n      0x6574654d616e616765722066756e6374696f6e21290000000000000000000000\n        /* \"#utility.yul\":11954:11956   */\n      0x60\n        /* \"#utility.yul\":11946:11952   */\n      dup3\n        /* \"#utility.yul\":11942:11957   */\n      add\n        /* \"#utility.yul\":11935:11983   */\n      mstore\n        /* \"#utility.yul\":11612:11990   */\n      pop\n      jump\t// out\n        /* \"#utility.yul\":11996:12364   */\n    tag_202:\n        /* \"#utility.yul\":12138:12141   */\n      0x00\n        /* \"#utility.yul\":12159:12227   */\n      tag_310\n        /* \"#utility.yul\":12223:12226   */\n      0x75\n        /* \"#utility.yul\":12218:12221   */\n      dup4\n        /* \"#utility.yul\":12159:12227   */\n      tag_185\n      jump\t// in\n    tag_310:\n        /* \"#utility.yul\":12152:12227   */\n      swap2\n      pop\n        /* \"#utility.yul\":12236:12329   */\n      tag_311\n        /* \"#utility.yul\":12325:12328   */\n      dup3\n        /* \"#utility.yul\":12236:12329   */\n      tag_201\n      jump\t// in\n    tag_311:\n        /* \"#utility.yul\":12354:12357   */\n      0x80\n        /* \"#utility.yul\":12349:12352   */\n      dup3\n        /* \"#utility.yul\":12345:12358   */\n      add\n        /* \"#utility.yul\":12338:12358   */\n      swap1\n      pop\n        /* \"#utility.yul\":11996:12364   */\n      swap2\n      swap1\n      pop\n      jump\t// out\n        /* \"#utility.yul\":12370:12789   */\n    tag_116:\n        /* \"#utility.yul\":12536:12540   */\n      0x00\n        /* \"#utility.yul\":12574:12576   */\n      0x20\n        /* \"#utility.yul\":12563:12572   */\n      dup3\n        /* \"#utility.yul\":12559:12577   */\n      add\n        /* \"#utility.yul\":12551:12577   */\n      swap1\n      pop\n        /* \"#utility.yul\":12623:12632   */\n      dup2\n        /* \"#utility.yul\":12617:12621   */\n      dup2\n        /* \"#utility.yul\":12613:12633   */\n      sub\n        /* \"#utility.yul\":12609:12610   */\n      0x00\n        /* \"#utility.yul\":12598:12607   */\n      dup4\n        /* \"#utility.yul\":12594:12611   */\n      add\n        /* \"#utility.yul\":12587:12634   */\n      mstore\n        /* \"#utility.yul\":12651:12782   */\n      tag_313\n        /* \"#utility.yul\":12777:12781   */\n      dup2\n        /* \"#utility.yul\":12651:12782   */\n      tag_202\n      jump\t// in\n    tag_313:\n        /* \"#utility.yul\":12643:12782   */\n      swap1\n      pop\n        /* \"#utility.yul\":12370:12789   */\n      swap2\n      swap1\n      pop\n      jump\t// out\n        /* \"#utility.yul\":12795:13043   */\n    tag_203:\n        /* \"#utility.yul\":12935:12969   */\n      0x596f7520617265206e6f74206f776e65722e206368616e67654f776e65722066\n        /* \"#utility.yul\":12931:12932   */\n      0x00\n        /* \"#utility.yul\":12923:12929   */\n      dup3\n        /* \"#utility.yul\":12919:12933   */\n      add\n        /* \"#utility.yul\":12912:12970   */\n      mstore\n        /* \"#utility.yul\":13004:13035   */\n      0x756e6374696f6e20697320616c6c6f77656420666f72206f776e65722e000000\n        /* \"#utility.yul\":12999:13001   */\n      0x20\n        /* \"#utility.yul\":12991:12997   */\n      dup3\n        /* \"#utility.yul\":12987:13002   */\n      add\n        /* \"#utility.yul\":12980:13036   */\n      mstore\n        /* \"#utility.yul\":12795:13043   */\n      pop\n      jump\t// out\n        /* \"#utility.yul\":13049:13415   */\n    tag_204:\n        /* \"#utility.yul\":13191:13194   */\n      0x00\n        /* \"#utility.yul\":13212:13279   */\n      tag_316\n        /* \"#utility.yul\":13276:13278   */\n      0x3d\n        /* \"#utility.yul\":13271:13274   */\n      dup4\n        /* \"#utility.yul\":13212:13279   */\n      tag_185\n      jump\t// in\n    tag_316:\n        /* \"#utility.yul\":13205:13279   */\n      swap2\n      pop\n        /* \"#utility.yul\":13288:13381   */\n      tag_317\n        /* \"#utility.yul\":13377:13380   */\n      dup3\n        /* \"#utility.yul\":13288:13381   */\n      tag_203\n      jump\t// in\n    tag_317:\n        /* \"#utility.yul\":13406:13408   */\n      0x40\n        /* \"#utility.yul\":13401:13404   */\n      dup3\n        /* \"#utility.yul\":13397:13409   */\n      add\n        /* \"#utility.yul\":13390:13409   */\n      swap1\n      pop\n        /* \"#utility.yul\":13049:13415   */\n      swap2\n      swap1\n      pop\n      jump\t// out\n        /* \"#utility.yul\":13421:13840   */\n    tag_120:\n        /* \"#utility.yul\":13587:13591   */\n      0x00\n        /* \"#utility.yul\":13625:13627   */\n      0x20\n        /* \"#utility.yul\":13614:13623   */\n      dup3\n        /* \"#utility.yul\":13610:13628   */\n      add\n        /* \"#utility.yul\":13602:13628   */\n      swap1\n      pop\n        /* \"#utility.yul\":13674:13683   */\n      dup2\n        /* \"#utility.yul\":13668:13672   */\n      dup2\n        /* \"#utility.yul\":13664:13684   */\n      sub\n        /* \"#utility.yul\":13660:13661   */\n      0x00\n        /* \"#utility.yul\":13649:13658   */\n      dup4\n        /* \"#utility.yul\":13645:13662   */\n      add\n        /* \"#utility.yul\":13638:13685   */\n      mstore\n        /* \"#utility.yul\":13702:13833   */\n      tag_319\n        /* \"#utility.yul\":13828:13832   */\n      dup2\n        /* \"#utility.yul\":13702:13833   */\n      tag_204\n      jump\t// in\n    tag_319:\n        /* \"#utility.yul\":13694:13833   */\n      swap1\n      pop\n        /* \"#utility.yul\":13421:13840   */\n      swap2\n      swap1\n      pop\n      jump\t// out\n        /* \"#utility.yul\":13846:14026   */\n    tag_142:\n        /* \"#utility.yul\":13894:13971   */\n      0x4e487b7100000000000000000000000000000000000000000000000000000000\n        /* \"#utility.yul\":13891:13892   */\n      0x00\n        /* \"#utility.yul\":13884:13972   */\n      mstore\n        /* \"#utility.yul\":13991:13995   */\n      0x41\n        /* \"#utility.yul\":13988:13989   */\n      0x04\n        /* \"#utility.yul\":13981:13996   */\n      mstore\n        /* \"#utility.yul\":14015:14019   */\n      0x24\n        /* \"#utility.yul\":14012:14013   */\n      0x00\n        /* \"#utility.yul\":14005:14020   */\n      revert\n    stop\n\n    sub_0: assembly {\n            /* \"authentication.sol\":57:390  contract Manager{... */\n          mstore(0x40, 0x80)\n            /* \"authentication.sol\":303:388  constructor(address _managerAddress){... */\n          callvalue\n          dup1\n          iszero\n          tag_1\n          jumpi\n          0x00\n          dup1\n          revert\n        tag_1:\n          pop\n          mload(0x40)\n          sub(codesize, bytecodeSize)\n          dup1\n          bytecodeSize\n          dup4\n          codecopy\n          dup2\n          dup2\n          add\n          0x40\n          mstore\n          dup2\n          add\n          swap1\n          tag_2\n          swap2\n          swap1\n          tag_3\n          jump\t// in\n        tag_2:\n            /* \"authentication.sol\":366:381  _managerAddress */\n          dup1\n            /* \"authentication.sol\":349:363  managerAddress */\n          0x00\n          dup1\n            /* \"authentication.sol\":349:381  managerAddress = _managerAddress */\n          0x0100\n          exp\n          dup2\n          sload\n          dup2\n          0xffffffffffffffffffffffffffffffffffffffff\n          mul\n          not\n          and\n          swap1\n          dup4\n          0xffffffffffffffffffffffffffffffffffffffff\n          and\n          mul\n          or\n          swap1\n          sstore\n          pop\n            /* \"authentication.sol\":303:388  constructor(address _managerAddress){... */\n          pop\n            /* \"authentication.sol\":57:390  contract Manager{... */\n          jump(tag_6)\n            /* \"#utility.yul\":88:205   */\n        tag_8:\n            /* \"#utility.yul\":197:198   */\n          0x00\n            /* \"#utility.yul\":194:195   */\n          dup1\n            /* \"#utility.yul\":187:199   */\n          revert\n            /* \"#utility.yul\":334:460   */\n        tag_10:\n            /* \"#utility.yul\":371:378   */\n          0x00\n            /* \"#utility.yul\":411:453   */\n          0xffffffffffffffffffffffffffffffffffffffff\n            /* \"#utility.yul\":404:409   */\n          dup3\n            /* \"#utility.yul\":400:454   */\n          and\n            /* \"#utility.yul\":389:454   */\n          swap1\n          pop\n            /* \"#utility.yul\":334:460   */\n          swap2\n          swap1\n          pop\n          jump\t// out\n            /* \"#utility.yul\":466:562   */\n        tag_11:\n            /* \"#utility.yul\":503:510   */\n          0x00\n            /* \"#utility.yul\":532:556   */\n          tag_20\n            /* \"#utility.yul\":550:555   */\n          dup3\n            /* \"#utility.yul\":532:556   */\n          tag_10\n          jump\t// in\n        tag_20:\n            /* \"#utility.yul\":521:556   */\n          swap1\n          pop\n            /* \"#utility.yul\":466:562   */\n          swap2\n          swap1\n          pop\n          jump\t// out\n            /* \"#utility.yul\":568:690   */\n        tag_12:\n            /* \"#utility.yul\":641:665   */\n          tag_22\n            /* \"#utility.yul\":659:664   */\n          dup2\n            /* \"#utility.yul\":641:665   */\n          tag_11\n          jump\t// in\n        tag_22:\n            /* \"#utility.yul\":634:639   */\n          dup2\n            /* \"#utility.yul\":631:666   */\n          eq\n            /* \"#utility.yul\":621:684   */\n          tag_23\n          jumpi\n            /* \"#utility.yul\":680:681   */\n          0x00\n            /* \"#utility.yul\":677:678   */\n          dup1\n            /* \"#utility.yul\":670:682   */\n          revert\n            /* \"#utility.yul\":621:684   */\n        tag_23:\n            /* \"#utility.yul\":568:690   */\n          pop\n          jump\t// out\n            /* \"#utility.yul\":696:839   */\n        tag_13:\n            /* \"#utility.yul\":753:758   */\n          0x00\n            /* \"#utility.yul\":784:790   */\n          dup2\n            /* \"#utility.yul\":778:791   */\n          mload\n            /* \"#utility.yul\":769:791   */\n          swap1\n          pop\n            /* \"#utility.yul\":800:833   */\n          tag_25\n            /* \"#utility.yul\":827:832   */\n          dup2\n            /* \"#utility.yul\":800:833   */\n          tag_12\n          jump\t// in\n        tag_25:\n            /* \"#utility.yul\":696:839   */\n          swap3\n          swap2\n          pop\n          pop\n          jump\t// out\n            /* \"#utility.yul\":845:1196   */\n        tag_3:\n            /* \"#utility.yul\":915:921   */\n          0x00\n            /* \"#utility.yul\":964:966   */\n          0x20\n            /* \"#utility.yul\":952:961   */\n          dup3\n            /* \"#utility.yul\":943:950   */\n          dup5\n            /* \"#utility.yul\":939:962   */\n          sub\n            /* \"#utility.yul\":935:967   */\n          slt\n            /* \"#utility.yul\":932:1051   */\n          iszero\n          tag_27\n          jumpi\n            /* \"#utility.yul\":970:1049   */\n          tag_28\n          tag_8\n          jump\t// in\n        tag_28:\n            /* \"#utility.yul\":932:1051   */\n        tag_27:\n            /* \"#utility.yul\":1090:1091   */\n          0x00\n            /* \"#utility.yul\":1115:1179   */\n          tag_29\n            /* \"#utility.yul\":1171:1178   */\n          dup5\n            /* \"#utility.yul\":1162:1168   */\n          dup3\n            /* \"#utility.yul\":1151:1160   */\n          dup6\n            /* \"#utility.yul\":1147:1169   */\n          add\n            /* \"#utility.yul\":1115:1179   */\n          tag_13\n          jump\t// in\n        tag_29:\n            /* \"#utility.yul\":1105:1179   */\n          swap2\n          pop\n            /* \"#utility.yul\":1061:1189   */\n          pop\n            /* \"#utility.yul\":845:1196   */\n          swap3\n          swap2\n          pop\n          pop\n          jump\t// out\n            /* \"authentication.sol\":57:390  contract Manager{... */\n        tag_6:\n          dataSize(sub_0)\n          dup1\n          dataOffset(sub_0)\n          0x00\n          codecopy\n          0x00\n          return\n        stop\n\n        sub_0: assembly {\n                /* \"authentication.sol\":57:390  contract Manager{... */\n              mstore(0x40, 0x80)\n              callvalue\n              dup1\n              iszero\n              tag_1\n              jumpi\n              0x00\n              dup1\n              revert\n            tag_1:\n              pop\n              jumpi(tag_2, lt(calldatasize, 0x04))\n              shr(0xe0, calldataload(0x00))\n              dup1\n              0x8f32d59b\n              eq\n              tag_3\n              jumpi\n              dup1\n              0xc162d7da\n              eq\n              tag_4\n              jumpi\n            tag_2:\n              0x00\n              dup1\n              revert\n                /* \"authentication.sol\":115:197  function isOwner()pure  virtual  public returns(bool){... */\n            tag_3:\n              tag_5\n              tag_6\n              jump\t// in\n            tag_5:\n              mload(0x40)\n              tag_7\n              swap2\n              swap1\n              tag_8\n              jump\t// in\n            tag_7:\n              mload(0x40)\n              dup1\n              swap2\n              sub\n              swap1\n              return\n                /* \"authentication.sol\":202:298  function getManagerAddress() view public returns (address){... */\n            tag_4:\n              tag_9\n              tag_10\n              jump\t// in\n            tag_9:\n              mload(0x40)\n              tag_11\n              swap2\n              swap1\n              tag_12\n              jump\t// in\n            tag_11:\n              mload(0x40)\n              dup1\n              swap2\n              sub\n              swap1\n              return\n                /* \"authentication.sol\":115:197  function isOwner()pure  virtual  public returns(bool){... */\n            tag_6:\n                /* \"authentication.sol\":163:167  bool */\n              0x00\n                /* \"authentication.sol\":115:197  function isOwner()pure  virtual  public returns(bool){... */\n              swap1\n              jump\t// out\n                /* \"authentication.sol\":202:298  function getManagerAddress() view public returns (address){... */\n            tag_10:\n                /* \"authentication.sol\":252:259  address */\n              0x00\n                /* \"authentication.sol\":277:291  managerAddress */\n              dup1\n              0x00\n              swap1\n              sload\n              swap1\n              0x0100\n              exp\n              swap1\n              div\n              0xffffffffffffffffffffffffffffffffffffffff\n              and\n                /* \"authentication.sol\":270:291  return managerAddress */\n              swap1\n              pop\n                /* \"authentication.sol\":202:298  function getManagerAddress() view public returns (address){... */\n              swap1\n              jump\t// out\n                /* \"#utility.yul\":7:97   */\n            tag_15:\n                /* \"#utility.yul\":41:48   */\n              0x00\n                /* \"#utility.yul\":84:89   */\n              dup2\n                /* \"#utility.yul\":77:90   */\n              iszero\n                /* \"#utility.yul\":70:91   */\n              iszero\n                /* \"#utility.yul\":59:91   */\n              swap1\n              pop\n                /* \"#utility.yul\":7:97   */\n              swap2\n              swap1\n              pop\n              jump\t// out\n                /* \"#utility.yul\":103:212   */\n            tag_16:\n                /* \"#utility.yul\":184:205   */\n              tag_23\n                /* \"#utility.yul\":199:204   */\n              dup2\n                /* \"#utility.yul\":184:205   */\n              tag_15\n              jump\t// in\n            tag_23:\n                /* \"#utility.yul\":179:182   */\n              dup3\n                /* \"#utility.yul\":172:206   */\n              mstore\n                /* \"#utility.yul\":103:212   */\n              pop\n              pop\n              jump\t// out\n                /* \"#utility.yul\":218:428   */\n            tag_8:\n                /* \"#utility.yul\":305:309   */\n              0x00\n                /* \"#utility.yul\":343:345   */\n              0x20\n                /* \"#utility.yul\":332:341   */\n              dup3\n                /* \"#utility.yul\":328:346   */\n              add\n                /* \"#utility.yul\":320:346   */\n              swap1\n              pop\n                /* \"#utility.yul\":356:421   */\n              tag_25\n                /* \"#utility.yul\":418:419   */\n              0x00\n                /* \"#utility.yul\":407:416   */\n              dup4\n                /* \"#utility.yul\":403:420   */\n              add\n                /* \"#utility.yul\":394:400   */\n              dup5\n                /* \"#utility.yul\":356:421   */\n              tag_16\n              jump\t// in\n            tag_25:\n                /* \"#utility.yul\":218:428   */\n              swap3\n              swap2\n              pop\n              pop\n              jump\t// out\n                /* \"#utility.yul\":434:560   */\n            tag_17:\n                /* \"#utility.yul\":471:478   */\n              0x00\n                /* \"#utility.yul\":511:553   */\n              0xffffffffffffffffffffffffffffffffffffffff\n                /* \"#utility.yul\":504:509   */\n              dup3\n                /* \"#utility.yul\":500:554   */\n              and\n                /* \"#utility.yul\":489:554   */\n              swap1\n              pop\n                /* \"#utility.yul\":434:560   */\n              swap2\n              swap1\n              pop\n              jump\t// out\n                /* \"#utility.yul\":566:662   */\n            tag_18:\n                /* \"#utility.yul\":603:610   */\n              0x00\n                /* \"#utility.yul\":632:656   */\n              tag_28\n                /* \"#utility.yul\":650:655   */\n              dup3\n                /* \"#utility.yul\":632:656   */\n              tag_17\n              jump\t// in\n            tag_28:\n                /* \"#utility.yul\":621:656   */\n              swap1\n              pop\n                /* \"#utility.yul\":566:662   */\n              swap2\n              swap1\n              pop\n              jump\t// out\n                /* \"#utility.yul\":668:786   */\n            tag_19:\n                /* \"#utility.yul\":755:779   */\n              tag_30\n                /* \"#utility.yul\":773:778   */\n              dup2\n                /* \"#utility.yul\":755:779   */\n              tag_18\n              jump\t// in\n            tag_30:\n                /* \"#utility.yul\":750:753   */\n              dup3\n                /* \"#utility.yul\":743:780   */\n              mstore\n                /* \"#utility.yul\":668:786   */\n              pop\n              pop\n              jump\t// out\n                /* \"#utility.yul\":792:1014   */\n            tag_12:\n                /* \"#utility.yul\":885:889   */\n              0x00\n                /* \"#utility.yul\":923:925   */\n              0x20\n                /* \"#utility.yul\":912:921   */\n              dup3\n                /* \"#utility.yul\":908:926   */\n              add\n                /* \"#utility.yul\":900:926   */\n              swap1\n              pop\n                /* \"#utility.yul\":936:1007   */\n              tag_32\n                /* \"#utility.yul\":1004:1005   */\n              0x00\n                /* \"#utility.yul\":993:1002   */\n              dup4\n                /* \"#utility.yul\":989:1006   */\n              add\n                /* \"#utility.yul\":980:986   */\n              dup5\n                /* \"#utility.yul\":936:1007   */\n              tag_19\n              jump\t// in\n            tag_32:\n                /* \"#utility.yul\":792:1014   */\n              swap3\n              swap2\n              pop\n              pop\n              jump\t// out\n\n            auxdata: 0xa26469706673582212204865e350c9c5f49be4be779fdeba57c84b2a8cee00c8279996a08fdcd38d559364736f6c63430008120033\n        }\n    }\n\n    sub_1: assembly {\n            /* \"authentication.sol\":392:570  contract Owner is Manager{... */\n          mstore(0x40, 0x80)\n            /* \"authentication.sol\":509:568  constructor(address _ownerAddress) Manager(_ownerAddress){} */\n          callvalue\n          dup1\n          iszero\n          tag_1\n          jumpi\n          0x00\n          dup1\n          revert\n        tag_1:\n          pop\n          mload(0x40)\n          sub(codesize, bytecodeSize)\n          dup1\n          bytecodeSize\n          dup4\n          codecopy\n          dup2\n          dup2\n          add\n          0x40\n          mstore\n          dup2\n          add\n          swap1\n          tag_2\n          swap2\n          swap1\n          tag_3\n          jump\t// in\n        tag_2:\n            /* \"authentication.sol\":552:565  _ownerAddress */\n          dup1\n            /* \"authentication.sol\":366:381  _managerAddress */\n          dup1\n            /* \"authentication.sol\":349:363  managerAddress */\n          0x00\n          dup1\n            /* \"authentication.sol\":349:381  managerAddress = _managerAddress */\n          0x0100\n          exp\n          dup2\n          sload\n          dup2\n          0xffffffffffffffffffffffffffffffffffffffff\n          mul\n          not\n          and\n          swap1\n          dup4\n          0xffffffffffffffffffffffffffffffffffffffff\n          and\n          mul\n          or\n          swap1\n          sstore\n          pop\n            /* \"authentication.sol\":303:388  constructor(address _managerAddress){... */\n          pop\n            /* \"authentication.sol\":509:568  constructor(address _ownerAddress) Manager(_ownerAddress){} */\n          pop\n            /* \"authentication.sol\":392:570  contract Owner is Manager{... */\n          jump(tag_8)\n            /* \"#utility.yul\":88:205   */\n        tag_10:\n            /* \"#utility.yul\":197:198   */\n          0x00\n            /* \"#utility.yul\":194:195   */\n          dup1\n            /* \"#utility.yul\":187:199   */\n          revert\n            /* \"#utility.yul\":334:460   */\n        tag_12:\n            /* \"#utility.yul\":371:378   */\n          0x00\n            /* \"#utility.yul\":411:453   */\n          0xffffffffffffffffffffffffffffffffffffffff\n            /* \"#utility.yul\":404:409   */\n          dup3\n            /* \"#utility.yul\":400:454   */\n          and\n            /* \"#utility.yul\":389:454   */\n          swap1\n          pop\n            /* \"#utility.yul\":334:460   */\n          swap2\n          swap1\n          pop\n          jump\t// out\n            /* \"#utility.yul\":466:562   */\n        tag_13:\n            /* \"#utility.yul\":503:510   */\n          0x00\n            /* \"#utility.yul\":532:556   */\n          tag_22\n            /* \"#utility.yul\":550:555   */\n          dup3\n            /* \"#utility.yul\":532:556   */\n          tag_12\n          jump\t// in\n        tag_22:\n            /* \"#utility.yul\":521:556   */\n          swap1\n          pop\n            /* \"#utility.yul\":466:562   */\n          swap2\n          swap1\n          pop\n          jump\t// out\n            /* \"#utility.yul\":568:690   */\n        tag_14:\n            /* \"#utility.yul\":641:665   */\n          tag_24\n            /* \"#utility.yul\":659:664   */\n          dup2\n            /* \"#utility.yul\":641:665   */\n          tag_13\n          jump\t// in\n        tag_24:\n            /* \"#utility.yul\":634:639   */\n          dup2\n            /* \"#utility.yul\":631:666   */\n          eq\n            /* \"#utility.yul\":621:684   */\n          tag_25\n          jumpi\n            /* \"#utility.yul\":680:681   */\n          0x00\n            /* \"#utility.yul\":677:678   */\n          dup1\n            /* \"#utility.yul\":670:682   */\n          revert\n            /* \"#utility.yul\":621:684   */\n        tag_25:\n            /* \"#utility.yul\":568:690   */\n          pop\n          jump\t// out\n            /* \"#utility.yul\":696:839   */\n        tag_15:\n            /* \"#utility.yul\":753:758   */\n          0x00\n            /* \"#utility.yul\":784:790   */\n          dup2\n            /* \"#utility.yul\":778:791   */\n          mload\n            /* \"#utility.yul\":769:791   */\n          swap1\n          pop\n            /* \"#utility.yul\":800:833   */\n          tag_27\n            /* \"#utility.yul\":827:832   */\n          dup2\n            /* \"#utility.yul\":800:833   */\n          tag_14\n          jump\t// in\n        tag_27:\n            /* \"#utility.yul\":696:839   */\n          swap3\n          swap2\n          pop\n          pop\n          jump\t// out\n            /* \"#utility.yul\":845:1196   */\n        tag_3:\n            /* \"#utility.yul\":915:921   */\n          0x00\n            /* \"#utility.yul\":964:966   */\n          0x20\n            /* \"#utility.yul\":952:961   */\n          dup3\n            /* \"#utility.yul\":943:950   */\n          dup5\n            /* \"#utility.yul\":939:962   */\n          sub\n            /* \"#utility.yul\":935:967   */\n          slt\n            /* \"#utility.yul\":932:1051   */\n          iszero\n          tag_29\n          jumpi\n            /* \"#utility.yul\":970:1049   */\n          tag_30\n          tag_10\n          jump\t// in\n        tag_30:\n            /* \"#utility.yul\":932:1051   */\n        tag_29:\n            /* \"#utility.yul\":1090:1091   */\n          0x00\n            /* \"#utility.yul\":1115:1179   */\n          tag_31\n            /* \"#utility.yul\":1171:1178   */\n          dup5\n            /* \"#utility.yul\":1162:1168   */\n          dup3\n            /* \"#utility.yul\":1151:1160   */\n          dup6\n            /* \"#utility.yul\":1147:1169   */\n          add\n            /* \"#utility.yul\":1115:1179   */\n          tag_15\n          jump\t// in\n        tag_31:\n            /* \"#utility.yul\":1105:1179   */\n          swap2\n          pop\n            /* \"#utility.yul\":1061:1189   */\n          pop\n            /* \"#utility.yul\":845:1196   */\n          swap3\n          swap2\n          pop\n          pop\n          jump\t// out\n            /* \"authentication.sol\":392:570  contract Owner is Manager{... */\n        tag_8:\n          dataSize(sub_0)\n          dup1\n          dataOffset(sub_0)\n          0x00\n          codecopy\n          0x00\n          return\n        stop\n\n        sub_0: assembly {\n                /* \"authentication.sol\":392:570  contract Owner is Manager{... */\n              mstore(0x40, 0x80)\n              callvalue\n              dup1\n              iszero\n              tag_1\n              jumpi\n              0x00\n              dup1\n              revert\n            tag_1:\n              pop\n              jumpi(tag_2, lt(calldatasize, 0x04))\n              shr(0xe0, calldataload(0x00))\n              dup1\n              0x8f32d59b\n              eq\n              tag_3\n              jumpi\n              dup1\n              0xc162d7da\n              eq\n              tag_4\n              jumpi\n            tag_2:\n              0x00\n              dup1\n              revert\n                /* \"authentication.sol\":423:504  function isOwner()pure public override  returns(bool){... */\n            tag_3:\n              tag_5\n              tag_6\n              jump\t// in\n            tag_5:\n              mload(0x40)\n              tag_7\n              swap2\n              swap1\n              tag_8\n              jump\t// in\n            tag_7:\n              mload(0x40)\n              dup1\n              swap2\n              sub\n              swap1\n              return\n                /* \"authentication.sol\":202:298  function getManagerAddress() view public returns (address){... */\n            tag_4:\n              tag_9\n              tag_10\n              jump\t// in\n            tag_9:\n              mload(0x40)\n              tag_11\n              swap2\n              swap1\n              tag_12\n              jump\t// in\n            tag_11:\n              mload(0x40)\n              dup1\n              swap2\n              sub\n              swap1\n              return\n                /* \"authentication.sol\":423:504  function isOwner()pure public override  returns(bool){... */\n            tag_6:\n                /* \"authentication.sol\":471:475  bool */\n              0x00\n                /* \"authentication.sol\":493:497  true */\n              0x01\n                /* \"authentication.sol\":486:497  return true */\n              swap1\n              pop\n                /* \"authentication.sol\":423:504  function isOwner()pure public override  returns(bool){... */\n              swap1\n              jump\t// out\n                /* \"authentication.sol\":202:298  function getManagerAddress() view public returns (address){... */\n            tag_10:\n                /* \"authentication.sol\":252:259  address */\n              0x00\n                /* \"authentication.sol\":277:291  managerAddress */\n              dup1\n              0x00\n              swap1\n              sload\n              swap1\n              0x0100\n              exp\n              swap1\n              div\n              0xffffffffffffffffffffffffffffffffffffffff\n              and\n                /* \"authentication.sol\":270:291  return managerAddress */\n              swap1\n              pop\n                /* \"authentication.sol\":202:298  function getManagerAddress() view public returns (address){... */\n              swap1\n              jump\t// out\n                /* \"#utility.yul\":7:97   */\n            tag_15:\n                /* \"#utility.yul\":41:48   */\n              0x00\n                /* \"#utility.yul\":84:89   */\n              dup2\n                /* \"#utility.yul\":77:90   */\n              iszero\n                /* \"#utility.yul\":70:91   */\n              iszero\n                /* \"#utility.yul\":59:91   */\n              swap1\n              pop\n                /* \"#utility.yul\":7:97   */\n              swap2\n              swap1\n              pop\n              jump\t// out\n                /* \"#utility.yul\":103:212   */\n            tag_16:\n                /* \"#utility.yul\":184:205   */\n              tag_23\n                /* \"#utility.yul\":199:204   */\n              dup2\n                /* \"#utility.yul\":184:205   */\n              tag_15\n              jump\t// in\n            tag_23:\n                /* \"#utility.yul\":179:182   */\n              dup3\n                /* \"#utility.yul\":172:206   */\n              mstore\n                /* \"#utility.yul\":103:212   */\n              pop\n              pop\n              jump\t// out\n                /* \"#utility.yul\":218:428   */\n            tag_8:\n                /* \"#utility.yul\":305:309   */\n              0x00\n                /* \"#utility.yul\":343:345   */\n              0x20\n                /* \"#utility.yul\":332:341   */\n              dup3\n                /* \"#utility.yul\":328:346   */\n              add\n                /* \"#utility.yul\":320:346   */\n              swap1\n              pop\n                /* \"#utility.yul\":356:421   */\n              tag_25\n                /* \"#utility.yul\":418:419   */\n              0x00\n                /* \"#utility.yul\":407:416   */\n              dup4\n                /* \"#utility.yul\":403:420   */\n              add\n                /* \"#utility.yul\":394:400   */\n              dup5\n                /* \"#utility.yul\":356:421   */\n              tag_16\n              jump\t// in\n            tag_25:\n                /* \"#utility.yul\":218:428   */\n              swap3\n              swap2\n              pop\n              pop\n              jump\t// out\n                /* \"#utility.yul\":434:560   */\n            tag_17:\n                /* \"#utility.yul\":471:478   */\n              0x00\n                /* \"#utility.yul\":511:553   */\n              0xffffffffffffffffffffffffffffffffffffffff\n                /* \"#utility.yul\":504:509   */\n              dup3\n                /* \"#utility.yul\":500:554   */\n              and\n                /* \"#utility.yul\":489:554   */\n              swap1\n              pop\n                /* \"#utility.yul\":434:560   */\n              swap2\n              swap1\n              pop\n              jump\t// out\n                /* \"#utility.yul\":566:662   */\n            tag_18:\n                /* \"#utility.yul\":603:610   */\n              0x00\n                /* \"#utility.yul\":632:656   */\n              tag_28\n                /* \"#utility.yul\":650:655   */\n              dup3\n                /* \"#utility.yul\":632:656   */\n              tag_17\n              jump\t// in\n            tag_28:\n                /* \"#utility.yul\":621:656   */\n              swap1\n              pop\n                /* \"#utility.yul\":566:662   */\n              swap2\n              swap1\n              pop\n              jump\t// out\n                /* \"#utility.yul\":668:786   */\n            tag_19:\n                /* \"#utility.yul\":755:779   */\n              tag_30\n                /* \"#utility.yul\":773:778   */\n              dup2\n                /* \"#utility.yul\":755:779   */\n              tag_18\n              jump\t// in\n            tag_30:\n                /* \"#utility.yul\":750:753   */\n              dup3\n                /* \"#utility.yul\":743:780   */\n              mstore\n                /* \"#utility.yul\":668:786   */\n              pop\n              pop\n              jump\t// out\n                /* \"#utility.yul\":792:1014   */\n            tag_12:\n                /* \"#utility.yul\":885:889   */\n              0x00\n                /* \"#utility.yul\":923:925   */\n              0x20\n                /* \"#utility.yul\":912:921   */\n              dup3\n                /* \"#utility.yul\":908:926   */\n              add\n                /* \"#utility.yul\":900:926   */\n              swap1\n              pop\n                /* \"#utility.yul\":936:1007   */\n              tag_32\n                /* \"#utility.yul\":1004:1005   */\n              0x00\n                /* \"#utility.yul\":993:1002   */\n              dup4\n                /* \"#utility.yul\":989:1006   */\n              add\n                /* \"#utility.yul\":980:986   */\n              dup5\n                /* \"#utility.yul\":936:1007   */\n              tag_19\n              jump\t// in\n            tag_32:\n                /* \"#utility.yul\":792:1014   */\n              swap3\n              swap2\n              pop\n              pop\n              jump\t// out\n\n            auxdata: 0xa264697066735822122039bce2f139ec777c61ffb45d27593c11b41e0c1ac6f9956d0e8ff6e6c88c3d6464736f6c63430008120033\n        }\n    }\n\n    auxdata: 0xa264697066735822122094fd34f571eb2fe94e4da30b2fc9541ad61565d4e0c6ea5bf2069b95fcd1f5c064736f6c63430008120033\n}\n\nsub_1: assembly {\n        /* \"authentication.sol\":392:570  contract Owner is Manager{... */\n      mstore(0x40, 0x80)\n        /* \"authentication.sol\":509:568  constructor(address _ownerAddress) Manager(_ownerAddress){} */\n      callvalue\n      dup1\n      iszero\n      tag_1\n      jumpi\n      0x00\n      dup1\n      revert\n    tag_1:\n      pop\n      mload(0x40)\n      sub(codesize, bytecodeSize)\n      dup1\n      bytecodeSize\n      dup4\n      codecopy\n      dup2\n      dup2\n      add\n      0x40\n      mstore\n      dup2\n      add\n      swap1\n      tag_2\n      swap2\n      swap1\n      tag_3\n      jump\t// in\n    tag_2:\n        /* \"authentication.sol\":552:565  _ownerAddress */\n      dup1\n        /* \"authentication.sol\":366:381  _managerAddress */\n      dup1\n        /* \"authentication.sol\":349:363  managerAddress */\n      0x00\n      dup1\n        /* \"authentication.sol\":349:381  managerAddress = _managerAddress */\n      0x0100\n      exp\n      dup2\n      sload\n      dup2\n      0xffffffffffffffffffffffffffffffffffffffff\n      mul\n      not\n      and\n      swap1\n      dup4\n      0xffffffffffffffffffffffffffffffffffffffff\n      and\n      mul\n      or\n      swap1\n      sstore\n      pop\n        /* \"authentication.sol\":303:388  constructor(address _managerAddress){... */\n      pop\n        /* \"authentication.sol\":509:568  constructor(address _ownerAddress) Manager(_ownerAddress){} */\n      pop\n        /* \"authentication.sol\":392:570  contract Owner is Manager{... */\n      jump(tag_8)\n        /* \"#utility.yul\":88:205   */\n    tag_10:\n        /* \"#utility.yul\":197:198   */\n      0x00\n        /* \"#utility.yul\":194:195   */\n      dup1\n        /* \"#utility.yul\":187:199   */\n      revert\n        /* \"#utility.yul\":334:460   */\n    tag_12:\n        /* \"#utility.yul\":371:378   */\n      0x00\n        /* \"#utility.yul\":411:453   */\n      0xffffffffffffffffffffffffffffffffffffffff\n        /* \"#utility.yul\":404:409   */\n      dup3\n        /* \"#utility.yul\":400:454   */\n      and\n        /* \"#utility.yul\":389:454   */\n      swap1\n      pop\n        /* \"#utility.yul\":334:460   */\n      swap2\n      swap1\n      pop\n      jump\t// out\n        /* \"#utility.yul\":466:562   */\n    tag_13:\n        /* \"#utility.yul\":503:510   */\n      0x00\n        /* \"#utility.yul\":532:556   */\n      tag_22\n        /* \"#utility.yul\":550:555   */\n      dup3\n        /* \"#utility.yul\":532:556   */\n      tag_12\n      jump\t// in\n    tag_22:\n        /* \"#utility.yul\":521:556   */\n      swap1\n      pop\n        /* \"#utility.yul\":466:562   */\n      swap2\n      swap1\n      pop\n      jump\t// out\n        /* \"#utility.yul\":568:690   */\n    tag_14:\n        /* \"#utility.yul\":641:665   */\n      tag_24\n        /* \"#utility.yul\":659:664   */\n      dup2\n        /* \"#utility.yul\":641:665   */\n      tag_13\n      jump\t// in\n    tag_24:\n        /* \"#utility.yul\":634:639   */\n      dup2\n        /* \"#utility.yul\":631:666   */\n      eq\n        /* \"#utility.yul\":621:684   */\n      tag_25\n      jumpi\n        /* \"#utility.yul\":680:681   */\n      0x00\n        /* \"#utility.yul\":677:678   */\n      dup1\n        /* \"#utility.yul\":670:682   */\n      revert\n        /* \"#utility.yul\":621:684   */\n    tag_25:\n        /* \"#utility.yul\":568:690   */\n      pop\n      jump\t// out\n        /* \"#utility.yul\":696:839   */\n    tag_15:\n        /* \"#utility.yul\":753:758   */\n      0x00\n        /* \"#utility.yul\":784:790   */\n      dup2\n        /* \"#utility.yul\":778:791   */\n      mload\n        /* \"#utility.yul\":769:791   */\n      swap1\n      pop\n        /* \"#utility.yul\":800:833   */\n      tag_27\n        /* \"#utility.yul\":827:832   */\n      dup2\n        /* \"#utility.yul\":800:833   */\n      tag_14\n      jump\t// in\n    tag_27:\n        /* \"#utility.yul\":696:839   */\n      swap3\n      swap2\n      pop\n      pop\n      jump\t// out\n        /* \"#utility.yul\":845:1196   */\n    tag_3:\n        /* \"#utility.yul\":915:921   */\n      0x00\n        /* \"#utility.yul\":964:966   */\n      0x20\n        /* \"#utility.yul\":952:961   */\n      dup3\n        /* \"#utility.yul\":943:950   */\n      dup5\n        /* \"#utility.yul\":939:962   */\n      sub\n        /* \"#utility.yul\":935:967   */\n      slt\n        /* \"#utility.yul\":932:1051   */\n      iszero\n      tag_29\n      jumpi\n        /* \"#utility.yul\":970:1049   */\n      tag_30\n      tag_10\n      jump\t// in\n    tag_30:\n        /* \"#utility.yul\":932:1051   */\n    tag_29:\n        /* \"#utility.yul\":1090:1091   */\n      0x00\n        /* \"#utility.yul\":1115:1179   */\n      tag_31\n        /* \"#utility.yul\":1171:1178   */\n      dup5\n        /* \"#utility.yul\":1162:1168   */\n      dup3\n        /* \"#utility.yul\":1151:1160   */\n      dup6\n        /* \"#utility.yul\":1147:1169   */\n      add\n        /* \"#utility.yul\":1115:1179   */\n      tag_15\n      jump\t// in\n    tag_31:\n        /* \"#utility.yul\":1105:1179   */\n      swap2\n      pop\n        /* \"#utility.yul\":1061:1189   */\n      pop\n        /* \"#utility.yul\":845:1196   */\n      swap3\n      swap2\n      pop\n      pop\n      jump\t// out\n        /* \"authentication.sol\":392:570  contract Owner is Manager{... */\n    tag_8:\n      dataSize(sub_0)\n      dup1\n      dataOffset(sub_0)\n      0x00\n      codecopy\n      0x00\n      return\n    stop\n\n    sub_0: assembly {\n            /* \"authentication.sol\":392:570  contract Owner is Manager{... */\n          mstore(0x40, 0x80)\n          callvalue\n          dup1\n          iszero\n          tag_1\n          jumpi\n          0x00\n          dup1\n          revert\n        tag_1:\n          pop\n          jumpi(tag_2, lt(calldatasize, 0x04))\n          shr(0xe0, calldataload(0x00))\n          dup1\n          0x8f32d59b\n          eq\n          tag_3\n          jumpi\n          dup1\n          0xc162d7da\n          eq\n          tag_4\n          jumpi\n        tag_2:\n          0x00\n          dup1\n          revert\n            /* \"authentication.sol\":423:504  function isOwner()pure public override  returns(bool){... */\n        tag_3:\n          tag_5\n          tag_6\n          jump\t// in\n        tag_5:\n          mload(0x40)\n          tag_7\n          swap2\n          swap1\n          tag_8\n          jump\t// in\n        tag_7:\n          mload(0x40)\n          dup1\n          swap2\n          sub\n          swap1\n          return\n            /* \"authentication.sol\":202:298  function getManagerAddress() view public returns (address){... */\n        tag_4:\n          tag_9\n          tag_10\n          jump\t// in\n        tag_9:\n          mload(0x40)\n          tag_11\n          swap2\n          swap1\n          tag_12\n          jump\t// in\n        tag_11:\n          mload(0x40)\n          dup1\n          swap2\n          sub\n          swap1\n          return\n            /* \"authentication.sol\":423:504  function isOwner()pure public override  returns(bool){... */\n        tag_6:\n            /* \"authentication.sol\":471:475  bool */\n          0x00\n            /* \"authentication.sol\":493:497  true */\n          0x01\n            /* \"authentication.sol\":486:497  return true */\n          swap1\n          pop\n            /* \"authentication.sol\":423:504  function isOwner()pure public override  returns(bool){... */\n          swap1\n          jump\t// out\n            /* \"authentication.sol\":202:298  function getManagerAddress() view public returns (address){... */\n        tag_10:\n            /* \"authentication.sol\":252:259  address */\n          0x00\n            /* \"authentication.sol\":277:291  managerAddress */\n          dup1\n          0x00\n          swap1\n          sload\n          swap1\n          0x0100\n          exp\n          swap1\n          div\n          0xffffffffffffffffffffffffffffffffffffffff\n          and\n            /* \"authentication.sol\":270:291  return managerAddress */\n          swap1\n          pop\n            /* \"authentication.sol\":202:298  function getManagerAddress() view public returns (address){... */\n          swap1\n          jump\t// out\n            /* \"#utility.yul\":7:97   */\n        tag_15:\n            /* \"#utility.yul\":41:48   */\n          0x00\n            /* \"#utility.yul\":84:89   */\n          dup2\n            /* \"#utility.yul\":77:90   */\n          iszero\n            /* \"#utility.yul\":70:91   */\n          iszero\n            /* \"#utility.yul\":59:91   */\n          swap1\n          pop\n            /* \"#utility.yul\":7:97   */\n          swap2\n          swap1\n          pop\n          jump\t// out\n            /* \"#utility.yul\":103:212   */\n        tag_16:\n            /* \"#utility.yul\":184:205   */\n          tag_23\n            /* \"#utility.yul\":199:204   */\n          dup2\n            /* \"#utility.yul\":184:205   */\n          tag_15\n          jump\t// in\n        tag_23:\n            /* \"#utility.yul\":179:182   */\n          dup3\n            /* \"#utility.yul\":172:206   */\n          mstore\n            /* \"#utility.yul\":103:212   */\n          pop\n          pop\n          jump\t// out\n            /* \"#utility.yul\":218:428   */\n        tag_8:\n            /* \"#utility.yul\":305:309   */\n          0x00\n            /* \"#utility.yul\":343:345   */\n          0x20\n            /* \"#utility.yul\":332:341   */\n          dup3\n            /* \"#utility.yul\":328:346   */\n          add\n            /* \"#utility.yul\":320:346   */\n          swap1\n          pop\n            /* \"#utility.yul\":356:421   */\n          tag_25\n            /* \"#utility.yul\":418:419   */\n          0x00\n            /* \"#utility.yul\":407:416   */\n          dup4\n            /* \"#utility.yul\":403:420   */\n          add\n            /* \"#utility.yul\":394:400   */\n          dup5\n            /* \"#utility.yul\":356:421   */\n          tag_16\n          jump\t// in\n        tag_25:\n            /* \"#utility.yul\":218:428   */\n          swap3\n          swap2\n          pop\n          pop\n          jump\t// out\n            /* \"#utility.yul\":434:560   */\n        tag_17:\n            /* \"#utility.yul\":471:478   */\n          0x00\n            /* \"#utility.yul\":511:553   */\n          0xffffffffffffffffffffffffffffffffffffffff\n            /* \"#utility.yul\":504:509   */\n          dup3\n            /* \"#utility.yul\":500:554   */\n          and\n            /* \"#utility.yul\":489:554   */\n          swap1\n          pop\n            /* \"#utility.yul\":434:560   */\n          swap2\n          swap1\n          pop\n          jump\t// out\n            /* \"#utility.yul\":566:662   */\n        tag_18:\n            /* \"#utility.yul\":603:610   */\n          0x00\n            /* \"#utility.yul\":632:656   */\n          tag_28\n            /* \"#utility.yul\":650:655   */\n          dup3\n            /* \"#utility.yul\":632:656   */\n          tag_17\n          jump\t// in\n        tag_28:\n            /* \"#utility.yul\":621:656   */\n          swap1\n          pop\n            /* \"#utility.yul\":566:662   */\n          swap2\n          swap1\n          pop\n          jump\t// out\n            /* \"#utility.yul\":668:786   */\n        tag_19:\n            /* \"#utility.yul\":755:779   */\n          tag_30\n            /* \"#utility.yul\":773:778   */\n          dup2\n            /* \"#utility.yul\":755:779   */\n          tag_18\n          jump\t// in\n        tag_30:\n            /* \"#utility.yul\":750:753   */\n          dup3\n            /* \"#utility.yul\":743:780   */\n          mstore\n            /* \"#utility.yul\":668:786   */\n          pop\n          pop\n          jump\t// out\n            /* \"#utility.yul\":792:1014   */\n        tag_12:\n            /* \"#utility.yul\":885:889   */\n          0x00\n            /* \"#utility.yul\":923:925   */\n          0x20\n            /* \"#utility.yul\":912:921   */\n          dup3\n            /* \"#utility.yul\":908:926   */\n          add\n            /* \"#utility.yul\":900:926   */\n          swap1\n          pop\n            /* \"#utility.yul\":936:1007   */\n          tag_32\n            /* \"#utility.yul\":1004:1005   */\n          0x00\n            /* \"#utility.yul\":993:1002   */\n          dup4\n            /* \"#utility.yul\":989:1006   */\n          add\n            /* \"#utility.yul\":980:986   */\n          dup5\n            /* \"#utility.yul\":936:1007   */\n          tag_19\n          jump\t// in\n        tag_32:\n            /* \"#utility.yul\":792:1014   */\n          swap3\n          swap2\n          pop\n          pop\n          jump\t// out\n\n        auxdata: 0xa264697066735822122039bce2f139ec777c61ffb45d27593c11b41e0c1ac6f9956d0e8ff6e6c88c3d6464736f6c63430008120033\n    }\n}\n",
				"bytecode": {
					"linkReferences": {},
					"object": "6080604052600067ffffffffffffffff811115620000225762000021620001db565b5b604051908082528060200260200182016040528015620000515781602001602082028036833780820191505090505b5060009080519060200190620000699291906200011f565b503480156200007757600080fd5b506000336040516200008990620001ae565b6200009591906200024f565b604051809103906000f080158015620000b2573d6000803e3d6000fd5b5090506000819080600181540180825580915050600190039060005260206000200160009091909190916101000a81548173ffffffffffffffffffffffffffffffffffffffff021916908373ffffffffffffffffffffffffffffffffffffffff160217905550506200026c565b8280548282559060005260206000209081019282156200019b579160200282015b828111156200019a5782518260006101000a81548173ffffffffffffffffffffffffffffffffffffffff021916908373ffffffffffffffffffffffffffffffffffffffff1602179055509160200191906001019062000140565b5b509050620001aa9190620001bc565b5090565b61028a8062001d1b83390190565b5b80821115620001d7576000816000905550600101620001bd565b5090565b7f4e487b7100000000000000000000000000000000000000000000000000000000600052604160045260246000fd5b600073ffffffffffffffffffffffffffffffffffffffff82169050919050565b600062000237826200020a565b9050919050565b62000249816200022a565b82525050565b60006020820190506200026660008301846200023e565b92915050565b611a9f806200027c6000396000f3fe60806040523480156200001157600080fd5b5060043610620000885760003560e01c8063967997601162000063578063967997601462000105578063a6f9dae11462000125578063a8d088bb1462000145578063f3ae241514620001675762000088565b80632d06177a146200008d5780632f54bf6e14620000ad578063893d20e814620000e3575b600080fd5b620000ab6004803603810190620000a5919062000d2a565b6200019d565b005b620000cb6004803603810190620000c5919062000d2a565b620002dc565b604051620000da919062000d79565b60405180910390f35b620000ed6200032f565b604051620000fc919062000da7565b60405180910390f35b6200012360048036038101906200011d919062000d2a565b620004d9565b005b6200014360048036038101906200013d919062000d2a565b620007cf565b005b6200014f620009f3565b6040516200015e919062000e92565b60405180910390f35b6200018560048036038101906200017f919062000d2a565b62000b7c565b60405162000194919062000d79565b60405180910390f35b620001a83362000b7c565b620001ea576040517f08c379a0000000000000000000000000000000000000000000000000000000008152600401620001e19062000f3d565b60405180910390fd5b620001f58162000b7c565b1562000238576040517f08c379a00000000000000000000000000000000000000000000000000000000081526004016200022f9062000faf565b60405180910390fd5b600081604051620002499062000ca4565b62000255919062000da7565b604051809103906000f08015801562000272573d6000803e3d6000fd5b5090506000819080600181540180825580915050600190039060005260206000200160009091909190916101000a81548173ffffffffffffffffffffffffffffffffffffffff021916908373ffffffffffffffffffffffffffffffffffffffff1602179055505050565b60008173ffffffffffffffffffffffffffffffffffffffff16620002ff6200032f565b73ffffffffffffffffffffffffffffffffffffffff16036200032557600190506200032a565b600090505b919050565b600080600090505b600080549050811015620004d057600081815481106200035c576200035b62000fd1565b5b9060005260206000200160009054906101000a900473ffffffffffffffffffffffffffffffffffffffff1673ffffffffffffffffffffffffffffffffffffffff16638f32d59b6040518163ffffffff1660e01b8152600401602060405180830381865afa158015620003d2573d6000803e3d6000fd5b505050506040513d601f19601f82011682018060405250810190620003f8919062001031565b15620004ba576000818154811062000415576200041462000fd1565b5b9060005260206000200160009054906101000a900473ffffffffffffffffffffffffffffffffffffffff1673ffffffffffffffffffffffffffffffffffffffff1663c162d7da6040518163ffffffff1660e01b8152600401602060405180830381865afa1580156200048b573d6000803e3d6000fd5b505050506040513d601f19601f82011682018060405250810190620004b191906200107a565b915050620004d6565b8080620004c790620010e5565b91505062000337565b50600090505b90565b620004e43362000b7c565b62000526576040517f08c379a00000000000000000000000000000000000000000000000000000000081526004016200051d90620011ce565b60405180910390fd5b6200053181620002dc565b1562000574576040517f08c379a00000000000000000000000000000000000000000000000000000000081526004016200056b90620012b2565b60405180910390fd5b60005b60008054905081101562000786578173ffffffffffffffffffffffffffffffffffffffff1660008281548110620005b357620005b262000fd1565b5b9060005260206000200160009054906101000a900473ffffffffffffffffffffffffffffffffffffffff1673ffffffffffffffffffffffffffffffffffffffff1663c162d7da6040518163ffffffff1660e01b8152600401602060405180830381865afa15801562000629573d6000803e3d6000fd5b505050506040513d601f19601f820116820180604052508101906200064f91906200107a565b73ffffffffffffffffffffffffffffffffffffffff1603620007705760006001600080549050620006819190620012d4565b8154811062000695576200069462000fd1565b5b9060005260206000200160009054906101000a900473ffffffffffffffffffffffffffffffffffffffff1660008281548110620006d757620006d662000fd1565b5b9060005260206000200160006101000a81548173ffffffffffffffffffffffffffffffffffffffff021916908373ffffffffffffffffffffffffffffffffffffffff16021790555060008054806200073457620007336200130f565b5b6001900381819060005260206000200160006101000a81549073ffffffffffffffffffffffffffffffffffffffff0219169055905550620007cc565b80806200077d90620010e5565b91505062000577565b6000620007ca576040517f08c379a0000000000000000000000000000000000000000000000000000000008152600401620007c1906200138e565b60405180910390fd5b505b50565b620007da8162000b7c565b156200081d576040517f08c379a0000000000000000000000000000000000000000000000000000000008152600401620008149062001472565b60405180910390fd5b6200082833620002dc565b6200086a576040517f08c379a000000000000000000000000000000000000000000000000000000000815260040162000861906200150a565b60405180910390fd5b6000816040516200087b9062000cb2565b62000887919062000da7565b604051809103906000f080158015620008a4573d6000803e3d6000fd5b50905060005b600080549050811015620009ed5760008181548110620008cf57620008ce62000fd1565b5b9060005260206000200160009054906101000a900473ffffffffffffffffffffffffffffffffffffffff1673ffffffffffffffffffffffffffffffffffffffff16638f32d59b6040518163ffffffff1660e01b8152600401602060405180830381865afa15801562000945573d6000803e3d6000fd5b505050506040513d601f19601f820116820180604052508101906200096b919062001031565b15620009d957816000828154811062000989576200098862000fd1565b5b9060005260206000200160006101000a81548173ffffffffffffffffffffffffffffffffffffffff021916908373ffffffffffffffffffffffffffffffffffffffff1602179055505050620009f0565b80620009e590620010e5565b9050620008aa565b50505b50565b60606000808054905067ffffffffffffffff81111562000a185762000a176200152c565b5b60405190808252806020026020018201604052801562000a475781602001602082028036833780820191505090505b50905060005b60008054905081101562000b74576000818154811062000a725762000a7162000fd1565b5b9060005260206000200160009054906101000a900473ffffffffffffffffffffffffffffffffffffffff1673ffffffffffffffffffffffffffffffffffffffff1663c162d7da6040518163ffffffff1660e01b8152600401602060405180830381865afa15801562000ae8573d6000803e3d6000fd5b505050506040513d601f19601f8201168201806040525081019062000b0e91906200107a565b82828151811062000b245762000b2362000fd1565b5b602002602001019073ffffffffffffffffffffffffffffffffffffffff16908173ffffffffffffffffffffffffffffffffffffffff1681525050808062000b6b90620010e5565b91505062000a4d565b508091505090565b600080600090505b60008054905081101562000c99578273ffffffffffffffffffffffffffffffffffffffff166000828154811062000bc05762000bbf62000fd1565b5b9060005260206000200160009054906101000a900473ffffffffffffffffffffffffffffffffffffffff1673ffffffffffffffffffffffffffffffffffffffff1663c162d7da6040518163ffffffff1660e01b8152600401602060405180830381865afa15801562000c36573d6000803e3d6000fd5b505050506040513d601f19601f8201168201806040525081019062000c5c91906200107a565b73ffffffffffffffffffffffffffffffffffffffff160362000c8357600191505062000c9f565b808062000c9090620010e5565b91505062000b84565b50600090505b919050565b610284806200155c83390190565b61028a80620017e083390190565b600080fd5b600073ffffffffffffffffffffffffffffffffffffffff82169050919050565b600062000cf28262000cc5565b9050919050565b62000d048162000ce5565b811462000d1057600080fd5b50565b60008135905062000d248162000cf9565b92915050565b60006020828403121562000d435762000d4262000cc0565b5b600062000d538482850162000d13565b91505092915050565b60008115159050919050565b62000d738162000d5c565b82525050565b600060208201905062000d90600083018462000d68565b92915050565b62000da18162000ce5565b82525050565b600060208201905062000dbe600083018462000d96565b92915050565b600081519050919050565b600082825260208201905092915050565b6000819050602082019050919050565b62000dfb8162000ce5565b82525050565b600062000e0f838362000df0565b60208301905092915050565b6000602082019050919050565b600062000e358262000dc4565b62000e41818562000dcf565b935062000e4e8362000de0565b8060005b8381101562000e8557815162000e69888262000e01565b975062000e768362000e1b565b92505060018101905062000e52565b5085935050505092915050565b6000602082019050818103600083015262000eae818462000e28565b905092915050565b600082825260208201905092915050565b7f796f7520617265206e6f74206d616e616765722e206164644d616e616765722060008201527f66756e6374696f6e20697320616c6c6f77656420666f72206d616e616765722e602082015250565b600062000f2560408362000eb6565b915062000f328262000ec7565b604082019050919050565b6000602082019050818103600083015262000f588162000f16565b9050919050565b7f486520697320616c7265616479206d616e616765722e00000000000000000000600082015250565b600062000f9760168362000eb6565b915062000fa48262000f5f565b602082019050919050565b6000602082019050818103600083015262000fca8162000f88565b9050919050565b7f4e487b7100000000000000000000000000000000000000000000000000000000600052603260045260246000fd5b6200100b8162000d5c565b81146200101757600080fd5b50565b6000815190506200102b8162001000565b92915050565b6000602082840312156200104a576200104962000cc0565b5b60006200105a848285016200101a565b91505092915050565b600081519050620010748162000cf9565b92915050565b60006020828403121562001093576200109262000cc0565b5b6000620010a38482850162001063565b91505092915050565b7f4e487b7100000000000000000000000000000000000000000000000000000000600052601160045260246000fd5b6000819050919050565b6000620010f282620010db565b91507fffffffffffffffffffffffffffffffffffffffffffffffffffffffffffffffff8203620011275762001126620010ac565b5b600182019050919050565b7f596f7520617265206e6f74206d616e616765722e2064656c6574654d616e616760008201527f65722066756e6374696f6e20697320616c6c6f77656420666f72206d616e616760208201527f65722e0000000000000000000000000000000000000000000000000000000000604082015250565b6000620011b660438362000eb6565b9150620011c38262001132565b606082019050919050565b60006020820190508181036000830152620011e981620011a7565b9050919050565b7f4f776e65722063616e206e6f742062652064656c657465642e2075736520636860008201527f616e67654f776e65722066756e6374696f6e20746f2064656c657465206f726960208201527f67696e616c206f776e657220616e642067656e6572617465206e6577206f6e6560408201527f2e00000000000000000000000000000000000000000000000000000000000000606082015250565b60006200129a60618362000eb6565b9150620012a782620011f0565b608082019050919050565b60006020820190508181036000830152620012cd816200128b565b9050919050565b6000620012e182620010db565b9150620012ee83620010db565b9250828203905081811115620013095762001308620010ac565b5b92915050565b7f4e487b7100000000000000000000000000000000000000000000000000000000600052603160045260246000fd5b7f6e6f7420666f756e642068696d20696e206d616e61676572206c697374000000600082015250565b600062001376601d8362000eb6565b915062001383826200133e565b602082019050919050565b60006020820190508181036000830152620013a98162001367565b9050919050565b7f486520697320616c7265616479206d616e616765722e204265666f726520757360008201527f6520746869732066756e6374696f6e2c20796f75206d7573742064656c65746560208201527f2068696d2066726f6d206d616e6167657273206c6973742e287573652064656c60408201527f6574654d616e616765722066756e6374696f6e21290000000000000000000000606082015250565b60006200145a60758362000eb6565b91506200146782620013b0565b608082019050919050565b600060208201905081810360008301526200148d816200144b565b9050919050565b7f596f7520617265206e6f74206f776e65722e206368616e67654f776e6572206660008201527f756e6374696f6e20697320616c6c6f77656420666f72206f776e65722e000000602082015250565b6000620014f2603d8362000eb6565b9150620014ff8262001494565b604082019050919050565b600060208201905081810360008301526200152581620014e3565b9050919050565b7f4e487b7100000000000000000000000000000000000000000000000000000000600052604160045260246000fdfe608060405234801561001057600080fd5b50604051610284380380610284833981810160405281019061003291906100db565b806000806101000a81548173ffffffffffffffffffffffffffffffffffffffff021916908373ffffffffffffffffffffffffffffffffffffffff16021790555050610108565b600080fd5b600073ffffffffffffffffffffffffffffffffffffffff82169050919050565b60006100a88261007d565b9050919050565b6100b88161009d565b81146100c357600080fd5b50565b6000815190506100d5816100af565b92915050565b6000602082840312156100f1576100f0610078565b5b60006100ff848285016100c6565b91505092915050565b61016d806101176000396000f3fe608060405234801561001057600080fd5b50600436106100365760003560e01c80638f32d59b1461003b578063c162d7da14610059575b600080fd5b610043610077565b60405161005091906100c0565b60405180910390f35b61006161007c565b60405161006e919061011c565b60405180910390f35b600090565b60008060009054906101000a900473ffffffffffffffffffffffffffffffffffffffff16905090565b60008115159050919050565b6100ba816100a5565b82525050565b60006020820190506100d560008301846100b1565b92915050565b600073ffffffffffffffffffffffffffffffffffffffff82169050919050565b6000610106826100db565b9050919050565b610116816100fb565b82525050565b6000602082019050610131600083018461010d565b9291505056fea26469706673582212204865e350c9c5f49be4be779fdeba57c84b2a8cee00c8279996a08fdcd38d559364736f6c63430008120033608060405234801561001057600080fd5b5060405161028a38038061028a833981810160405281019061003291906100dd565b80806000806101000a81548173ffffffffffffffffffffffffffffffffffffffff021916908373ffffffffffffffffffffffffffffffffffffffff160217905550505061010a565b600080fd5b600073ffffffffffffffffffffffffffffffffffffffff82169050919050565b60006100aa8261007f565b9050919050565b6100ba8161009f565b81146100c557600080fd5b50565b6000815190506100d7816100b1565b92915050565b6000602082840312156100f3576100f261007a565b5b6000610101848285016100c8565b91505092915050565b610171806101196000396000f3fe608060405234801561001057600080fd5b50600436106100365760003560e01c80638f32d59b1461003b578063c162d7da14610059575b600080fd5b610043610077565b60405161005091906100c4565b60405180910390f35b610061610080565b60405161006e9190610120565b60405180910390f35b60006001905090565b60008060009054906101000a900473ffffffffffffffffffffffffffffffffffffffff16905090565b60008115159050919050565b6100be816100a9565b82525050565b60006020820190506100d960008301846100b5565b92915050565b600073ffffffffffffffffffffffffffffffffffffffff82169050919050565b600061010a826100df565b9050919050565b61011a816100ff565b82525050565b60006020820190506101356000830184610111565b9291505056fea264697066735822122039bce2f139ec777c61ffb45d27593c11b41e0c1ac6f9956d0e8ff6e6c88c3d6464736f6c63430008120033a264697066735822122094fd34f571eb2fe94e4da30b2fc9541ad61565d4e0c6ea5bf2069b95fcd1f5c064736f6c63430008120033608060405234801561001057600080fd5b5060405161028a38038061028a833981810160405281019061003291906100dd565b80806000806101000a81548173ffffffffffffffffffffffffffffffffffffffff021916908373ffffffffffffffffffffffffffffffffffffffff160217905550505061010a565b600080fd5b600073ffffffffffffffffffffffffffffffffffffffff82169050919050565b60006100aa8261007f565b9050919050565b6100ba8161009f565b81146100c557600080fd5b50565b6000815190506100d7816100b1565b92915050565b6000602082840312156100f3576100f261007a565b5b6000610101848285016100c8565b91505092915050565b610171806101196000396000f3fe608060405234801561001057600080fd5b50600436106100365760003560e01c80638f32d59b1461003b578063c162d7da14610059575b600080fd5b610043610077565b60405161005091906100c4565b60405180910390f35b610061610080565b60405161006e9190610120565b60405180910390f35b60006001905090565b60008060009054906101000a900473ffffffffffffffffffffffffffffffffffffffff16905090565b60008115159050919050565b6100be816100a9565b82525050565b60006020820190506100d960008301846100b5565b92915050565b600073ffffffffffffffffffffffffffffffffffffffff82169050919050565b600061010a826100df565b9050919050565b61011a816100ff565b82525050565b60006020820190506101356000830184610111565b9291505056fea264697066735822122039bce2f139ec777c61ffb45d27593c11b41e0c1ac6f9956d0e8ff6e6c88c3d6464736f6c63430008120033",
					"opcodes": "PUSH1 0x80 PUSH1 0x40 MSTORE PUSH1 0x0 PUSH8 0xFFFFFFFFFFFFFFFF DUP2 GT ISZERO PUSH3 0x22 JUMPI PUSH3 0x21 PUSH3 0x1DB JUMP JUMPDEST JUMPDEST PUSH1 0x40 MLOAD SWAP1 DUP1 DUP3 MSTORE DUP1 PUSH1 0x20 MUL PUSH1 0x20 ADD DUP3 ADD PUSH1 0x40 MSTORE DUP1 ISZERO PUSH3 0x51 JUMPI DUP2 PUSH1 0x20 ADD PUSH1 0x20 DUP3 MUL DUP1 CALLDATASIZE DUP4 CALLDATACOPY DUP1 DUP3 ADD SWAP2 POP POP SWAP1 POP JUMPDEST POP PUSH1 0x0 SWAP1 DUP1 MLOAD SWAP1 PUSH1 0x20 ADD SWAP1 PUSH3 0x69 SWAP3 SWAP2 SWAP1 PUSH3 0x11F JUMP JUMPDEST POP CALLVALUE DUP1 ISZERO PUSH3 0x77 JUMPI PUSH1 0x0 DUP1 REVERT JUMPDEST POP PUSH1 0x0 CALLER PUSH1 0x40 MLOAD PUSH3 0x89 SWAP1 PUSH3 0x1AE JUMP JUMPDEST PUSH3 0x95 SWAP2 SWAP1 PUSH3 0x24F JUMP JUMPDEST PUSH1 0x40 MLOAD DUP1 SWAP2 SUB SWAP1 PUSH1 0x0 CREATE DUP1 ISZERO DUP1 ISZERO PUSH3 0xB2 JUMPI RETURNDATASIZE PUSH1 0x0 DUP1 RETURNDATACOPY RETURNDATASIZE PUSH1 0x0 REVERT JUMPDEST POP SWAP1 POP PUSH1 0x0 DUP2 SWAP1 DUP1 PUSH1 0x1 DUP2 SLOAD ADD DUP1 DUP3 SSTORE DUP1 SWAP2 POP POP PUSH1 0x1 SWAP1 SUB SWAP1 PUSH1 0x0 MSTORE PUSH1 0x20 PUSH1 0x0 KECCAK256 ADD PUSH1 0x0 SWAP1 SWAP2 SWAP1 SWAP2 SWAP1 SWAP2 PUSH2 0x100 EXP DUP2 SLOAD DUP2 PUSH20 0xFFFFFFFFFFFFFFFFFFFFFFFFFFFFFFFFFFFFFFFF MUL NOT AND SWAP1 DUP4 PUSH20 0xFFFFFFFFFFFFFFFFFFFFFFFFFFFFFFFFFFFFFFFF AND MUL OR SWAP1 SSTORE POP POP PUSH3 0x26C JUMP JUMPDEST DUP3 DUP1 SLOAD DUP3 DUP3 SSTORE SWAP1 PUSH1 0x0 MSTORE PUSH1 0x20 PUSH1 0x0 KECCAK256 SWAP1 DUP2 ADD SWAP3 DUP3 ISZERO PUSH3 0x19B JUMPI SWAP2 PUSH1 0x20 MUL DUP3 ADD JUMPDEST DUP3 DUP2 GT ISZERO PUSH3 0x19A JUMPI DUP3 MLOAD DUP3 PUSH1 0x0 PUSH2 0x100 EXP DUP2 SLOAD DUP2 PUSH20 0xFFFFFFFFFFFFFFFFFFFFFFFFFFFFFFFFFFFFFFFF MUL NOT AND SWAP1 DUP4 PUSH20 0xFFFFFFFFFFFFFFFFFFFFFFFFFFFFFFFFFFFFFFFF AND MUL OR SWAP1 SSTORE POP SWAP2 PUSH1 0x20 ADD SWAP2 SWAP1 PUSH1 0x1 ADD SWAP1 PUSH3 0x140 JUMP JUMPDEST JUMPDEST POP SWAP1 POP PUSH3 0x1AA SWAP2 SWAP1 PUSH3 0x1BC JUMP JUMPDEST POP SWAP1 JUMP JUMPDEST PUSH2 0x28A DUP1 PUSH3 0x1D1B DUP4 CODECOPY ADD SWAP1 JUMP JUMPDEST JUMPDEST DUP1 DUP3 GT ISZERO PUSH3 0x1D7 JUMPI PUSH1 0x0 DUP2 PUSH1 0x0 SWAP1 SSTORE POP PUSH1 0x1 ADD PUSH3 0x1BD JUMP JUMPDEST POP SWAP1 JUMP JUMPDEST PUSH32 0x4E487B7100000000000000000000000000000000000000000000000000000000 PUSH1 0x0 MSTORE PUSH1 0x41 PUSH1 0x4 MSTORE PUSH1 0x24 PUSH1 0x0 REVERT JUMPDEST PUSH1 0x0 PUSH20 0xFFFFFFFFFFFFFFFFFFFFFFFFFFFFFFFFFFFFFFFF DUP3 AND SWAP1 POP SWAP2 SWAP1 POP JUMP JUMPDEST PUSH1 0x0 PUSH3 0x237 DUP3 PUSH3 0x20A JUMP JUMPDEST SWAP1 POP SWAP2 SWAP1 POP JUMP JUMPDEST PUSH3 0x249 DUP2 PUSH3 0x22A JUMP JUMPDEST DUP3 MSTORE POP POP JUMP JUMPDEST PUSH1 0x0 PUSH1 0x20 DUP3 ADD SWAP1 POP PUSH3 0x266 PUSH1 0x0 DUP4 ADD DUP5 PUSH3 0x23E JUMP JUMPDEST SWAP3 SWAP2 POP POP JUMP JUMPDEST PUSH2 0x1A9F DUP1 PUSH3 0x27C PUSH1 0x0 CODECOPY PUSH1 0x0 RETURN INVALID PUSH1 0x80 PUSH1 0x40 MSTORE CALLVALUE DUP1 ISZERO PUSH3 0x11 JUMPI PUSH1 0x0 DUP1 REVERT JUMPDEST POP PUSH1 0x4 CALLDATASIZE LT PUSH3 0x88 JUMPI PUSH1 0x0 CALLDATALOAD PUSH1 0xE0 SHR DUP1 PUSH4 0x96799760 GT PUSH3 0x63 JUMPI DUP1 PUSH4 0x96799760 EQ PUSH3 0x105 JUMPI DUP1 PUSH4 0xA6F9DAE1 EQ PUSH3 0x125 JUMPI DUP1 PUSH4 0xA8D088BB EQ PUSH3 0x145 JUMPI DUP1 PUSH4 0xF3AE2415 EQ PUSH3 0x167 JUMPI PUSH3 0x88 JUMP JUMPDEST DUP1 PUSH4 0x2D06177A EQ PUSH3 0x8D JUMPI DUP1 PUSH4 0x2F54BF6E EQ PUSH3 0xAD JUMPI DUP1 PUSH4 0x893D20E8 EQ PUSH3 0xE3 JUMPI JUMPDEST PUSH1 0x0 DUP1 REVERT JUMPDEST PUSH3 0xAB PUSH1 0x4 DUP1 CALLDATASIZE SUB DUP2 ADD SWAP1 PUSH3 0xA5 SWAP2 SWAP1 PUSH3 0xD2A JUMP JUMPDEST PUSH3 0x19D JUMP JUMPDEST STOP JUMPDEST PUSH3 0xCB PUSH1 0x4 DUP1 CALLDATASIZE SUB DUP2 ADD SWAP1 PUSH3 0xC5 SWAP2 SWAP1 PUSH3 0xD2A JUMP JUMPDEST PUSH3 0x2DC JUMP JUMPDEST PUSH1 0x40 MLOAD PUSH3 0xDA SWAP2 SWAP1 PUSH3 0xD79 JUMP JUMPDEST PUSH1 0x40 MLOAD DUP1 SWAP2 SUB SWAP1 RETURN JUMPDEST PUSH3 0xED PUSH3 0x32F JUMP JUMPDEST PUSH1 0x40 MLOAD PUSH3 0xFC SWAP2 SWAP1 PUSH3 0xDA7 JUMP JUMPDEST PUSH1 0x40 MLOAD DUP1 SWAP2 SUB SWAP1 RETURN JUMPDEST PUSH3 0x123 PUSH1 0x4 DUP1 CALLDATASIZE SUB DUP2 ADD SWAP1 PUSH3 0x11D SWAP2 SWAP1 PUSH3 0xD2A JUMP JUMPDEST PUSH3 0x4D9 JUMP JUMPDEST STOP JUMPDEST PUSH3 0x143 PUSH1 0x4 DUP1 CALLDATASIZE SUB DUP2 ADD SWAP1 PUSH3 0x13D SWAP2 SWAP1 PUSH3 0xD2A JUMP JUMPDEST PUSH3 0x7CF JUMP JUMPDEST STOP JUMPDEST PUSH3 0x14F PUSH3 0x9F3 JUMP JUMPDEST PUSH1 0x40 MLOAD PUSH3 0x15E SWAP2 SWAP1 PUSH3 0xE92 JUMP JUMPDEST PUSH1 0x40 MLOAD DUP1 SWAP2 SUB SWAP1 RETURN JUMPDEST PUSH3 0x185 PUSH1 0x4 DUP1 CALLDATASIZE SUB DUP2 ADD SWAP1 PUSH3 0x17F SWAP2 SWAP1 PUSH3 0xD2A JUMP JUMPDEST PUSH3 0xB7C JUMP JUMPDEST PUSH1 0x40 MLOAD PUSH3 0x194 SWAP2 SWAP1 PUSH3 0xD79 JUMP JUMPDEST PUSH1 0x40 MLOAD DUP1 SWAP2 SUB SWAP1 RETURN JUMPDEST PUSH3 0x1A8 CALLER PUSH3 0xB7C JUMP JUMPDEST PUSH3 0x1EA JUMPI PUSH1 0x40 MLOAD PUSH32 0x8C379A000000000000000000000000000000000000000000000000000000000 DUP2 MSTORE PUSH1 0x4 ADD PUSH3 0x1E1 SWAP1 PUSH3 0xF3D JUMP JUMPDEST PUSH1 0x40 MLOAD DUP1 SWAP2 SUB SWAP1 REVERT JUMPDEST PUSH3 0x1F5 DUP2 PUSH3 0xB7C JUMP JUMPDEST ISZERO PUSH3 0x238 JUMPI PUSH1 0x40 MLOAD PUSH32 0x8C379A000000000000000000000000000000000000000000000000000000000 DUP2 MSTORE PUSH1 0x4 ADD PUSH3 0x22F SWAP1 PUSH3 0xFAF JUMP JUMPDEST PUSH1 0x40 MLOAD DUP1 SWAP2 SUB SWAP1 REVERT JUMPDEST PUSH1 0x0 DUP2 PUSH1 0x40 MLOAD PUSH3 0x249 SWAP1 PUSH3 0xCA4 JUMP JUMPDEST PUSH3 0x255 SWAP2 SWAP1 PUSH3 0xDA7 JUMP JUMPDEST PUSH1 0x40 MLOAD DUP1 SWAP2 SUB SWAP1 PUSH1 0x0 CREATE DUP1 ISZERO DUP1 ISZERO PUSH3 0x272 JUMPI RETURNDATASIZE PUSH1 0x0 DUP1 RETURNDATACOPY RETURNDATASIZE PUSH1 0x0 REVERT JUMPDEST POP SWAP1 POP PUSH1 0x0 DUP2 SWAP1 DUP1 PUSH1 0x1 DUP2 SLOAD ADD DUP1 DUP3 SSTORE DUP1 SWAP2 POP POP PUSH1 0x1 SWAP1 SUB SWAP1 PUSH1 0x0 MSTORE PUSH1 0x20 PUSH1 0x0 KECCAK256 ADD PUSH1 0x0 SWAP1 SWAP2 SWAP1 SWAP2 SWAP1 SWAP2 PUSH2 0x100 EXP DUP2 SLOAD DUP2 PUSH20 0xFFFFFFFFFFFFFFFFFFFFFFFFFFFFFFFFFFFFFFFF MUL NOT AND SWAP1 DUP4 PUSH20 0xFFFFFFFFFFFFFFFFFFFFFFFFFFFFFFFFFFFFFFFF AND MUL OR SWAP1 SSTORE POP POP POP JUMP JUMPDEST PUSH1 0x0 DUP2 PUSH20 0xFFFFFFFFFFFFFFFFFFFFFFFFFFFFFFFFFFFFFFFF AND PUSH3 0x2FF PUSH3 0x32F JUMP JUMPDEST PUSH20 0xFFFFFFFFFFFFFFFFFFFFFFFFFFFFFFFFFFFFFFFF AND SUB PUSH3 0x325 JUMPI PUSH1 0x1 SWAP1 POP PUSH3 0x32A JUMP JUMPDEST PUSH1 0x0 SWAP1 POP JUMPDEST SWAP2 SWAP1 POP JUMP JUMPDEST PUSH1 0x0 DUP1 PUSH1 0x0 SWAP1 POP JUMPDEST PUSH1 0x0 DUP1 SLOAD SWAP1 POP DUP2 LT ISZERO PUSH3 0x4D0 JUMPI PUSH1 0x0 DUP2 DUP2 SLOAD DUP2 LT PUSH3 0x35C JUMPI PUSH3 0x35B PUSH3 0xFD1 JUMP JUMPDEST JUMPDEST SWAP1 PUSH1 0x0 MSTORE PUSH1 0x20 PUSH1 0x0 KECCAK256 ADD PUSH1 0x0 SWAP1 SLOAD SWAP1 PUSH2 0x100 EXP SWAP1 DIV PUSH20 0xFFFFFFFFFFFFFFFFFFFFFFFFFFFFFFFFFFFFFFFF AND PUSH20 0xFFFFFFFFFFFFFFFFFFFFFFFFFFFFFFFFFFFFFFFF AND PUSH4 0x8F32D59B PUSH1 0x40 MLOAD DUP2 PUSH4 0xFFFFFFFF AND PUSH1 0xE0 SHL DUP2 MSTORE PUSH1 0x4 ADD PUSH1 0x20 PUSH1 0x40 MLOAD DUP1 DUP4 SUB DUP2 DUP7 GAS STATICCALL ISZERO DUP1 ISZERO PUSH3 0x3D2 JUMPI RETURNDATASIZE PUSH1 0x0 DUP1 RETURNDATACOPY RETURNDATASIZE PUSH1 0x0 REVERT JUMPDEST POP POP POP POP PUSH1 0x40 MLOAD RETURNDATASIZE PUSH1 0x1F NOT PUSH1 0x1F DUP3 ADD AND DUP3 ADD DUP1 PUSH1 0x40 MSTORE POP DUP2 ADD SWAP1 PUSH3 0x3F8 SWAP2 SWAP1 PUSH3 0x1031 JUMP JUMPDEST ISZERO PUSH3 0x4BA JUMPI PUSH1 0x0 DUP2 DUP2 SLOAD DUP2 LT PUSH3 0x415 JUMPI PUSH3 0x414 PUSH3 0xFD1 JUMP JUMPDEST JUMPDEST SWAP1 PUSH1 0x0 MSTORE PUSH1 0x20 PUSH1 0x0 KECCAK256 ADD PUSH1 0x0 SWAP1 SLOAD SWAP1 PUSH2 0x100 EXP SWAP1 DIV PUSH20 0xFFFFFFFFFFFFFFFFFFFFFFFFFFFFFFFFFFFFFFFF AND PUSH20 0xFFFFFFFFFFFFFFFFFFFFFFFFFFFFFFFFFFFFFFFF AND PUSH4 0xC162D7DA PUSH1 0x40 MLOAD DUP2 PUSH4 0xFFFFFFFF AND PUSH1 0xE0 SHL DUP2 MSTORE PUSH1 0x4 ADD PUSH1 0x20 PUSH1 0x40 MLOAD DUP1 DUP4 SUB DUP2 DUP7 GAS STATICCALL ISZERO DUP1 ISZERO PUSH3 0x48B JUMPI RETURNDATASIZE PUSH1 0x0 DUP1 RETURNDATACOPY RETURNDATASIZE PUSH1 0x0 REVERT JUMPDEST POP POP POP POP PUSH1 0x40 MLOAD RETURNDATASIZE PUSH1 0x1F NOT PUSH1 0x1F DUP3 ADD AND DUP3 ADD DUP1 PUSH1 0x40 MSTORE POP DUP2 ADD SWAP1 PUSH3 0x4B1 SWAP2 SWAP1 PUSH3 0x107A JUMP JUMPDEST SWAP2 POP POP PUSH3 0x4D6 JUMP JUMPDEST DUP1 DUP1 PUSH3 0x4C7 SWAP1 PUSH3 0x10E5 JUMP JUMPDEST SWAP2 POP POP PUSH3 0x337 JUMP JUMPDEST POP PUSH1 0x0 SWAP1 POP JUMPDEST SWAP1 JUMP JUMPDEST PUSH3 0x4E4 CALLER PUSH3 0xB7C JUMP JUMPDEST PUSH3 0x526 JUMPI PUSH1 0x40 MLOAD PUSH32 0x8C379A000000000000000000000000000000000000000000000000000000000 DUP2 MSTORE PUSH1 0x4 ADD PUSH3 0x51D SWAP1 PUSH3 0x11CE JUMP JUMPDEST PUSH1 0x40 MLOAD DUP1 SWAP2 SUB SWAP1 REVERT JUMPDEST PUSH3 0x531 DUP2 PUSH3 0x2DC JUMP JUMPDEST ISZERO PUSH3 0x574 JUMPI PUSH1 0x40 MLOAD PUSH32 0x8C379A000000000000000000000000000000000000000000000000000000000 DUP2 MSTORE PUSH1 0x4 ADD PUSH3 0x56B SWAP1 PUSH3 0x12B2 JUMP JUMPDEST PUSH1 0x40 MLOAD DUP1 SWAP2 SUB SWAP1 REVERT JUMPDEST PUSH1 0x0 JUMPDEST PUSH1 0x0 DUP1 SLOAD SWAP1 POP DUP2 LT ISZERO PUSH3 0x786 JUMPI DUP2 PUSH20 0xFFFFFFFFFFFFFFFFFFFFFFFFFFFFFFFFFFFFFFFF AND PUSH1 0x0 DUP3 DUP2 SLOAD DUP2 LT PUSH3 0x5B3 JUMPI PUSH3 0x5B2 PUSH3 0xFD1 JUMP JUMPDEST JUMPDEST SWAP1 PUSH1 0x0 MSTORE PUSH1 0x20 PUSH1 0x0 KECCAK256 ADD PUSH1 0x0 SWAP1 SLOAD SWAP1 PUSH2 0x100 EXP SWAP1 DIV PUSH20 0xFFFFFFFFFFFFFFFFFFFFFFFFFFFFFFFFFFFFFFFF AND PUSH20 0xFFFFFFFFFFFFFFFFFFFFFFFFFFFFFFFFFFFFFFFF AND PUSH4 0xC162D7DA PUSH1 0x40 MLOAD DUP2 PUSH4 0xFFFFFFFF AND PUSH1 0xE0 SHL DUP2 MSTORE PUSH1 0x4 ADD PUSH1 0x20 PUSH1 0x40 MLOAD DUP1 DUP4 SUB DUP2 DUP7 GAS STATICCALL ISZERO DUP1 ISZERO PUSH3 0x629 JUMPI RETURNDATASIZE PUSH1 0x0 DUP1 RETURNDATACOPY RETURNDATASIZE PUSH1 0x0 REVERT JUMPDEST POP POP POP POP PUSH1 0x40 MLOAD RETURNDATASIZE PUSH1 0x1F NOT PUSH1 0x1F DUP3 ADD AND DUP3 ADD DUP1 PUSH1 0x40 MSTORE POP DUP2 ADD SWAP1 PUSH3 0x64F SWAP2 SWAP1 PUSH3 0x107A JUMP JUMPDEST PUSH20 0xFFFFFFFFFFFFFFFFFFFFFFFFFFFFFFFFFFFFFFFF AND SUB PUSH3 0x770 JUMPI PUSH1 0x0 PUSH1 0x1 PUSH1 0x0 DUP1 SLOAD SWAP1 POP PUSH3 0x681 SWAP2 SWAP1 PUSH3 0x12D4 JUMP JUMPDEST DUP2 SLOAD DUP2 LT PUSH3 0x695 JUMPI PUSH3 0x694 PUSH3 0xFD1 JUMP JUMPDEST JUMPDEST SWAP1 PUSH1 0x0 MSTORE PUSH1 0x20 PUSH1 0x0 KECCAK256 ADD PUSH1 0x0 SWAP1 SLOAD SWAP1 PUSH2 0x100 EXP SWAP1 DIV PUSH20 0xFFFFFFFFFFFFFFFFFFFFFFFFFFFFFFFFFFFFFFFF AND PUSH1 0x0 DUP3 DUP2 SLOAD DUP2 LT PUSH3 0x6D7 JUMPI PUSH3 0x6D6 PUSH3 0xFD1 JUMP JUMPDEST JUMPDEST SWAP1 PUSH1 0x0 MSTORE PUSH1 0x20 PUSH1 0x0 KECCAK256 ADD PUSH1 0x0 PUSH2 0x100 EXP DUP2 SLOAD DUP2 PUSH20 0xFFFFFFFFFFFFFFFFFFFFFFFFFFFFFFFFFFFFFFFF MUL NOT AND SWAP1 DUP4 PUSH20 0xFFFFFFFFFFFFFFFFFFFFFFFFFFFFFFFFFFFFFFFF AND MUL OR SWAP1 SSTORE POP PUSH1 0x0 DUP1 SLOAD DUP1 PUSH3 0x734 JUMPI PUSH3 0x733 PUSH3 0x130F JUMP JUMPDEST JUMPDEST PUSH1 0x1 SWAP1 SUB DUP2 DUP2 SWAP1 PUSH1 0x0 MSTORE PUSH1 0x20 PUSH1 0x0 KECCAK256 ADD PUSH1 0x0 PUSH2 0x100 EXP DUP2 SLOAD SWAP1 PUSH20 0xFFFFFFFFFFFFFFFFFFFFFFFFFFFFFFFFFFFFFFFF MUL NOT AND SWAP1 SSTORE SWAP1 SSTORE POP PUSH3 0x7CC JUMP JUMPDEST DUP1 DUP1 PUSH3 0x77D SWAP1 PUSH3 0x10E5 JUMP JUMPDEST SWAP2 POP POP PUSH3 0x577 JUMP JUMPDEST PUSH1 0x0 PUSH3 0x7CA JUMPI PUSH1 0x40 MLOAD PUSH32 0x8C379A000000000000000000000000000000000000000000000000000000000 DUP2 MSTORE PUSH1 0x4 ADD PUSH3 0x7C1 SWAP1 PUSH3 0x138E JUMP JUMPDEST PUSH1 0x40 MLOAD DUP1 SWAP2 SUB SWAP1 REVERT JUMPDEST POP JUMPDEST POP JUMP JUMPDEST PUSH3 0x7DA DUP2 PUSH3 0xB7C JUMP JUMPDEST ISZERO PUSH3 0x81D JUMPI PUSH1 0x40 MLOAD PUSH32 0x8C379A000000000000000000000000000000000000000000000000000000000 DUP2 MSTORE PUSH1 0x4 ADD PUSH3 0x814 SWAP1 PUSH3 0x1472 JUMP JUMPDEST PUSH1 0x40 MLOAD DUP1 SWAP2 SUB SWAP1 REVERT JUMPDEST PUSH3 0x828 CALLER PUSH3 0x2DC JUMP JUMPDEST PUSH3 0x86A JUMPI PUSH1 0x40 MLOAD PUSH32 0x8C379A000000000000000000000000000000000000000000000000000000000 DUP2 MSTORE PUSH1 0x4 ADD PUSH3 0x861 SWAP1 PUSH3 0x150A JUMP JUMPDEST PUSH1 0x40 MLOAD DUP1 SWAP2 SUB SWAP1 REVERT JUMPDEST PUSH1 0x0 DUP2 PUSH1 0x40 MLOAD PUSH3 0x87B SWAP1 PUSH3 0xCB2 JUMP JUMPDEST PUSH3 0x887 SWAP2 SWAP1 PUSH3 0xDA7 JUMP JUMPDEST PUSH1 0x40 MLOAD DUP1 SWAP2 SUB SWAP1 PUSH1 0x0 CREATE DUP1 ISZERO DUP1 ISZERO PUSH3 0x8A4 JUMPI RETURNDATASIZE PUSH1 0x0 DUP1 RETURNDATACOPY RETURNDATASIZE PUSH1 0x0 REVERT JUMPDEST POP SWAP1 POP PUSH1 0x0 JUMPDEST PUSH1 0x0 DUP1 SLOAD SWAP1 POP DUP2 LT ISZERO PUSH3 0x9ED JUMPI PUSH1 0x0 DUP2 DUP2 SLOAD DUP2 LT PUSH3 0x8CF JUMPI PUSH3 0x8CE PUSH3 0xFD1 JUMP JUMPDEST JUMPDEST SWAP1 PUSH1 0x0 MSTORE PUSH1 0x20 PUSH1 0x0 KECCAK256 ADD PUSH1 0x0 SWAP1 SLOAD SWAP1 PUSH2 0x100 EXP SWAP1 DIV PUSH20 0xFFFFFFFFFFFFFFFFFFFFFFFFFFFFFFFFFFFFFFFF AND PUSH20 0xFFFFFFFFFFFFFFFFFFFFFFFFFFFFFFFFFFFFFFFF AND PUSH4 0x8F32D59B PUSH1 0x40 MLOAD DUP2 PUSH4 0xFFFFFFFF AND PUSH1 0xE0 SHL DUP2 MSTORE PUSH1 0x4 ADD PUSH1 0x20 PUSH1 0x40 MLOAD DUP1 DUP4 SUB DUP2 DUP7 GAS STATICCALL ISZERO DUP1 ISZERO PUSH3 0x945 JUMPI RETURNDATASIZE PUSH1 0x0 DUP1 RETURNDATACOPY RETURNDATASIZE PUSH1 0x0 REVERT JUMPDEST POP POP POP POP PUSH1 0x40 MLOAD RETURNDATASIZE PUSH1 0x1F NOT PUSH1 0x1F DUP3 ADD AND DUP3 ADD DUP1 PUSH1 0x40 MSTORE POP DUP2 ADD SWAP1 PUSH3 0x96B SWAP2 SWAP1 PUSH3 0x1031 JUMP JUMPDEST ISZERO PUSH3 0x9D9 JUMPI DUP2 PUSH1 0x0 DUP3 DUP2 SLOAD DUP2 LT PUSH3 0x989 JUMPI PUSH3 0x988 PUSH3 0xFD1 JUMP JUMPDEST JUMPDEST SWAP1 PUSH1 0x0 MSTORE PUSH1 0x20 PUSH1 0x0 KECCAK256 ADD PUSH1 0x0 PUSH2 0x100 EXP DUP2 SLOAD DUP2 PUSH20 0xFFFFFFFFFFFFFFFFFFFFFFFFFFFFFFFFFFFFFFFF MUL NOT AND SWAP1 DUP4 PUSH20 0xFFFFFFFFFFFFFFFFFFFFFFFFFFFFFFFFFFFFFFFF AND MUL OR SWAP1 SSTORE POP POP POP PUSH3 0x9F0 JUMP JUMPDEST DUP1 PUSH3 0x9E5 SWAP1 PUSH3 0x10E5 JUMP JUMPDEST SWAP1 POP PUSH3 0x8AA JUMP JUMPDEST POP POP JUMPDEST POP JUMP JUMPDEST PUSH1 0x60 PUSH1 0x0 DUP1 DUP1 SLOAD SWAP1 POP PUSH8 0xFFFFFFFFFFFFFFFF DUP2 GT ISZERO PUSH3 0xA18 JUMPI PUSH3 0xA17 PUSH3 0x152C JUMP JUMPDEST JUMPDEST PUSH1 0x40 MLOAD SWAP1 DUP1 DUP3 MSTORE DUP1 PUSH1 0x20 MUL PUSH1 0x20 ADD DUP3 ADD PUSH1 0x40 MSTORE DUP1 ISZERO PUSH3 0xA47 JUMPI DUP2 PUSH1 0x20 ADD PUSH1 0x20 DUP3 MUL DUP1 CALLDATASIZE DUP4 CALLDATACOPY DUP1 DUP3 ADD SWAP2 POP POP SWAP1 POP JUMPDEST POP SWAP1 POP PUSH1 0x0 JUMPDEST PUSH1 0x0 DUP1 SLOAD SWAP1 POP DUP2 LT ISZERO PUSH3 0xB74 JUMPI PUSH1 0x0 DUP2 DUP2 SLOAD DUP2 LT PUSH3 0xA72 JUMPI PUSH3 0xA71 PUSH3 0xFD1 JUMP JUMPDEST JUMPDEST SWAP1 PUSH1 0x0 MSTORE PUSH1 0x20 PUSH1 0x0 KECCAK256 ADD PUSH1 0x0 SWAP1 SLOAD SWAP1 PUSH2 0x100 EXP SWAP1 DIV PUSH20 0xFFFFFFFFFFFFFFFFFFFFFFFFFFFFFFFFFFFFFFFF AND PUSH20 0xFFFFFFFFFFFFFFFFFFFFFFFFFFFFFFFFFFFFFFFF AND PUSH4 0xC162D7DA PUSH1 0x40 MLOAD DUP2 PUSH4 0xFFFFFFFF AND PUSH1 0xE0 SHL DUP2 MSTORE PUSH1 0x4 ADD PUSH1 0x20 PUSH1 0x40 MLOAD DUP1 DUP4 SUB DUP2 DUP7 GAS STATICCALL ISZERO DUP1 ISZERO PUSH3 0xAE8 JUMPI RETURNDATASIZE PUSH1 0x0 DUP1 RETURNDATACOPY RETURNDATASIZE PUSH1 0x0 REVERT JUMPDEST POP POP POP POP PUSH1 0x40 MLOAD RETURNDATASIZE PUSH1 0x1F NOT PUSH1 0x1F DUP3 ADD AND DUP3 ADD DUP1 PUSH1 0x40 MSTORE POP DUP2 ADD SWAP1 PUSH3 0xB0E SWAP2 SWAP1 PUSH3 0x107A JUMP JUMPDEST DUP3 DUP3 DUP2 MLOAD DUP2 LT PUSH3 0xB24 JUMPI PUSH3 0xB23 PUSH3 0xFD1 JUMP JUMPDEST JUMPDEST PUSH1 0x20 MUL PUSH1 0x20 ADD ADD SWAP1 PUSH20 0xFFFFFFFFFFFFFFFFFFFFFFFFFFFFFFFFFFFFFFFF AND SWAP1 DUP2 PUSH20 0xFFFFFFFFFFFFFFFFFFFFFFFFFFFFFFFFFFFFFFFF AND DUP2 MSTORE POP POP DUP1 DUP1 PUSH3 0xB6B SWAP1 PUSH3 0x10E5 JUMP JUMPDEST SWAP2 POP POP PUSH3 0xA4D JUMP JUMPDEST POP DUP1 SWAP2 POP POP SWAP1 JUMP JUMPDEST PUSH1 0x0 DUP1 PUSH1 0x0 SWAP1 POP JUMPDEST PUSH1 0x0 DUP1 SLOAD SWAP1 POP DUP2 LT ISZERO PUSH3 0xC99 JUMPI DUP3 PUSH20 0xFFFFFFFFFFFFFFFFFFFFFFFFFFFFFFFFFFFFFFFF AND PUSH1 0x0 DUP3 DUP2 SLOAD DUP2 LT PUSH3 0xBC0 JUMPI PUSH3 0xBBF PUSH3 0xFD1 JUMP JUMPDEST JUMPDEST SWAP1 PUSH1 0x0 MSTORE PUSH1 0x20 PUSH1 0x0 KECCAK256 ADD PUSH1 0x0 SWAP1 SLOAD SWAP1 PUSH2 0x100 EXP SWAP1 DIV PUSH20 0xFFFFFFFFFFFFFFFFFFFFFFFFFFFFFFFFFFFFFFFF AND PUSH20 0xFFFFFFFFFFFFFFFFFFFFFFFFFFFFFFFFFFFFFFFF AND PUSH4 0xC162D7DA PUSH1 0x40 MLOAD DUP2 PUSH4 0xFFFFFFFF AND PUSH1 0xE0 SHL DUP2 MSTORE PUSH1 0x4 ADD PUSH1 0x20 PUSH1 0x40 MLOAD DUP1 DUP4 SUB DUP2 DUP7 GAS STATICCALL ISZERO DUP1 ISZERO PUSH3 0xC36 JUMPI RETURNDATASIZE PUSH1 0x0 DUP1 RETURNDATACOPY RETURNDATASIZE PUSH1 0x0 REVERT JUMPDEST POP POP POP POP PUSH1 0x40 MLOAD RETURNDATASIZE PUSH1 0x1F NOT PUSH1 0x1F DUP3 ADD AND DUP3 ADD DUP1 PUSH1 0x40 MSTORE POP DUP2 ADD SWAP1 PUSH3 0xC5C SWAP2 SWAP1 PUSH3 0x107A JUMP JUMPDEST PUSH20 0xFFFFFFFFFFFFFFFFFFFFFFFFFFFFFFFFFFFFFFFF AND SUB PUSH3 0xC83 JUMPI PUSH1 0x1 SWAP2 POP POP PUSH3 0xC9F JUMP JUMPDEST DUP1 DUP1 PUSH3 0xC90 SWAP1 PUSH3 0x10E5 JUMP JUMPDEST SWAP2 POP POP PUSH3 0xB84 JUMP JUMPDEST POP PUSH1 0x0 SWAP1 POP JUMPDEST SWAP2 SWAP1 POP JUMP JUMPDEST PUSH2 0x284 DUP1 PUSH3 0x155C DUP4 CODECOPY ADD SWAP1 JUMP JUMPDEST PUSH2 0x28A DUP1 PUSH3 0x17E0 DUP4 CODECOPY ADD SWAP1 JUMP JUMPDEST PUSH1 0x0 DUP1 REVERT JUMPDEST PUSH1 0x0 PUSH20 0xFFFFFFFFFFFFFFFFFFFFFFFFFFFFFFFFFFFFFFFF DUP3 AND SWAP1 POP SWAP2 SWAP1 POP JUMP JUMPDEST PUSH1 0x0 PUSH3 0xCF2 DUP3 PUSH3 0xCC5 JUMP JUMPDEST SWAP1 POP SWAP2 SWAP1 POP JUMP JUMPDEST PUSH3 0xD04 DUP2 PUSH3 0xCE5 JUMP JUMPDEST DUP2 EQ PUSH3 0xD10 JUMPI PUSH1 0x0 DUP1 REVERT JUMPDEST POP JUMP JUMPDEST PUSH1 0x0 DUP2 CALLDATALOAD SWAP1 POP PUSH3 0xD24 DUP2 PUSH3 0xCF9 JUMP JUMPDEST SWAP3 SWAP2 POP POP JUMP JUMPDEST PUSH1 0x0 PUSH1 0x20 DUP3 DUP5 SUB SLT ISZERO PUSH3 0xD43 JUMPI PUSH3 0xD42 PUSH3 0xCC0 JUMP JUMPDEST JUMPDEST PUSH1 0x0 PUSH3 0xD53 DUP5 DUP3 DUP6 ADD PUSH3 0xD13 JUMP JUMPDEST SWAP2 POP POP SWAP3 SWAP2 POP POP JUMP JUMPDEST PUSH1 0x0 DUP2 ISZERO ISZERO SWAP1 POP SWAP2 SWAP1 POP JUMP JUMPDEST PUSH3 0xD73 DUP2 PUSH3 0xD5C JUMP JUMPDEST DUP3 MSTORE POP POP JUMP JUMPDEST PUSH1 0x0 PUSH1 0x20 DUP3 ADD SWAP1 POP PUSH3 0xD90 PUSH1 0x0 DUP4 ADD DUP5 PUSH3 0xD68 JUMP JUMPDEST SWAP3 SWAP2 POP POP JUMP JUMPDEST PUSH3 0xDA1 DUP2 PUSH3 0xCE5 JUMP JUMPDEST DUP3 MSTORE POP POP JUMP JUMPDEST PUSH1 0x0 PUSH1 0x20 DUP3 ADD SWAP1 POP PUSH3 0xDBE PUSH1 0x0 DUP4 ADD DUP5 PUSH3 0xD96 JUMP JUMPDEST SWAP3 SWAP2 POP POP JUMP JUMPDEST PUSH1 0x0 DUP2 MLOAD SWAP1 POP SWAP2 SWAP1 POP JUMP JUMPDEST PUSH1 0x0 DUP3 DUP3 MSTORE PUSH1 0x20 DUP3 ADD SWAP1 POP SWAP3 SWAP2 POP POP JUMP JUMPDEST PUSH1 0x0 DUP2 SWAP1 POP PUSH1 0x20 DUP3 ADD SWAP1 POP SWAP2 SWAP1 POP JUMP JUMPDEST PUSH3 0xDFB DUP2 PUSH3 0xCE5 JUMP JUMPDEST DUP3 MSTORE POP POP JUMP JUMPDEST PUSH1 0x0 PUSH3 0xE0F DUP4 DUP4 PUSH3 0xDF0 JUMP JUMPDEST PUSH1 0x20 DUP4 ADD SWAP1 POP SWAP3 SWAP2 POP POP JUMP JUMPDEST PUSH1 0x0 PUSH1 0x20 DUP3 ADD SWAP1 POP SWAP2 SWAP1 POP JUMP JUMPDEST PUSH1 0x0 PUSH3 0xE35 DUP3 PUSH3 0xDC4 JUMP JUMPDEST PUSH3 0xE41 DUP2 DUP6 PUSH3 0xDCF JUMP JUMPDEST SWAP4 POP PUSH3 0xE4E DUP4 PUSH3 0xDE0 JUMP JUMPDEST DUP1 PUSH1 0x0 JUMPDEST DUP4 DUP2 LT ISZERO PUSH3 0xE85 JUMPI DUP2 MLOAD PUSH3 0xE69 DUP9 DUP3 PUSH3 0xE01 JUMP JUMPDEST SWAP8 POP PUSH3 0xE76 DUP4 PUSH3 0xE1B JUMP JUMPDEST SWAP3 POP POP PUSH1 0x1 DUP2 ADD SWAP1 POP PUSH3 0xE52 JUMP JUMPDEST POP DUP6 SWAP4 POP POP POP POP SWAP3 SWAP2 POP POP JUMP JUMPDEST PUSH1 0x0 PUSH1 0x20 DUP3 ADD SWAP1 POP DUP2 DUP2 SUB PUSH1 0x0 DUP4 ADD MSTORE PUSH3 0xEAE DUP2 DUP5 PUSH3 0xE28 JUMP JUMPDEST SWAP1 POP SWAP3 SWAP2 POP POP JUMP JUMPDEST PUSH1 0x0 DUP3 DUP3 MSTORE PUSH1 0x20 DUP3 ADD SWAP1 POP SWAP3 SWAP2 POP POP JUMP JUMPDEST PUSH32 0x796F7520617265206E6F74206D616E616765722E206164644D616E6167657220 PUSH1 0x0 DUP3 ADD MSTORE PUSH32 0x66756E6374696F6E20697320616C6C6F77656420666F72206D616E616765722E PUSH1 0x20 DUP3 ADD MSTORE POP JUMP JUMPDEST PUSH1 0x0 PUSH3 0xF25 PUSH1 0x40 DUP4 PUSH3 0xEB6 JUMP JUMPDEST SWAP2 POP PUSH3 0xF32 DUP3 PUSH3 0xEC7 JUMP JUMPDEST PUSH1 0x40 DUP3 ADD SWAP1 POP SWAP2 SWAP1 POP JUMP JUMPDEST PUSH1 0x0 PUSH1 0x20 DUP3 ADD SWAP1 POP DUP2 DUP2 SUB PUSH1 0x0 DUP4 ADD MSTORE PUSH3 0xF58 DUP2 PUSH3 0xF16 JUMP JUMPDEST SWAP1 POP SWAP2 SWAP1 POP JUMP JUMPDEST PUSH32 0x486520697320616C7265616479206D616E616765722E00000000000000000000 PUSH1 0x0 DUP3 ADD MSTORE POP JUMP JUMPDEST PUSH1 0x0 PUSH3 0xF97 PUSH1 0x16 DUP4 PUSH3 0xEB6 JUMP JUMPDEST SWAP2 POP PUSH3 0xFA4 DUP3 PUSH3 0xF5F JUMP JUMPDEST PUSH1 0x20 DUP3 ADD SWAP1 POP SWAP2 SWAP1 POP JUMP JUMPDEST PUSH1 0x0 PUSH1 0x20 DUP3 ADD SWAP1 POP DUP2 DUP2 SUB PUSH1 0x0 DUP4 ADD MSTORE PUSH3 0xFCA DUP2 PUSH3 0xF88 JUMP JUMPDEST SWAP1 POP SWAP2 SWAP1 POP JUMP JUMPDEST PUSH32 0x4E487B7100000000000000000000000000000000000000000000000000000000 PUSH1 0x0 MSTORE PUSH1 0x32 PUSH1 0x4 MSTORE PUSH1 0x24 PUSH1 0x0 REVERT JUMPDEST PUSH3 0x100B DUP2 PUSH3 0xD5C JUMP JUMPDEST DUP2 EQ PUSH3 0x1017 JUMPI PUSH1 0x0 DUP1 REVERT JUMPDEST POP JUMP JUMPDEST PUSH1 0x0 DUP2 MLOAD SWAP1 POP PUSH3 0x102B DUP2 PUSH3 0x1000 JUMP JUMPDEST SWAP3 SWAP2 POP POP JUMP JUMPDEST PUSH1 0x0 PUSH1 0x20 DUP3 DUP5 SUB SLT ISZERO PUSH3 0x104A JUMPI PUSH3 0x1049 PUSH3 0xCC0 JUMP JUMPDEST JUMPDEST PUSH1 0x0 PUSH3 0x105A DUP5 DUP3 DUP6 ADD PUSH3 0x101A JUMP JUMPDEST SWAP2 POP POP SWAP3 SWAP2 POP POP JUMP JUMPDEST PUSH1 0x0 DUP2 MLOAD SWAP1 POP PUSH3 0x1074 DUP2 PUSH3 0xCF9 JUMP JUMPDEST SWAP3 SWAP2 POP POP JUMP JUMPDEST PUSH1 0x0 PUSH1 0x20 DUP3 DUP5 SUB SLT ISZERO PUSH3 0x1093 JUMPI PUSH3 0x1092 PUSH3 0xCC0 JUMP JUMPDEST JUMPDEST PUSH1 0x0 PUSH3 0x10A3 DUP5 DUP3 DUP6 ADD PUSH3 0x1063 JUMP JUMPDEST SWAP2 POP POP SWAP3 SWAP2 POP POP JUMP JUMPDEST PUSH32 0x4E487B7100000000000000000000000000000000000000000000000000000000 PUSH1 0x0 MSTORE PUSH1 0x11 PUSH1 0x4 MSTORE PUSH1 0x24 PUSH1 0x0 REVERT JUMPDEST PUSH1 0x0 DUP2 SWAP1 POP SWAP2 SWAP1 POP JUMP JUMPDEST PUSH1 0x0 PUSH3 0x10F2 DUP3 PUSH3 0x10DB JUMP JUMPDEST SWAP2 POP PUSH32 0xFFFFFFFFFFFFFFFFFFFFFFFFFFFFFFFFFFFFFFFFFFFFFFFFFFFFFFFFFFFFFFFF DUP3 SUB PUSH3 0x1127 JUMPI PUSH3 0x1126 PUSH3 0x10AC JUMP JUMPDEST JUMPDEST PUSH1 0x1 DUP3 ADD SWAP1 POP SWAP2 SWAP1 POP JUMP JUMPDEST PUSH32 0x596F7520617265206E6F74206D616E616765722E2064656C6574654D616E6167 PUSH1 0x0 DUP3 ADD MSTORE PUSH32 0x65722066756E6374696F6E20697320616C6C6F77656420666F72206D616E6167 PUSH1 0x20 DUP3 ADD MSTORE PUSH32 0x65722E0000000000000000000000000000000000000000000000000000000000 PUSH1 0x40 DUP3 ADD MSTORE POP JUMP JUMPDEST PUSH1 0x0 PUSH3 0x11B6 PUSH1 0x43 DUP4 PUSH3 0xEB6 JUMP JUMPDEST SWAP2 POP PUSH3 0x11C3 DUP3 PUSH3 0x1132 JUMP JUMPDEST PUSH1 0x60 DUP3 ADD SWAP1 POP SWAP2 SWAP1 POP JUMP JUMPDEST PUSH1 0x0 PUSH1 0x20 DUP3 ADD SWAP1 POP DUP2 DUP2 SUB PUSH1 0x0 DUP4 ADD MSTORE PUSH3 0x11E9 DUP2 PUSH3 0x11A7 JUMP JUMPDEST SWAP1 POP SWAP2 SWAP1 POP JUMP JUMPDEST PUSH32 0x4F776E65722063616E206E6F742062652064656C657465642E20757365206368 PUSH1 0x0 DUP3 ADD MSTORE PUSH32 0x616E67654F776E65722066756E6374696F6E20746F2064656C657465206F7269 PUSH1 0x20 DUP3 ADD MSTORE PUSH32 0x67696E616C206F776E657220616E642067656E6572617465206E6577206F6E65 PUSH1 0x40 DUP3 ADD MSTORE PUSH32 0x2E00000000000000000000000000000000000000000000000000000000000000 PUSH1 0x60 DUP3 ADD MSTORE POP JUMP JUMPDEST PUSH1 0x0 PUSH3 0x129A PUSH1 0x61 DUP4 PUSH3 0xEB6 JUMP JUMPDEST SWAP2 POP PUSH3 0x12A7 DUP3 PUSH3 0x11F0 JUMP JUMPDEST PUSH1 0x80 DUP3 ADD SWAP1 POP SWAP2 SWAP1 POP JUMP JUMPDEST PUSH1 0x0 PUSH1 0x20 DUP3 ADD SWAP1 POP DUP2 DUP2 SUB PUSH1 0x0 DUP4 ADD MSTORE PUSH3 0x12CD DUP2 PUSH3 0x128B JUMP JUMPDEST SWAP1 POP SWAP2 SWAP1 POP JUMP JUMPDEST PUSH1 0x0 PUSH3 0x12E1 DUP3 PUSH3 0x10DB JUMP JUMPDEST SWAP2 POP PUSH3 0x12EE DUP4 PUSH3 0x10DB JUMP JUMPDEST SWAP3 POP DUP3 DUP3 SUB SWAP1 POP DUP2 DUP2 GT ISZERO PUSH3 0x1309 JUMPI PUSH3 0x1308 PUSH3 0x10AC JUMP JUMPDEST JUMPDEST SWAP3 SWAP2 POP POP JUMP JUMPDEST PUSH32 0x4E487B7100000000000000000000000000000000000000000000000000000000 PUSH1 0x0 MSTORE PUSH1 0x31 PUSH1 0x4 MSTORE PUSH1 0x24 PUSH1 0x0 REVERT JUMPDEST PUSH32 0x6E6F7420666F756E642068696D20696E206D616E61676572206C697374000000 PUSH1 0x0 DUP3 ADD MSTORE POP JUMP JUMPDEST PUSH1 0x0 PUSH3 0x1376 PUSH1 0x1D DUP4 PUSH3 0xEB6 JUMP JUMPDEST SWAP2 POP PUSH3 0x1383 DUP3 PUSH3 0x133E JUMP JUMPDEST PUSH1 0x20 DUP3 ADD SWAP1 POP SWAP2 SWAP1 POP JUMP JUMPDEST PUSH1 0x0 PUSH1 0x20 DUP3 ADD SWAP1 POP DUP2 DUP2 SUB PUSH1 0x0 DUP4 ADD MSTORE PUSH3 0x13A9 DUP2 PUSH3 0x1367 JUMP JUMPDEST SWAP1 POP SWAP2 SWAP1 POP JUMP JUMPDEST PUSH32 0x486520697320616C7265616479206D616E616765722E204265666F7265207573 PUSH1 0x0 DUP3 ADD MSTORE PUSH32 0x6520746869732066756E6374696F6E2C20796F75206D7573742064656C657465 PUSH1 0x20 DUP3 ADD MSTORE PUSH32 0x2068696D2066726F6D206D616E6167657273206C6973742E287573652064656C PUSH1 0x40 DUP3 ADD MSTORE PUSH32 0x6574654D616E616765722066756E6374696F6E21290000000000000000000000 PUSH1 0x60 DUP3 ADD MSTORE POP JUMP JUMPDEST PUSH1 0x0 PUSH3 0x145A PUSH1 0x75 DUP4 PUSH3 0xEB6 JUMP JUMPDEST SWAP2 POP PUSH3 0x1467 DUP3 PUSH3 0x13B0 JUMP JUMPDEST PUSH1 0x80 DUP3 ADD SWAP1 POP SWAP2 SWAP1 POP JUMP JUMPDEST PUSH1 0x0 PUSH1 0x20 DUP3 ADD SWAP1 POP DUP2 DUP2 SUB PUSH1 0x0 DUP4 ADD MSTORE PUSH3 0x148D DUP2 PUSH3 0x144B JUMP JUMPDEST SWAP1 POP SWAP2 SWAP1 POP JUMP JUMPDEST PUSH32 0x596F7520617265206E6F74206F776E65722E206368616E67654F776E65722066 PUSH1 0x0 DUP3 ADD MSTORE PUSH32 0x756E6374696F6E20697320616C6C6F77656420666F72206F776E65722E000000 PUSH1 0x20 DUP3 ADD MSTORE POP JUMP JUMPDEST PUSH1 0x0 PUSH3 0x14F2 PUSH1 0x3D DUP4 PUSH3 0xEB6 JUMP JUMPDEST SWAP2 POP PUSH3 0x14FF DUP3 PUSH3 0x1494 JUMP JUMPDEST PUSH1 0x40 DUP3 ADD SWAP1 POP SWAP2 SWAP1 POP JUMP JUMPDEST PUSH1 0x0 PUSH1 0x20 DUP3 ADD SWAP1 POP DUP2 DUP2 SUB PUSH1 0x0 DUP4 ADD MSTORE PUSH3 0x1525 DUP2 PUSH3 0x14E3 JUMP JUMPDEST SWAP1 POP SWAP2 SWAP1 POP JUMP JUMPDEST PUSH32 0x4E487B7100000000000000000000000000000000000000000000000000000000 PUSH1 0x0 MSTORE PUSH1 0x41 PUSH1 0x4 MSTORE PUSH1 0x24 PUSH1 0x0 REVERT INVALID PUSH1 0x80 PUSH1 0x40 MSTORE CALLVALUE DUP1 ISZERO PUSH2 0x10 JUMPI PUSH1 0x0 DUP1 REVERT JUMPDEST POP PUSH1 0x40 MLOAD PUSH2 0x284 CODESIZE SUB DUP1 PUSH2 0x284 DUP4 CODECOPY DUP2 DUP2 ADD PUSH1 0x40 MSTORE DUP2 ADD SWAP1 PUSH2 0x32 SWAP2 SWAP1 PUSH2 0xDB JUMP JUMPDEST DUP1 PUSH1 0x0 DUP1 PUSH2 0x100 EXP DUP2 SLOAD DUP2 PUSH20 0xFFFFFFFFFFFFFFFFFFFFFFFFFFFFFFFFFFFFFFFF MUL NOT AND SWAP1 DUP4 PUSH20 0xFFFFFFFFFFFFFFFFFFFFFFFFFFFFFFFFFFFFFFFF AND MUL OR SWAP1 SSTORE POP POP PUSH2 0x108 JUMP JUMPDEST PUSH1 0x0 DUP1 REVERT JUMPDEST PUSH1 0x0 PUSH20 0xFFFFFFFFFFFFFFFFFFFFFFFFFFFFFFFFFFFFFFFF DUP3 AND SWAP1 POP SWAP2 SWAP1 POP JUMP JUMPDEST PUSH1 0x0 PUSH2 0xA8 DUP3 PUSH2 0x7D JUMP JUMPDEST SWAP1 POP SWAP2 SWAP1 POP JUMP JUMPDEST PUSH2 0xB8 DUP2 PUSH2 0x9D JUMP JUMPDEST DUP2 EQ PUSH2 0xC3 JUMPI PUSH1 0x0 DUP1 REVERT JUMPDEST POP JUMP JUMPDEST PUSH1 0x0 DUP2 MLOAD SWAP1 POP PUSH2 0xD5 DUP2 PUSH2 0xAF JUMP JUMPDEST SWAP3 SWAP2 POP POP JUMP JUMPDEST PUSH1 0x0 PUSH1 0x20 DUP3 DUP5 SUB SLT ISZERO PUSH2 0xF1 JUMPI PUSH2 0xF0 PUSH2 0x78 JUMP JUMPDEST JUMPDEST PUSH1 0x0 PUSH2 0xFF DUP5 DUP3 DUP6 ADD PUSH2 0xC6 JUMP JUMPDEST SWAP2 POP POP SWAP3 SWAP2 POP POP JUMP JUMPDEST PUSH2 0x16D DUP1 PUSH2 0x117 PUSH1 0x0 CODECOPY PUSH1 0x0 RETURN INVALID PUSH1 0x80 PUSH1 0x40 MSTORE CALLVALUE DUP1 ISZERO PUSH2 0x10 JUMPI PUSH1 0x0 DUP1 REVERT JUMPDEST POP PUSH1 0x4 CALLDATASIZE LT PUSH2 0x36 JUMPI PUSH1 0x0 CALLDATALOAD PUSH1 0xE0 SHR DUP1 PUSH4 0x8F32D59B EQ PUSH2 0x3B JUMPI DUP1 PUSH4 0xC162D7DA EQ PUSH2 0x59 JUMPI JUMPDEST PUSH1 0x0 DUP1 REVERT JUMPDEST PUSH2 0x43 PUSH2 0x77 JUMP JUMPDEST PUSH1 0x40 MLOAD PUSH2 0x50 SWAP2 SWAP1 PUSH2 0xC0 JUMP JUMPDEST PUSH1 0x40 MLOAD DUP1 SWAP2 SUB SWAP1 RETURN JUMPDEST PUSH2 0x61 PUSH2 0x7C JUMP JUMPDEST PUSH1 0x40 MLOAD PUSH2 0x6E SWAP2 SWAP1 PUSH2 0x11C JUMP JUMPDEST PUSH1 0x40 MLOAD DUP1 SWAP2 SUB SWAP1 RETURN JUMPDEST PUSH1 0x0 SWAP1 JUMP JUMPDEST PUSH1 0x0 DUP1 PUSH1 0x0 SWAP1 SLOAD SWAP1 PUSH2 0x100 EXP SWAP1 DIV PUSH20 0xFFFFFFFFFFFFFFFFFFFFFFFFFFFFFFFFFFFFFFFF AND SWAP1 POP SWAP1 JUMP JUMPDEST PUSH1 0x0 DUP2 ISZERO ISZERO SWAP1 POP SWAP2 SWAP1 POP JUMP JUMPDEST PUSH2 0xBA DUP2 PUSH2 0xA5 JUMP JUMPDEST DUP3 MSTORE POP POP JUMP JUMPDEST PUSH1 0x0 PUSH1 0x20 DUP3 ADD SWAP1 POP PUSH2 0xD5 PUSH1 0x0 DUP4 ADD DUP5 PUSH2 0xB1 JUMP JUMPDEST SWAP3 SWAP2 POP POP JUMP JUMPDEST PUSH1 0x0 PUSH20 0xFFFFFFFFFFFFFFFFFFFFFFFFFFFFFFFFFFFFFFFF DUP3 AND SWAP1 POP SWAP2 SWAP1 POP JUMP JUMPDEST PUSH1 0x0 PUSH2 0x106 DUP3 PUSH2 0xDB JUMP JUMPDEST SWAP1 POP SWAP2 SWAP1 POP JUMP JUMPDEST PUSH2 0x116 DUP2 PUSH2 0xFB JUMP JUMPDEST DUP3 MSTORE POP POP JUMP JUMPDEST PUSH1 0x0 PUSH1 0x20 DUP3 ADD SWAP1 POP PUSH2 0x131 PUSH1 0x0 DUP4 ADD DUP5 PUSH2 0x10D JUMP JUMPDEST SWAP3 SWAP2 POP POP JUMP INVALID LOG2 PUSH5 0x6970667358 0x22 SLT KECCAK256 BASEFEE PUSH6 0xE350C9C5F49B 0xE4 0xBE PUSH24 0x9FDEBA57C84B2A8CEE00C8279996A08FDCD38D559364736F PUSH13 0x63430008120033608060405234 DUP1 ISZERO PUSH2 0x10 JUMPI PUSH1 0x0 DUP1 REVERT JUMPDEST POP PUSH1 0x40 MLOAD PUSH2 0x28A CODESIZE SUB DUP1 PUSH2 0x28A DUP4 CODECOPY DUP2 DUP2 ADD PUSH1 0x40 MSTORE DUP2 ADD SWAP1 PUSH2 0x32 SWAP2 SWAP1 PUSH2 0xDD JUMP JUMPDEST DUP1 DUP1 PUSH1 0x0 DUP1 PUSH2 0x100 EXP DUP2 SLOAD DUP2 PUSH20 0xFFFFFFFFFFFFFFFFFFFFFFFFFFFFFFFFFFFFFFFF MUL NOT AND SWAP1 DUP4 PUSH20 0xFFFFFFFFFFFFFFFFFFFFFFFFFFFFFFFFFFFFFFFF AND MUL OR SWAP1 SSTORE POP POP POP PUSH2 0x10A JUMP JUMPDEST PUSH1 0x0 DUP1 REVERT JUMPDEST PUSH1 0x0 PUSH20 0xFFFFFFFFFFFFFFFFFFFFFFFFFFFFFFFFFFFFFFFF DUP3 AND SWAP1 POP SWAP2 SWAP1 POP JUMP JUMPDEST PUSH1 0x0 PUSH2 0xAA DUP3 PUSH2 0x7F JUMP JUMPDEST SWAP1 POP SWAP2 SWAP1 POP JUMP JUMPDEST PUSH2 0xBA DUP2 PUSH2 0x9F JUMP JUMPDEST DUP2 EQ PUSH2 0xC5 JUMPI PUSH1 0x0 DUP1 REVERT JUMPDEST POP JUMP JUMPDEST PUSH1 0x0 DUP2 MLOAD SWAP1 POP PUSH2 0xD7 DUP2 PUSH2 0xB1 JUMP JUMPDEST SWAP3 SWAP2 POP POP JUMP JUMPDEST PUSH1 0x0 PUSH1 0x20 DUP3 DUP5 SUB SLT ISZERO PUSH2 0xF3 JUMPI PUSH2 0xF2 PUSH2 0x7A JUMP JUMPDEST JUMPDEST PUSH1 0x0 PUSH2 0x101 DUP5 DUP3 DUP6 ADD PUSH2 0xC8 JUMP JUMPDEST SWAP2 POP POP SWAP3 SWAP2 POP POP JUMP JUMPDEST PUSH2 0x171 DUP1 PUSH2 0x119 PUSH1 0x0 CODECOPY PUSH1 0x0 RETURN INVALID PUSH1 0x80 PUSH1 0x40 MSTORE CALLVALUE DUP1 ISZERO PUSH2 0x10 JUMPI PUSH1 0x0 DUP1 REVERT JUMPDEST POP PUSH1 0x4 CALLDATASIZE LT PUSH2 0x36 JUMPI PUSH1 0x0 CALLDATALOAD PUSH1 0xE0 SHR DUP1 PUSH4 0x8F32D59B EQ PUSH2 0x3B JUMPI DUP1 PUSH4 0xC162D7DA EQ PUSH2 0x59 JUMPI JUMPDEST PUSH1 0x0 DUP1 REVERT JUMPDEST PUSH2 0x43 PUSH2 0x77 JUMP JUMPDEST PUSH1 0x40 MLOAD PUSH2 0x50 SWAP2 SWAP1 PUSH2 0xC4 JUMP JUMPDEST PUSH1 0x40 MLOAD DUP1 SWAP2 SUB SWAP1 RETURN JUMPDEST PUSH2 0x61 PUSH2 0x80 JUMP JUMPDEST PUSH1 0x40 MLOAD PUSH2 0x6E SWAP2 SWAP1 PUSH2 0x120 JUMP JUMPDEST PUSH1 0x40 MLOAD DUP1 SWAP2 SUB SWAP1 RETURN JUMPDEST PUSH1 0x0 PUSH1 0x1 SWAP1 POP SWAP1 JUMP JUMPDEST PUSH1 0x0 DUP1 PUSH1 0x0 SWAP1 SLOAD SWAP1 PUSH2 0x100 EXP SWAP1 DIV PUSH20 0xFFFFFFFFFFFFFFFFFFFFFFFFFFFFFFFFFFFFFFFF AND SWAP1 POP SWAP1 JUMP JUMPDEST PUSH1 0x0 DUP2 ISZERO ISZERO SWAP1 POP SWAP2 SWAP1 POP JUMP JUMPDEST PUSH2 0xBE DUP2 PUSH2 0xA9 JUMP JUMPDEST DUP3 MSTORE POP POP JUMP JUMPDEST PUSH1 0x0 PUSH1 0x20 DUP3 ADD SWAP1 POP PUSH2 0xD9 PUSH1 0x0 DUP4 ADD DUP5 PUSH2 0xB5 JUMP JUMPDEST SWAP3 SWAP2 POP POP JUMP JUMPDEST PUSH1 0x0 PUSH20 0xFFFFFFFFFFFFFFFFFFFFFFFFFFFFFFFFFFFFFFFF DUP3 AND SWAP1 POP SWAP2 SWAP1 POP JUMP JUMPDEST PUSH1 0x0 PUSH2 0x10A DUP3 PUSH2 0xDF JUMP JUMPDEST SWAP1 POP SWAP2 SWAP1 POP JUMP JUMPDEST PUSH2 0x11A DUP2 PUSH2 0xFF JUMP JUMPDEST DUP3 MSTORE POP POP JUMP JUMPDEST PUSH1 0x0 PUSH1 0x20 DUP3 ADD SWAP1 POP PUSH2 0x135 PUSH1 0x0 DUP4 ADD DUP5 PUSH2 0x111 JUMP JUMPDEST SWAP3 SWAP2 POP POP JUMP INVALID LOG2 PUSH5 0x6970667358 0x22 SLT KECCAK256 CODECOPY 0xBC 0xE2 CALL CODECOPY 0xEC PUSH24 0x7C61FFB45D27593C11B41E0C1AC6F9956D0E8FF6E6C88C3D PUSH5 0x64736F6C63 NUMBER STOP ADDMOD SLT STOP CALLER LOG2 PUSH5 0x6970667358 0x22 SLT KECCAK256 SWAP5 REVERT CALLVALUE CREATE2 PUSH18 0xEB2FE94E4DA30B2FC9541AD61565D4E0C6EA JUMPDEST CALLCODE MOD SWAP12 SWAP6 0xFC 0xD1 CREATE2 0xC0 PUSH5 0x736F6C6343 STOP ADDMOD SLT STOP CALLER PUSH1 0x80 PUSH1 0x40 MSTORE CALLVALUE DUP1 ISZERO PUSH2 0x10 JUMPI PUSH1 0x0 DUP1 REVERT JUMPDEST POP PUSH1 0x40 MLOAD PUSH2 0x28A CODESIZE SUB DUP1 PUSH2 0x28A DUP4 CODECOPY DUP2 DUP2 ADD PUSH1 0x40 MSTORE DUP2 ADD SWAP1 PUSH2 0x32 SWAP2 SWAP1 PUSH2 0xDD JUMP JUMPDEST DUP1 DUP1 PUSH1 0x0 DUP1 PUSH2 0x100 EXP DUP2 SLOAD DUP2 PUSH20 0xFFFFFFFFFFFFFFFFFFFFFFFFFFFFFFFFFFFFFFFF MUL NOT AND SWAP1 DUP4 PUSH20 0xFFFFFFFFFFFFFFFFFFFFFFFFFFFFFFFFFFFFFFFF AND MUL OR SWAP1 SSTORE POP POP POP PUSH2 0x10A JUMP JUMPDEST PUSH1 0x0 DUP1 REVERT JUMPDEST PUSH1 0x0 PUSH20 0xFFFFFFFFFFFFFFFFFFFFFFFFFFFFFFFFFFFFFFFF DUP3 AND SWAP1 POP SWAP2 SWAP1 POP JUMP JUMPDEST PUSH1 0x0 PUSH2 0xAA DUP3 PUSH2 0x7F JUMP JUMPDEST SWAP1 POP SWAP2 SWAP1 POP JUMP JUMPDEST PUSH2 0xBA DUP2 PUSH2 0x9F JUMP JUMPDEST DUP2 EQ PUSH2 0xC5 JUMPI PUSH1 0x0 DUP1 REVERT JUMPDEST POP JUMP JUMPDEST PUSH1 0x0 DUP2 MLOAD SWAP1 POP PUSH2 0xD7 DUP2 PUSH2 0xB1 JUMP JUMPDEST SWAP3 SWAP2 POP POP JUMP JUMPDEST PUSH1 0x0 PUSH1 0x20 DUP3 DUP5 SUB SLT ISZERO PUSH2 0xF3 JUMPI PUSH2 0xF2 PUSH2 0x7A JUMP JUMPDEST JUMPDEST PUSH1 0x0 PUSH2 0x101 DUP5 DUP3 DUP6 ADD PUSH2 0xC8 JUMP JUMPDEST SWAP2 POP POP SWAP3 SWAP2 POP POP JUMP JUMPDEST PUSH2 0x171 DUP1 PUSH2 0x119 PUSH1 0x0 CODECOPY PUSH1 0x0 RETURN INVALID PUSH1 0x80 PUSH1 0x40 MSTORE CALLVALUE DUP1 ISZERO PUSH2 0x10 JUMPI PUSH1 0x0 DUP1 REVERT JUMPDEST POP PUSH1 0x4 CALLDATASIZE LT PUSH2 0x36 JUMPI PUSH1 0x0 CALLDATALOAD PUSH1 0xE0 SHR DUP1 PUSH4 0x8F32D59B EQ PUSH2 0x3B JUMPI DUP1 PUSH4 0xC162D7DA EQ PUSH2 0x59 JUMPI JUMPDEST PUSH1 0x0 DUP1 REVERT JUMPDEST PUSH2 0x43 PUSH2 0x77 JUMP JUMPDEST PUSH1 0x40 MLOAD PUSH2 0x50 SWAP2 SWAP1 PUSH2 0xC4 JUMP JUMPDEST PUSH1 0x40 MLOAD DUP1 SWAP2 SUB SWAP1 RETURN JUMPDEST PUSH2 0x61 PUSH2 0x80 JUMP JUMPDEST PUSH1 0x40 MLOAD PUSH2 0x6E SWAP2 SWAP1 PUSH2 0x120 JUMP JUMPDEST PUSH1 0x40 MLOAD DUP1 SWAP2 SUB SWAP1 RETURN JUMPDEST PUSH1 0x0 PUSH1 0x1 SWAP1 POP SWAP1 JUMP JUMPDEST PUSH1 0x0 DUP1 PUSH1 0x0 SWAP1 SLOAD SWAP1 PUSH2 0x100 EXP SWAP1 DIV PUSH20 0xFFFFFFFFFFFFFFFFFFFFFFFFFFFFFFFFFFFFFFFF AND SWAP1 POP SWAP1 JUMP JUMPDEST PUSH1 0x0 DUP2 ISZERO ISZERO SWAP1 POP SWAP2 SWAP1 POP JUMP JUMPDEST PUSH2 0xBE DUP2 PUSH2 0xA9 JUMP JUMPDEST DUP3 MSTORE POP POP JUMP JUMPDEST PUSH1 0x0 PUSH1 0x20 DUP3 ADD SWAP1 POP PUSH2 0xD9 PUSH1 0x0 DUP4 ADD DUP5 PUSH2 0xB5 JUMP JUMPDEST SWAP3 SWAP2 POP POP JUMP JUMPDEST PUSH1 0x0 PUSH20 0xFFFFFFFFFFFFFFFFFFFFFFFFFFFFFFFFFFFFFFFF DUP3 AND SWAP1 POP SWAP2 SWAP1 POP JUMP JUMPDEST PUSH1 0x0 PUSH2 0x10A DUP3 PUSH2 0xDF JUMP JUMPDEST SWAP1 POP SWAP2 SWAP1 POP JUMP JUMPDEST PUSH2 0x11A DUP2 PUSH2 0xFF JUMP JUMPDEST DUP3 MSTORE POP POP JUMP JUMPDEST PUSH1 0x0 PUSH1 0x20 DUP3 ADD SWAP1 POP PUSH2 0x135 PUSH1 0x0 DUP4 ADD DUP5 PUSH2 0x111 JUMP JUMPDEST SWAP3 SWAP2 POP POP JUMP INVALID LOG2 PUSH5 0x6970667358 0x22 SLT KECCAK256 CODECOPY 0xBC 0xE2 CALL CODECOPY 0xEC PUSH24 0x7C61FFB45D27593C11B41E0C1AC6F9956D0E8FF6E6C88C3D PUSH5 0x64736F6C63 NUMBER STOP ADDMOD SLT STOP CALLER "
				},
				"gasEstimates": {
					"creation": {
						"codeDepositCost": "1363000",
						"executionCost": "infinite",
						"totalCost": "infinite"
					},
					"external": {
						"addManager(address)": "infinite",
						"changeOwner(address)": "infinite",
						"deleteManager(address)": "infinite",
						"getManagers()": "infinite",
						"getOwner()": "infinite",
						"isManager(address)": "infinite",
						"isOwner(address)": "infinite"
					}
				},
				"methodIdentifiers": {
					"addManager(address)": "2d06177a",
					"changeOwner(address)": "a6f9dae1",
					"deleteManager(address)": "96799760",
					"getManagers()": "a8d088bb",
					"getOwner()": "893d20e8",
					"isManager(address)": "f3ae2415",
					"isOwner(address)": "2f54bf6e"
				}
			},
			"storageLayout": {
				"storage": [
					{
						"astId": 61,
						"contract": "authentication.sol:Managers",
						"label": "managers",
						"offset": 0,
						"slot": "0",
						"type": "t_array(t_contract(Manager)30)dyn_storage"
					}
				],
				"types": {
					"t_array(t_contract(Manager)30)dyn_storage": {
						"base": "t_contract(Manager)30",
						"encoding": "dynamic_array",
						"label": "contract Manager[]",
						"numberOfBytes": "32"
					},
					"t_contract(Manager)30": {
						"encoding": "inplace",
						"label": "contract Manager",
						"numberOfBytes": "20"
					}
				}
			},
			"userdoc": {
				"kind": "user",
				"methods": {},
				"version": 1
			}
		}
	}
}